{
	"CrossSourceMinter.sol": {
		"CrossSourceMinter": {
			"abi": [
				{
					"inputs": [
						{
							"internalType": "address",
							"name": "destMinterAddress",
							"type": "address"
						}
					],
					"stateMutability": "nonpayable",
					"type": "constructor"
				},
				{
					"inputs": [
						{
							"internalType": "uint256",
							"name": "currentBalance",
							"type": "uint256"
						},
						{
							"internalType": "uint256",
							"name": "calculatedFees",
							"type": "uint256"
						}
					],
					"name": "NotEnoughBalance",
					"type": "error"
				},
				{
					"inputs": [],
					"name": "NothingToWithdraw",
					"type": "error"
				},
				{
					"anonymous": false,
					"inputs": [
						{
							"indexed": false,
							"internalType": "bytes32",
							"name": "messageId",
							"type": "bytes32"
						}
					],
					"name": "MessageSent",
					"type": "event"
				},
				{
					"inputs": [],
					"name": "destinationChainSelector",
					"outputs": [
						{
							"internalType": "uint64",
							"name": "",
							"type": "uint64"
						}
					],
					"stateMutability": "view",
					"type": "function"
				},
				{
					"inputs": [],
					"name": "destinationMinter",
					"outputs": [
						{
							"internalType": "address",
							"name": "",
							"type": "address"
						}
					],
					"stateMutability": "view",
					"type": "function"
				},
				{
					"inputs": [
						{
							"internalType": "address",
							"name": "account",
							"type": "address"
						}
					],
					"name": "linkBalance",
					"outputs": [
						{
							"internalType": "uint256",
							"name": "",
							"type": "uint256"
						}
					],
					"stateMutability": "view",
					"type": "function"
				},
				{
					"inputs": [],
					"name": "linkToken",
					"outputs": [
						{
							"internalType": "contract LinkTokenInterface",
							"name": "",
							"type": "address"
						}
					],
					"stateMutability": "view",
					"type": "function"
				},
				{
					"inputs": [],
					"name": "mintOnSepolia",
					"outputs": [],
					"stateMutability": "nonpayable",
					"type": "function"
				},
				{
					"inputs": [],
					"name": "owner",
					"outputs": [
						{
							"internalType": "address",
							"name": "",
							"type": "address"
						}
					],
					"stateMutability": "view",
					"type": "function"
				},
				{
					"inputs": [],
					"name": "router",
					"outputs": [
						{
							"internalType": "contract IRouterClient",
							"name": "",
							"type": "address"
						}
					],
					"stateMutability": "view",
					"type": "function"
				},
				{
					"inputs": [
						{
							"internalType": "address",
							"name": "beneficiary",
							"type": "address"
						}
					],
					"name": "withdrawLINK",
					"outputs": [],
					"stateMutability": "nonpayable",
					"type": "function"
				}
			],
			"devdoc": {
				"kind": "dev",
				"methods": {},
				"version": 1
			},
			"evm": {
				"assembly": "    /* \"CrossSourceMinter.sol\":553:3172  contract CrossSourceMinter {... */\n  mstore(0x40, 0x80)\n    /* \"CrossSourceMinter.sol\":1120:1691  constructor(address destMinterAddress) {... */\n  callvalue\n  dup1\n  iszero\n  tag_1\n  jumpi\n  0x00\n  dup1\n  revert\ntag_1:\n  pop\n  mload(0x40)\n  sub(codesize, bytecodeSize)\n  dup1\n  bytecodeSize\n  dup4\n  codecopy\n  dup2\n  dup2\n  add\n  0x40\n  mstore\n  dup2\n  add\n  swap1\n  tag_2\n  swap2\n  swap1\n  tag_3\n  jump\t// in\ntag_2:\n    /* \"CrossSourceMinter.sol\":1177:1187  msg.sender */\n  caller\n    /* \"CrossSourceMinter.sol\":1169:1174  owner */\n  0x02\n  0x00\n    /* \"CrossSourceMinter.sol\":1169:1187  owner = msg.sender */\n  0x0100\n  exp\n  dup2\n  sload\n  dup2\n  0xffffffffffffffffffffffffffffffffffffffff\n  mul\n  not\n  and\n  swap1\n  dup4\n  0xffffffffffffffffffffffffffffffffffffffff\n  and\n  mul\n  or\n  swap1\n  sstore\n  pop\n    /* \"CrossSourceMinter.sol\":1287:1312  address routerAddressFuji */\n  0x00\n    /* \"CrossSourceMinter.sol\":1315:1357  0xF694E193200268f9a4868e4Aa017A0118C9a8177 */\n  0xf694e193200268f9a4868e4aa017a0118c9a8177\n    /* \"CrossSourceMinter.sol\":1287:1357  address routerAddressFuji = 0xF694E193200268f9a4868e4Aa017A0118C9a8177 */\n  swap1\n  pop\n    /* \"CrossSourceMinter.sol\":1390:1407  routerAddressFuji */\n  dup1\n    /* \"CrossSourceMinter.sol\":1367:1373  router */\n  0x00\n  dup1\n    /* \"CrossSourceMinter.sol\":1367:1408  router = IRouterClient(routerAddressFuji) */\n  0x0100\n  exp\n  dup2\n  sload\n  dup2\n  0xffffffffffffffffffffffffffffffffffffffff\n  mul\n  not\n  and\n  swap1\n  dup4\n  0xffffffffffffffffffffffffffffffffffffffff\n  and\n  mul\n  or\n  swap1\n  sstore\n  pop\n    /* \"CrossSourceMinter.sol\":1449:1491  0x0b9d5D9136855f6FEc3c0993feE6E9CE8a297846 */\n  0x0b9d5d9136855f6fec3c0993fee6e9ce8a297846\n    /* \"CrossSourceMinter.sol\":1418:1427  linkToken */\n  0x01\n  0x00\n    /* \"CrossSourceMinter.sol\":1418:1492  linkToken = LinkTokenInterface(0x0b9d5D9136855f6FEc3c0993feE6E9CE8a297846) */\n  0x0100\n  exp\n  dup2\n  sload\n  dup2\n  0xffffffffffffffffffffffffffffffffffffffff\n  mul\n  not\n  and\n  swap1\n  dup4\n  0xffffffffffffffffffffffffffffffffffffffff\n  and\n  mul\n  or\n  swap1\n  sstore\n  pop\n    /* \"CrossSourceMinter.sol\":1502:1511  linkToken */\n  0x01\n  0x00\n  swap1\n  sload\n  swap1\n  0x0100\n  exp\n  swap1\n  div\n  0xffffffffffffffffffffffffffffffffffffffff\n  and\n    /* \"CrossSourceMinter.sol\":1502:1519  linkToken.approve */\n  0xffffffffffffffffffffffffffffffffffffffff\n  and\n  0x095ea7b3\n    /* \"CrossSourceMinter.sol\":1520:1537  routerAddressFuji */\n  dup3\n    /* \"CrossSourceMinter.sol\":1539:1556  type(uint256).max */\n  0xffffffffffffffffffffffffffffffffffffffffffffffffffffffffffffffff\n    /* \"CrossSourceMinter.sol\":1502:1557  linkToken.approve(routerAddressFuji, type(uint256).max) */\n  mload(0x40)\n  dup4\n  0xffffffff\n  and\n  0xe0\n  shl\n  dup2\n  mstore\n  0x04\n  add\n  tag_6\n  swap3\n  swap2\n  swap1\n  tag_7\n  jump\t// in\ntag_6:\n  0x20\n  mload(0x40)\n  dup1\n  dup4\n  sub\n  dup2\n  0x00\n  dup8\n  gas\n  call\n  iszero\n  dup1\n  iszero\n  tag_9\n  jumpi\n  returndatasize\n  0x00\n  dup1\n  returndatacopy\n  revert(0x00, returndatasize)\ntag_9:\n  pop\n  pop\n  pop\n  pop\n  mload(0x40)\n  returndatasize\n  not(0x1f)\n  0x1f\n  dup3\n  add\n  and\n  dup3\n  add\n  dup1\n  0x40\n  mstore\n  pop\n  dup2\n  add\n  swap1\n  tag_10\n  swap2\n  swap1\n  tag_11\n  jump\t// in\ntag_10:\n  pop\n    /* \"CrossSourceMinter.sol\":1617:1637  16015286601757825753 */\n  0xde41ba4fc9d91ad9\n    /* \"CrossSourceMinter.sol\":1590:1614  destinationChainSelector */\n  0x01\n  0x14\n    /* \"CrossSourceMinter.sol\":1590:1637  destinationChainSelector = 16015286601757825753 */\n  0x0100\n  exp\n  dup2\n  sload\n  dup2\n  0xffffffffffffffff\n  mul\n  not\n  and\n  swap1\n  dup4\n  0xffffffffffffffff\n  and\n  mul\n  or\n  swap1\n  sstore\n  pop\n    /* \"CrossSourceMinter.sol\":1667:1684  destMinterAddress */\n  dup2\n    /* \"CrossSourceMinter.sol\":1647:1664  destinationMinter */\n  0x03\n  0x00\n    /* \"CrossSourceMinter.sol\":1647:1684  destinationMinter = destMinterAddress */\n  0x0100\n  exp\n  dup2\n  sload\n  dup2\n  0xffffffffffffffffffffffffffffffffffffffff\n  mul\n  not\n  and\n  swap1\n  dup4\n  0xffffffffffffffffffffffffffffffffffffffff\n  and\n  mul\n  or\n  swap1\n  sstore\n  pop\n    /* \"CrossSourceMinter.sol\":1159:1691  {... */\n  pop\n    /* \"CrossSourceMinter.sol\":1120:1691  constructor(address destMinterAddress) {... */\n  pop\n    /* \"CrossSourceMinter.sol\":553:3172  contract CrossSourceMinter {... */\n  jump(tag_12)\n    /* \"#utility.yul\":88:205   */\ntag_14:\n    /* \"#utility.yul\":197:198   */\n  0x00\n    /* \"#utility.yul\":194:195   */\n  dup1\n    /* \"#utility.yul\":187:199   */\n  revert\n    /* \"#utility.yul\":334:460   */\ntag_16:\n    /* \"#utility.yul\":371:378   */\n  0x00\n    /* \"#utility.yul\":411:453   */\n  0xffffffffffffffffffffffffffffffffffffffff\n    /* \"#utility.yul\":404:409   */\n  dup3\n    /* \"#utility.yul\":400:454   */\n  and\n    /* \"#utility.yul\":389:454   */\n  swap1\n  pop\n    /* \"#utility.yul\":334:460   */\n  swap2\n  swap1\n  pop\n  jump\t// out\n    /* \"#utility.yul\":466:562   */\ntag_17:\n    /* \"#utility.yul\":503:510   */\n  0x00\n    /* \"#utility.yul\":532:556   */\n  tag_32\n    /* \"#utility.yul\":550:555   */\n  dup3\n    /* \"#utility.yul\":532:556   */\n  tag_16\n  jump\t// in\ntag_32:\n    /* \"#utility.yul\":521:556   */\n  swap1\n  pop\n    /* \"#utility.yul\":466:562   */\n  swap2\n  swap1\n  pop\n  jump\t// out\n    /* \"#utility.yul\":568:690   */\ntag_18:\n    /* \"#utility.yul\":641:665   */\n  tag_34\n    /* \"#utility.yul\":659:664   */\n  dup2\n    /* \"#utility.yul\":641:665   */\n  tag_17\n  jump\t// in\ntag_34:\n    /* \"#utility.yul\":634:639   */\n  dup2\n    /* \"#utility.yul\":631:666   */\n  eq\n    /* \"#utility.yul\":621:684   */\n  tag_35\n  jumpi\n    /* \"#utility.yul\":680:681   */\n  0x00\n    /* \"#utility.yul\":677:678   */\n  dup1\n    /* \"#utility.yul\":670:682   */\n  revert\n    /* \"#utility.yul\":621:684   */\ntag_35:\n    /* \"#utility.yul\":568:690   */\n  pop\n  jump\t// out\n    /* \"#utility.yul\":696:839   */\ntag_19:\n    /* \"#utility.yul\":753:758   */\n  0x00\n    /* \"#utility.yul\":784:790   */\n  dup2\n    /* \"#utility.yul\":778:791   */\n  mload\n    /* \"#utility.yul\":769:791   */\n  swap1\n  pop\n    /* \"#utility.yul\":800:833   */\n  tag_37\n    /* \"#utility.yul\":827:832   */\n  dup2\n    /* \"#utility.yul\":800:833   */\n  tag_18\n  jump\t// in\ntag_37:\n    /* \"#utility.yul\":696:839   */\n  swap3\n  swap2\n  pop\n  pop\n  jump\t// out\n    /* \"#utility.yul\":845:1196   */\ntag_3:\n    /* \"#utility.yul\":915:921   */\n  0x00\n    /* \"#utility.yul\":964:966   */\n  0x20\n    /* \"#utility.yul\":952:961   */\n  dup3\n    /* \"#utility.yul\":943:950   */\n  dup5\n    /* \"#utility.yul\":939:962   */\n  sub\n    /* \"#utility.yul\":935:967   */\n  slt\n    /* \"#utility.yul\":932:1051   */\n  iszero\n  tag_39\n  jumpi\n    /* \"#utility.yul\":970:1049   */\n  tag_40\n  tag_14\n  jump\t// in\ntag_40:\n    /* \"#utility.yul\":932:1051   */\ntag_39:\n    /* \"#utility.yul\":1090:1091   */\n  0x00\n    /* \"#utility.yul\":1115:1179   */\n  tag_41\n    /* \"#utility.yul\":1171:1178   */\n  dup5\n    /* \"#utility.yul\":1162:1168   */\n  dup3\n    /* \"#utility.yul\":1151:1160   */\n  dup6\n    /* \"#utility.yul\":1147:1169   */\n  add\n    /* \"#utility.yul\":1115:1179   */\n  tag_19\n  jump\t// in\ntag_41:\n    /* \"#utility.yul\":1105:1179   */\n  swap2\n  pop\n    /* \"#utility.yul\":1061:1189   */\n  pop\n    /* \"#utility.yul\":845:1196   */\n  swap3\n  swap2\n  pop\n  pop\n  jump\t// out\n    /* \"#utility.yul\":1202:1320   */\ntag_20:\n    /* \"#utility.yul\":1289:1313   */\n  tag_43\n    /* \"#utility.yul\":1307:1312   */\n  dup2\n    /* \"#utility.yul\":1289:1313   */\n  tag_17\n  jump\t// in\ntag_43:\n    /* \"#utility.yul\":1284:1287   */\n  dup3\n    /* \"#utility.yul\":1277:1314   */\n  mstore\n    /* \"#utility.yul\":1202:1320   */\n  pop\n  pop\n  jump\t// out\n    /* \"#utility.yul\":1326:1403   */\ntag_21:\n    /* \"#utility.yul\":1363:1370   */\n  0x00\n    /* \"#utility.yul\":1392:1397   */\n  dup2\n    /* \"#utility.yul\":1381:1397   */\n  swap1\n  pop\n    /* \"#utility.yul\":1326:1403   */\n  swap2\n  swap1\n  pop\n  jump\t// out\n    /* \"#utility.yul\":1409:1527   */\ntag_22:\n    /* \"#utility.yul\":1496:1520   */\n  tag_46\n    /* \"#utility.yul\":1514:1519   */\n  dup2\n    /* \"#utility.yul\":1496:1520   */\n  tag_21\n  jump\t// in\ntag_46:\n    /* \"#utility.yul\":1491:1494   */\n  dup3\n    /* \"#utility.yul\":1484:1521   */\n  mstore\n    /* \"#utility.yul\":1409:1527   */\n  pop\n  pop\n  jump\t// out\n    /* \"#utility.yul\":1533:1865   */\ntag_7:\n    /* \"#utility.yul\":1654:1658   */\n  0x00\n    /* \"#utility.yul\":1692:1694   */\n  0x40\n    /* \"#utility.yul\":1681:1690   */\n  dup3\n    /* \"#utility.yul\":1677:1695   */\n  add\n    /* \"#utility.yul\":1669:1695   */\n  swap1\n  pop\n    /* \"#utility.yul\":1705:1776   */\n  tag_48\n    /* \"#utility.yul\":1773:1774   */\n  0x00\n    /* \"#utility.yul\":1762:1771   */\n  dup4\n    /* \"#utility.yul\":1758:1775   */\n  add\n    /* \"#utility.yul\":1749:1755   */\n  dup6\n    /* \"#utility.yul\":1705:1776   */\n  tag_20\n  jump\t// in\ntag_48:\n    /* \"#utility.yul\":1786:1858   */\n  tag_49\n    /* \"#utility.yul\":1854:1856   */\n  0x20\n    /* \"#utility.yul\":1843:1852   */\n  dup4\n    /* \"#utility.yul\":1839:1857   */\n  add\n    /* \"#utility.yul\":1830:1836   */\n  dup5\n    /* \"#utility.yul\":1786:1858   */\n  tag_22\n  jump\t// in\ntag_49:\n    /* \"#utility.yul\":1533:1865   */\n  swap4\n  swap3\n  pop\n  pop\n  pop\n  jump\t// out\n    /* \"#utility.yul\":1871:1961   */\ntag_23:\n    /* \"#utility.yul\":1905:1912   */\n  0x00\n    /* \"#utility.yul\":1948:1953   */\n  dup2\n    /* \"#utility.yul\":1941:1954   */\n  iszero\n    /* \"#utility.yul\":1934:1955   */\n  iszero\n    /* \"#utility.yul\":1923:1955   */\n  swap1\n  pop\n    /* \"#utility.yul\":1871:1961   */\n  swap2\n  swap1\n  pop\n  jump\t// out\n    /* \"#utility.yul\":1967:2083   */\ntag_24:\n    /* \"#utility.yul\":2037:2058   */\n  tag_52\n    /* \"#utility.yul\":2052:2057   */\n  dup2\n    /* \"#utility.yul\":2037:2058   */\n  tag_23\n  jump\t// in\ntag_52:\n    /* \"#utility.yul\":2030:2035   */\n  dup2\n    /* \"#utility.yul\":2027:2059   */\n  eq\n    /* \"#utility.yul\":2017:2077   */\n  tag_53\n  jumpi\n    /* \"#utility.yul\":2073:2074   */\n  0x00\n    /* \"#utility.yul\":2070:2071   */\n  dup1\n    /* \"#utility.yul\":2063:2075   */\n  revert\n    /* \"#utility.yul\":2017:2077   */\ntag_53:\n    /* \"#utility.yul\":1967:2083   */\n  pop\n  jump\t// out\n    /* \"#utility.yul\":2089:2226   */\ntag_25:\n    /* \"#utility.yul\":2143:2148   */\n  0x00\n    /* \"#utility.yul\":2174:2180   */\n  dup2\n    /* \"#utility.yul\":2168:2181   */\n  mload\n    /* \"#utility.yul\":2159:2181   */\n  swap1\n  pop\n    /* \"#utility.yul\":2190:2220   */\n  tag_55\n    /* \"#utility.yul\":2214:2219   */\n  dup2\n    /* \"#utility.yul\":2190:2220   */\n  tag_24\n  jump\t// in\ntag_55:\n    /* \"#utility.yul\":2089:2226   */\n  swap3\n  swap2\n  pop\n  pop\n  jump\t// out\n    /* \"#utility.yul\":2232:2577   */\ntag_11:\n    /* \"#utility.yul\":2299:2305   */\n  0x00\n    /* \"#utility.yul\":2348:2350   */\n  0x20\n    /* \"#utility.yul\":2336:2345   */\n  dup3\n    /* \"#utility.yul\":2327:2334   */\n  dup5\n    /* \"#utility.yul\":2323:2346   */\n  sub\n    /* \"#utility.yul\":2319:2351   */\n  slt\n    /* \"#utility.yul\":2316:2435   */\n  iszero\n  tag_57\n  jumpi\n    /* \"#utility.yul\":2354:2433   */\n  tag_58\n  tag_14\n  jump\t// in\ntag_58:\n    /* \"#utility.yul\":2316:2435   */\ntag_57:\n    /* \"#utility.yul\":2474:2475   */\n  0x00\n    /* \"#utility.yul\":2499:2560   */\n  tag_59\n    /* \"#utility.yul\":2552:2559   */\n  dup5\n    /* \"#utility.yul\":2543:2549   */\n  dup3\n    /* \"#utility.yul\":2532:2541   */\n  dup6\n    /* \"#utility.yul\":2528:2550   */\n  add\n    /* \"#utility.yul\":2499:2560   */\n  tag_25\n  jump\t// in\ntag_59:\n    /* \"#utility.yul\":2489:2560   */\n  swap2\n  pop\n    /* \"#utility.yul\":2445:2570   */\n  pop\n    /* \"#utility.yul\":2232:2577   */\n  swap3\n  swap2\n  pop\n  pop\n  jump\t// out\n    /* \"CrossSourceMinter.sol\":553:3172  contract CrossSourceMinter {... */\ntag_12:\n  dataSize(sub_0)\n  dup1\n  dataOffset(sub_0)\n  0x00\n  codecopy\n  0x00\n  return\nstop\n\nsub_0: assembly {\n        /* \"CrossSourceMinter.sol\":553:3172  contract CrossSourceMinter {... */\n      mstore(0x40, 0x80)\n      callvalue\n      dup1\n      iszero\n      tag_1\n      jumpi\n      0x00\n      dup1\n      revert\n    tag_1:\n      pop\n      jumpi(tag_2, lt(calldatasize, 0x04))\n      shr(0xe0, calldataload(0x00))\n      dup1\n      0xa225149b\n      gt\n      tag_11\n      jumpi\n      dup1\n      0xa225149b\n      eq\n      tag_7\n      jumpi\n      dup1\n      0xb13f2552\n      eq\n      tag_8\n      jumpi\n      dup1\n      0xbf384e10\n      eq\n      tag_9\n      jumpi\n      dup1\n      0xf887ea40\n      eq\n      tag_10\n      jumpi\n      jump(tag_2)\n    tag_11:\n      dup1\n      0x1a8af8d5\n      eq\n      tag_3\n      jumpi\n      dup1\n      0x31db1ffc\n      eq\n      tag_4\n      jumpi\n      dup1\n      0x57970e93\n      eq\n      tag_5\n      jumpi\n      dup1\n      0x8da5cb5b\n      eq\n      tag_6\n      jumpi\n    tag_2:\n      0x00\n      dup1\n      revert\n        /* \"CrossSourceMinter.sol\":1038:1070  address public destinationMinter */\n    tag_3:\n      tag_12\n      tag_13\n      jump\t// in\n    tag_12:\n      mload(0x40)\n      tag_14\n      swap2\n      swap1\n      tag_15\n      jump\t// in\n    tag_14:\n      mload(0x40)\n      dup1\n      swap2\n      sub\n      swap1\n      return\n        /* \"CrossSourceMinter.sol\":968:1006  uint64 public destinationChainSelector */\n    tag_4:\n      tag_16\n      tag_17\n      jump\t// in\n    tag_16:\n      mload(0x40)\n      tag_18\n      swap2\n      swap1\n      tag_19\n      jump\t// in\n    tag_18:\n      mload(0x40)\n      dup1\n      swap2\n      sub\n      swap1\n      return\n        /* \"CrossSourceMinter.sol\":927:962  LinkTokenInterface public linkToken */\n    tag_5:\n      tag_20\n      tag_21\n      jump\t// in\n    tag_20:\n      mload(0x40)\n      tag_22\n      swap2\n      swap1\n      tag_23\n      jump\t// in\n    tag_22:\n      mload(0x40)\n      dup1\n      swap2\n      sub\n      swap1\n      return\n        /* \"CrossSourceMinter.sol\":1012:1032  address public owner */\n    tag_6:\n      tag_24\n      tag_25\n      jump\t// in\n    tag_24:\n      mload(0x40)\n      tag_26\n      swap2\n      swap1\n      tag_15\n      jump\t// in\n    tag_26:\n      mload(0x40)\n      dup1\n      swap2\n      sub\n      swap1\n      return\n        /* \"CrossSourceMinter.sol\":1697:2710  function mintOnSepolia() external {... */\n    tag_7:\n      tag_27\n      tag_28\n      jump\t// in\n    tag_27:\n      stop\n        /* \"CrossSourceMinter.sol\":2799:2920  function linkBalance (address account) public view returns (uint256) {... */\n    tag_8:\n      tag_29\n      0x04\n      dup1\n      calldatasize\n      sub\n      dup2\n      add\n      swap1\n      tag_30\n      swap2\n      swap1\n      tag_31\n      jump\t// in\n    tag_30:\n      tag_32\n      jump\t// in\n    tag_29:\n      mload(0x40)\n      tag_33\n      swap2\n      swap1\n      tag_34\n      jump\t// in\n    tag_33:\n      mload(0x40)\n      dup1\n      swap2\n      sub\n      swap1\n      return\n        /* \"CrossSourceMinter.sol\":2926:3170  function withdrawLINK(... */\n    tag_9:\n      tag_35\n      0x04\n      dup1\n      calldatasize\n      sub\n      dup2\n      add\n      swap1\n      tag_36\n      swap2\n      swap1\n      tag_31\n      jump\t// in\n    tag_36:\n      tag_37\n      jump\t// in\n    tag_35:\n      stop\n        /* \"CrossSourceMinter.sol\":894:921  IRouterClient public router */\n    tag_10:\n      tag_38\n      tag_39\n      jump\t// in\n    tag_38:\n      mload(0x40)\n      tag_40\n      swap2\n      swap1\n      tag_41\n      jump\t// in\n    tag_40:\n      mload(0x40)\n      dup1\n      swap2\n      sub\n      swap1\n      return\n        /* \"CrossSourceMinter.sol\":1038:1070  address public destinationMinter */\n    tag_13:\n      0x03\n      0x00\n      swap1\n      sload\n      swap1\n      0x0100\n      exp\n      swap1\n      div\n      0xffffffffffffffffffffffffffffffffffffffff\n      and\n      dup2\n      jump\t// out\n        /* \"CrossSourceMinter.sol\":968:1006  uint64 public destinationChainSelector */\n    tag_17:\n      0x01\n      0x14\n      swap1\n      sload\n      swap1\n      0x0100\n      exp\n      swap1\n      div\n      0xffffffffffffffff\n      and\n      dup2\n      jump\t// out\n        /* \"CrossSourceMinter.sol\":927:962  LinkTokenInterface public linkToken */\n    tag_21:\n      0x01\n      0x00\n      swap1\n      sload\n      swap1\n      0x0100\n      exp\n      swap1\n      div\n      0xffffffffffffffffffffffffffffffffffffffff\n      and\n      dup2\n      jump\t// out\n        /* \"CrossSourceMinter.sol\":1012:1032  address public owner */\n    tag_25:\n      0x02\n      0x00\n      swap1\n      sload\n      swap1\n      0x0100\n      exp\n      swap1\n      div\n      0xffffffffffffffffffffffffffffffffffffffff\n      and\n      dup2\n      jump\t// out\n        /* \"CrossSourceMinter.sol\":1697:2710  function mintOnSepolia() external {... */\n    tag_28:\n        /* \"CrossSourceMinter.sol\":1786:1822  Client.EVM2AnyMessage memory message */\n      0x00\n        /* \"CrossSourceMinter.sol\":1825:2216  Client.EVM2AnyMessage({... */\n      mload(0x40)\n      dup1\n      0xa0\n      add\n      0x40\n      mstore\n      dup1\n        /* \"CrossSourceMinter.sol\":1882:1899  destinationMinter */\n      0x03\n      0x00\n      swap1\n      sload\n      swap1\n      0x0100\n      exp\n      swap1\n      div\n      0xffffffffffffffffffffffffffffffffffffffff\n      and\n        /* \"CrossSourceMinter.sol\":1871:1900  abi.encode(destinationMinter) */\n      add(0x20, mload(0x40))\n      tag_43\n      swap2\n      swap1\n      tag_15\n      jump\t// in\n    tag_43:\n      mload(0x40)\n      0x20\n      dup2\n      dup4\n      sub\n      sub\n      dup2\n      mstore\n      swap1\n      0x40\n      mstore\n        /* \"CrossSourceMinter.sol\":1825:2216  Client.EVM2AnyMessage({... */\n      dup2\n      mstore\n      0x20\n      add\n        /* \"CrossSourceMinter.sol\":1973:1983  msg.sender */\n      caller\n        /* \"CrossSourceMinter.sol\":1985:1986  1 */\n      0x01\n        /* \"CrossSourceMinter.sol\":1920:1987  abi.encodeWithSignature(\"mintFrom(address,uint256)\", msg.sender, 1) */\n      add(0x24, mload(0x40))\n      tag_44\n      swap3\n      swap2\n      swap1\n      tag_45\n      jump\t// in\n    tag_44:\n      mload(0x40)\n      0x20\n      dup2\n      dup4\n      sub\n      sub\n      dup2\n      mstore\n      swap1\n      0x40\n      mstore\n      and(not(0xffffffffffffffffffffffffffffffffffffffffffffffffffffffff), 0x1cc7485900000000000000000000000000000000000000000000000000000000)\n      0x20\n      dup3\n      add\n      dup1\n      mload\n      0xffffffffffffffffffffffffffffffffffffffffffffffffffffffff\n      dup4\n      dup2\n      dup4\n      and\n      or\n      dup4\n      mstore\n      pop\n      pop\n      pop\n      pop\n        /* \"CrossSourceMinter.sol\":1825:2216  Client.EVM2AnyMessage({... */\n      dup2\n      mstore\n      0x20\n      add\n        /* \"CrossSourceMinter.sol\":2043:2044  0 */\n      0x00\n        /* \"CrossSourceMinter.sol\":2015:2045  new Client.EVMTokenAmount[](0) */\n      0xffffffffffffffff\n      dup2\n      gt\n      iszero\n      tag_46\n      jumpi\n      tag_47\n      tag_48\n      jump\t// in\n    tag_47:\n    tag_46:\n      mload(0x40)\n      swap1\n      dup1\n      dup3\n      mstore\n      dup1\n      0x20\n      mul\n      0x20\n      add\n      dup3\n      add\n      0x40\n      mstore\n      dup1\n      iszero\n      tag_49\n      jumpi\n      dup2\n      0x20\n      add\n    tag_50:\n      tag_51\n      tag_52\n      jump\t// in\n    tag_51:\n      dup2\n      mstore\n      0x20\n      add\n      swap1\n      0x01\n      swap1\n      sub\n      swap1\n      dup2\n      tag_50\n      jumpi\n      swap1\n      pop\n    tag_49:\n      pop\n        /* \"CrossSourceMinter.sol\":1825:2216  Client.EVM2AnyMessage({... */\n      dup2\n      mstore\n      0x20\n      add\n        /* \"CrossSourceMinter.sol\":2195:2204  linkToken */\n      0x01\n      0x00\n      swap1\n      sload\n      swap1\n      0x0100\n      exp\n      swap1\n      div\n      0xffffffffffffffffffffffffffffffffffffffff\n      and\n        /* \"CrossSourceMinter.sol\":1825:2216  Client.EVM2AnyMessage({... */\n      0xffffffffffffffffffffffffffffffffffffffff\n      and\n      dup2\n      mstore\n      0x20\n      add\n        /* \"CrossSourceMinter.sol\":2070:2163  Client._argsToBytes(... */\n      tag_53\n        /* \"CrossSourceMinter.sol\":2107:2149  Client.EVMExtraArgsV1({gasLimit: 980_000}) */\n      mload(0x40)\n      dup1\n      0x20\n      add\n      0x40\n      mstore\n      dup1\n        /* \"CrossSourceMinter.sol\":2140:2147  980_000 */\n      0x0ef420\n        /* \"CrossSourceMinter.sol\":2107:2149  Client.EVMExtraArgsV1({gasLimit: 980_000}) */\n      dup2\n      mstore\n      pop\n        /* \"CrossSourceMinter.sol\":2070:2089  Client._argsToBytes */\n      tag_54\n        /* \"CrossSourceMinter.sol\":2070:2163  Client._argsToBytes(... */\n      jump\t// in\n    tag_53:\n        /* \"CrossSourceMinter.sol\":1825:2216  Client.EVM2AnyMessage({... */\n      dup2\n      mstore\n      pop\n        /* \"CrossSourceMinter.sol\":1786:2216  Client.EVM2AnyMessage memory message = Client.EVM2AnyMessage({... */\n      swap1\n      pop\n        /* \"CrossSourceMinter.sol\":2287:2299  uint256 fees */\n      0x00\n        /* \"CrossSourceMinter.sol\":2302:2308  router */\n      dup1\n      0x00\n      swap1\n      sload\n      swap1\n      0x0100\n      exp\n      swap1\n      div\n      0xffffffffffffffffffffffffffffffffffffffff\n      and\n        /* \"CrossSourceMinter.sol\":2302:2315  router.getFee */\n      0xffffffffffffffffffffffffffffffffffffffff\n      and\n      0x20487ded\n        /* \"CrossSourceMinter.sol\":2316:2340  destinationChainSelector */\n      0x01\n      0x14\n      swap1\n      sload\n      swap1\n      0x0100\n      exp\n      swap1\n      div\n      0xffffffffffffffff\n      and\n        /* \"CrossSourceMinter.sol\":2342:2349  message */\n      dup5\n        /* \"CrossSourceMinter.sol\":2302:2350  router.getFee(destinationChainSelector, message) */\n      mload(0x40)\n      dup4\n      0xffffffff\n      and\n      0xe0\n      shl\n      dup2\n      mstore\n      0x04\n      add\n      tag_55\n      swap3\n      swap2\n      swap1\n      tag_56\n      jump\t// in\n    tag_55:\n      0x20\n      mload(0x40)\n      dup1\n      dup4\n      sub\n      dup2\n      dup7\n      gas\n      staticcall\n      iszero\n      dup1\n      iszero\n      tag_58\n      jumpi\n      returndatasize\n      0x00\n      dup1\n      returndatacopy\n      revert(0x00, returndatasize)\n    tag_58:\n      pop\n      pop\n      pop\n      pop\n      mload(0x40)\n      returndatasize\n      not(0x1f)\n      0x1f\n      dup3\n      add\n      and\n      dup3\n      add\n      dup1\n      0x40\n      mstore\n      pop\n      dup2\n      add\n      swap1\n      tag_59\n      swap2\n      swap1\n      tag_60\n      jump\t// in\n    tag_59:\n        /* \"CrossSourceMinter.sol\":2287:2350  uint256 fees = router.getFee(destinationChainSelector, message) */\n      swap1\n      pop\n        /* \"CrossSourceMinter.sol\":2372:2381  linkToken */\n      0x01\n      0x00\n      swap1\n      sload\n      swap1\n      0x0100\n      exp\n      swap1\n      div\n      0xffffffffffffffffffffffffffffffffffffffff\n      and\n        /* \"CrossSourceMinter.sol\":2372:2391  linkToken.balanceOf */\n      0xffffffffffffffffffffffffffffffffffffffff\n      and\n      0x70a08231\n        /* \"CrossSourceMinter.sol\":2400:2404  this */\n      address\n        /* \"CrossSourceMinter.sol\":2372:2406  linkToken.balanceOf(address(this)) */\n      mload(0x40)\n      dup3\n      0xffffffff\n      and\n      0xe0\n      shl\n      dup2\n      mstore\n      0x04\n      add\n      tag_61\n      swap2\n      swap1\n      tag_15\n      jump\t// in\n    tag_61:\n      0x20\n      mload(0x40)\n      dup1\n      dup4\n      sub\n      dup2\n      dup7\n      gas\n      staticcall\n      iszero\n      dup1\n      iszero\n      tag_63\n      jumpi\n      returndatasize\n      0x00\n      dup1\n      returndatacopy\n      revert(0x00, returndatasize)\n    tag_63:\n      pop\n      pop\n      pop\n      pop\n      mload(0x40)\n      returndatasize\n      not(0x1f)\n      0x1f\n      dup3\n      add\n      and\n      dup3\n      add\n      dup1\n      0x40\n      mstore\n      pop\n      dup2\n      add\n      swap1\n      tag_64\n      swap2\n      swap1\n      tag_60\n      jump\t// in\n    tag_64:\n        /* \"CrossSourceMinter.sol\":2365:2369  fees */\n      dup2\n        /* \"CrossSourceMinter.sol\":2365:2406  fees > linkToken.balanceOf(address(this)) */\n      gt\n        /* \"CrossSourceMinter.sol\":2361:2485  if (fees > linkToken.balanceOf(address(this)))... */\n      iszero\n      tag_65\n      jumpi\n        /* \"CrossSourceMinter.sol\":2444:2453  linkToken */\n      0x01\n      0x00\n      swap1\n      sload\n      swap1\n      0x0100\n      exp\n      swap1\n      div\n      0xffffffffffffffffffffffffffffffffffffffff\n      and\n        /* \"CrossSourceMinter.sol\":2444:2463  linkToken.balanceOf */\n      0xffffffffffffffffffffffffffffffffffffffff\n      and\n      0x70a08231\n        /* \"CrossSourceMinter.sol\":2472:2476  this */\n      address\n        /* \"CrossSourceMinter.sol\":2444:2478  linkToken.balanceOf(address(this)) */\n      mload(0x40)\n      dup3\n      0xffffffff\n      and\n      0xe0\n      shl\n      dup2\n      mstore\n      0x04\n      add\n      tag_66\n      swap2\n      swap1\n      tag_15\n      jump\t// in\n    tag_66:\n      0x20\n      mload(0x40)\n      dup1\n      dup4\n      sub\n      dup2\n      dup7\n      gas\n      staticcall\n      iszero\n      dup1\n      iszero\n      tag_68\n      jumpi\n      returndatasize\n      0x00\n      dup1\n      returndatacopy\n      revert(0x00, returndatasize)\n    tag_68:\n      pop\n      pop\n      pop\n      pop\n      mload(0x40)\n      returndatasize\n      not(0x1f)\n      0x1f\n      dup3\n      add\n      and\n      dup3\n      add\n      dup1\n      0x40\n      mstore\n      pop\n      dup2\n      add\n      swap1\n      tag_69\n      swap2\n      swap1\n      tag_60\n      jump\t// in\n    tag_69:\n        /* \"CrossSourceMinter.sol\":2480:2484  fees */\n      dup2\n        /* \"CrossSourceMinter.sol\":2427:2485  NotEnoughBalance(linkToken.balanceOf(address(this)), fees) */\n      mload(0x40)\n      0x8f0f420600000000000000000000000000000000000000000000000000000000\n      dup2\n      mstore\n      0x04\n      add\n      tag_70\n      swap3\n      swap2\n      swap1\n      tag_71\n      jump\t// in\n    tag_70:\n      mload(0x40)\n      dup1\n      swap2\n      sub\n      swap1\n      revert\n        /* \"CrossSourceMinter.sol\":2361:2485  if (fees > linkToken.balanceOf(address(this)))... */\n    tag_65:\n        /* \"CrossSourceMinter.sol\":2496:2513  bytes32 messageId */\n      0x00\n        /* \"CrossSourceMinter.sol\":2616:2622  router */\n      dup1\n      0x00\n      swap1\n      sload\n      swap1\n      0x0100\n      exp\n      swap1\n      div\n      0xffffffffffffffffffffffffffffffffffffffff\n      and\n        /* \"CrossSourceMinter.sol\":2616:2631  router.ccipSend */\n      0xffffffffffffffffffffffffffffffffffffffff\n      and\n      0x96f4e9f9\n        /* \"CrossSourceMinter.sol\":2632:2656  destinationChainSelector */\n      0x01\n      0x14\n      swap1\n      sload\n      swap1\n      0x0100\n      exp\n      swap1\n      div\n      0xffffffffffffffff\n      and\n        /* \"CrossSourceMinter.sol\":2658:2665  message */\n      dup6\n        /* \"CrossSourceMinter.sol\":2616:2666  router.ccipSend(destinationChainSelector, message) */\n      mload(0x40)\n      dup4\n      0xffffffff\n      and\n      0xe0\n      shl\n      dup2\n      mstore\n      0x04\n      add\n      tag_72\n      swap3\n      swap2\n      swap1\n      tag_56\n      jump\t// in\n    tag_72:\n      0x20\n      mload(0x40)\n      dup1\n      dup4\n      sub\n      dup2\n      0x00\n      dup8\n      gas\n      call\n      iszero\n      dup1\n      iszero\n      tag_74\n      jumpi\n      returndatasize\n      0x00\n      dup1\n      returndatacopy\n      revert(0x00, returndatasize)\n    tag_74:\n      pop\n      pop\n      pop\n      pop\n      mload(0x40)\n      returndatasize\n      not(0x1f)\n      0x1f\n      dup3\n      add\n      and\n      dup3\n      add\n      dup1\n      0x40\n      mstore\n      pop\n      dup2\n      add\n      swap1\n      tag_75\n      swap2\n      swap1\n      tag_76\n      jump\t// in\n    tag_75:\n        /* \"CrossSourceMinter.sol\":2604:2666  messageId = router.ccipSend(destinationChainSelector, message) */\n      swap1\n      pop\n        /* \"CrossSourceMinter.sol\":2681:2703  MessageSent(messageId) */\n      0x54791b38f3859327992a1ca0590ad3c0f08feba98d1a4f56ab0dca74d203392a\n        /* \"CrossSourceMinter.sol\":2693:2702  messageId */\n      dup2\n        /* \"CrossSourceMinter.sol\":2681:2703  MessageSent(messageId) */\n      mload(0x40)\n      tag_77\n      swap2\n      swap1\n      tag_78\n      jump\t// in\n    tag_77:\n      mload(0x40)\n      dup1\n      swap2\n      sub\n      swap1\n      log1\n        /* \"CrossSourceMinter.sol\":1731:2710  {... */\n      pop\n      pop\n      pop\n        /* \"CrossSourceMinter.sol\":1697:2710  function mintOnSepolia() external {... */\n      jump\t// out\n        /* \"CrossSourceMinter.sol\":2799:2920  function linkBalance (address account) public view returns (uint256) {... */\n    tag_32:\n        /* \"CrossSourceMinter.sol\":2859:2866  uint256 */\n      0x00\n        /* \"CrossSourceMinter.sol\":2885:2894  linkToken */\n      0x01\n      0x00\n      swap1\n      sload\n      swap1\n      0x0100\n      exp\n      swap1\n      div\n      0xffffffffffffffffffffffffffffffffffffffff\n      and\n        /* \"CrossSourceMinter.sol\":2885:2904  linkToken.balanceOf */\n      0xffffffffffffffffffffffffffffffffffffffff\n      and\n      0x70a08231\n        /* \"CrossSourceMinter.sol\":2905:2912  account */\n      dup4\n        /* \"CrossSourceMinter.sol\":2885:2913  linkToken.balanceOf(account) */\n      mload(0x40)\n      dup3\n      0xffffffff\n      and\n      0xe0\n      shl\n      dup2\n      mstore\n      0x04\n      add\n      tag_80\n      swap2\n      swap1\n      tag_15\n      jump\t// in\n    tag_80:\n      0x20\n      mload(0x40)\n      dup1\n      dup4\n      sub\n      dup2\n      dup7\n      gas\n      staticcall\n      iszero\n      dup1\n      iszero\n      tag_82\n      jumpi\n      returndatasize\n      0x00\n      dup1\n      returndatacopy\n      revert(0x00, returndatasize)\n    tag_82:\n      pop\n      pop\n      pop\n      pop\n      mload(0x40)\n      returndatasize\n      not(0x1f)\n      0x1f\n      dup3\n      add\n      and\n      dup3\n      add\n      dup1\n      0x40\n      mstore\n      pop\n      dup2\n      add\n      swap1\n      tag_83\n      swap2\n      swap1\n      tag_60\n      jump\t// in\n    tag_83:\n        /* \"CrossSourceMinter.sol\":2878:2913  return linkToken.balanceOf(account) */\n      swap1\n      pop\n        /* \"CrossSourceMinter.sol\":2799:2920  function linkBalance (address account) public view returns (uint256) {... */\n      swap2\n      swap1\n      pop\n      jump\t// out\n        /* \"CrossSourceMinter.sol\":2926:3170  function withdrawLINK(... */\n    tag_37:\n        /* \"CrossSourceMinter.sol\":2769:2774  owner */\n      0x02\n      0x00\n      swap1\n      sload\n      swap1\n      0x0100\n      exp\n      swap1\n      div\n      0xffffffffffffffffffffffffffffffffffffffff\n      and\n        /* \"CrossSourceMinter.sol\":2755:2774  msg.sender == owner */\n      0xffffffffffffffffffffffffffffffffffffffff\n      and\n        /* \"CrossSourceMinter.sol\":2755:2765  msg.sender */\n      caller\n        /* \"CrossSourceMinter.sol\":2755:2774  msg.sender == owner */\n      0xffffffffffffffffffffffffffffffffffffffff\n      and\n      eq\n        /* \"CrossSourceMinter.sol\":2747:2775  require(msg.sender == owner) */\n      tag_85\n      jumpi\n      0x00\n      dup1\n      revert\n    tag_85:\n        /* \"CrossSourceMinter.sol\":3010:3024  uint256 amount */\n      0x00\n        /* \"CrossSourceMinter.sol\":3027:3036  linkToken */\n      0x01\n      0x00\n      swap1\n      sload\n      swap1\n      0x0100\n      exp\n      swap1\n      div\n      0xffffffffffffffffffffffffffffffffffffffff\n      and\n        /* \"CrossSourceMinter.sol\":3027:3046  linkToken.balanceOf */\n      0xffffffffffffffffffffffffffffffffffffffff\n      and\n      0x70a08231\n        /* \"CrossSourceMinter.sol\":3055:3059  this */\n      address\n        /* \"CrossSourceMinter.sol\":3027:3061  linkToken.balanceOf(address(this)) */\n      mload(0x40)\n      dup3\n      0xffffffff\n      and\n      0xe0\n      shl\n      dup2\n      mstore\n      0x04\n      add\n      tag_87\n      swap2\n      swap1\n      tag_15\n      jump\t// in\n    tag_87:\n      0x20\n      mload(0x40)\n      dup1\n      dup4\n      sub\n      dup2\n      dup7\n      gas\n      staticcall\n      iszero\n      dup1\n      iszero\n      tag_89\n      jumpi\n      returndatasize\n      0x00\n      dup1\n      returndatacopy\n      revert(0x00, returndatasize)\n    tag_89:\n      pop\n      pop\n      pop\n      pop\n      mload(0x40)\n      returndatasize\n      not(0x1f)\n      0x1f\n      dup3\n      add\n      and\n      dup3\n      add\n      dup1\n      0x40\n      mstore\n      pop\n      dup2\n      add\n      swap1\n      tag_90\n      swap2\n      swap1\n      tag_60\n      jump\t// in\n    tag_90:\n        /* \"CrossSourceMinter.sol\":3010:3061  uint256 amount = linkToken.balanceOf(address(this)) */\n      swap1\n      pop\n        /* \"CrossSourceMinter.sol\":3085:3086  0 */\n      0x00\n        /* \"CrossSourceMinter.sol\":3075:3081  amount */\n      dup2\n        /* \"CrossSourceMinter.sol\":3075:3086  amount == 0 */\n      sub\n        /* \"CrossSourceMinter.sol\":3071:3114  if (amount == 0) revert NothingToWithdraw() */\n      tag_91\n      jumpi\n        /* \"CrossSourceMinter.sol\":3095:3114  NothingToWithdraw() */\n      mload(0x40)\n      0xd0d04f6000000000000000000000000000000000000000000000000000000000\n      dup2\n      mstore\n      0x04\n      add\n      mload(0x40)\n      dup1\n      swap2\n      sub\n      swap1\n      revert\n        /* \"CrossSourceMinter.sol\":3071:3114  if (amount == 0) revert NothingToWithdraw() */\n    tag_91:\n        /* \"CrossSourceMinter.sol\":3124:3133  linkToken */\n      0x01\n      0x00\n      swap1\n      sload\n      swap1\n      0x0100\n      exp\n      swap1\n      div\n      0xffffffffffffffffffffffffffffffffffffffff\n      and\n        /* \"CrossSourceMinter.sol\":3124:3142  linkToken.transfer */\n      0xffffffffffffffffffffffffffffffffffffffff\n      and\n      0xa9059cbb\n        /* \"CrossSourceMinter.sol\":3143:3154  beneficiary */\n      dup4\n        /* \"CrossSourceMinter.sol\":3156:3162  amount */\n      dup4\n        /* \"CrossSourceMinter.sol\":3124:3163  linkToken.transfer(beneficiary, amount) */\n      mload(0x40)\n      dup4\n      0xffffffff\n      and\n      0xe0\n      shl\n      dup2\n      mstore\n      0x04\n      add\n      tag_92\n      swap3\n      swap2\n      swap1\n      tag_93\n      jump\t// in\n    tag_92:\n      0x20\n      mload(0x40)\n      dup1\n      dup4\n      sub\n      dup2\n      0x00\n      dup8\n      gas\n      call\n      iszero\n      dup1\n      iszero\n      tag_95\n      jumpi\n      returndatasize\n      0x00\n      dup1\n      returndatacopy\n      revert(0x00, returndatasize)\n    tag_95:\n      pop\n      pop\n      pop\n      pop\n      mload(0x40)\n      returndatasize\n      not(0x1f)\n      0x1f\n      dup3\n      add\n      and\n      dup3\n      add\n      dup1\n      0x40\n      mstore\n      pop\n      dup2\n      add\n      swap1\n      tag_96\n      swap2\n      swap1\n      tag_97\n      jump\t// in\n    tag_96:\n      pop\n        /* \"CrossSourceMinter.sol\":3000:3170  {... */\n      pop\n        /* \"CrossSourceMinter.sol\":2926:3170  function withdrawLINK(... */\n      pop\n      jump\t// out\n        /* \"CrossSourceMinter.sol\":894:921  IRouterClient public router */\n    tag_39:\n      0x00\n      dup1\n      sload\n      swap1\n      0x0100\n      exp\n      swap1\n      div\n      0xffffffffffffffffffffffffffffffffffffffff\n      and\n      dup2\n      jump\t// out\n        /* \"@chainlink/contracts-ccip/src/v0.8/ccip/libraries/Client.sol\":1286:1456  function _argsToBytes(EVMExtraArgsV1 memory extraArgs) internal pure returns (bytes memory bts) {... */\n    tag_54:\n        /* \"@chainlink/contracts-ccip/src/v0.8/ccip/libraries/Client.sol\":1364:1380  bytes memory bts */\n      0x60\n        /* \"@chainlink/contracts-ccip/src/v0.8/ccip/libraries/Client.sol\":1218:1228  0x97a657c9 */\n      0x97a657c9\n        /* \"@chainlink/contracts-ccip/src/v0.8/ccip/libraries/Client.sol\":1418:1439  EVM_EXTRA_ARGS_V1_TAG */\n      0xe0\n      shl\n        /* \"@chainlink/contracts-ccip/src/v0.8/ccip/libraries/Client.sol\":1441:1450  extraArgs */\n      dup3\n        /* \"@chainlink/contracts-ccip/src/v0.8/ccip/libraries/Client.sol\":1395:1451  abi.encodeWithSelector(EVM_EXTRA_ARGS_V1_TAG, extraArgs) */\n      add(0x24, mload(0x40))\n      tag_99\n      swap2\n      swap1\n      tag_100\n      jump\t// in\n    tag_99:\n      mload(0x40)\n      0x20\n      dup2\n      dup4\n      sub\n      sub\n      dup2\n      mstore\n      swap1\n      0x40\n      mstore\n      swap1\n      not(0xffffffffffffffffffffffffffffffffffffffffffffffffffffffff)\n      and\n      0x20\n      dup3\n      add\n      dup1\n      mload\n      0xffffffffffffffffffffffffffffffffffffffffffffffffffffffff\n      dup4\n      dup2\n      dup4\n      and\n      or\n      dup4\n      mstore\n      pop\n      pop\n      pop\n      pop\n        /* \"@chainlink/contracts-ccip/src/v0.8/ccip/libraries/Client.sol\":1388:1451  return abi.encodeWithSelector(EVM_EXTRA_ARGS_V1_TAG, extraArgs) */\n      swap1\n      pop\n        /* \"@chainlink/contracts-ccip/src/v0.8/ccip/libraries/Client.sol\":1286:1456  function _argsToBytes(EVMExtraArgsV1 memory extraArgs) internal pure returns (bytes memory bts) {... */\n      swap2\n      swap1\n      pop\n      jump\t// out\n    tag_52:\n      mload(0x40)\n      dup1\n      0x40\n      add\n      0x40\n      mstore\n      dup1\n      and(0xffffffffffffffffffffffffffffffffffffffff, 0x00)\n      dup2\n      mstore\n      0x20\n      add\n      0x00\n      dup2\n      mstore\n      pop\n      swap1\n      jump\t// out\n        /* \"#utility.yul\":7:133   */\n    tag_101:\n        /* \"#utility.yul\":44:51   */\n      0x00\n        /* \"#utility.yul\":84:126   */\n      0xffffffffffffffffffffffffffffffffffffffff\n        /* \"#utility.yul\":77:82   */\n      dup3\n        /* \"#utility.yul\":73:127   */\n      and\n        /* \"#utility.yul\":62:127   */\n      swap1\n      pop\n        /* \"#utility.yul\":7:133   */\n      swap2\n      swap1\n      pop\n      jump\t// out\n        /* \"#utility.yul\":139:235   */\n    tag_102:\n        /* \"#utility.yul\":176:183   */\n      0x00\n        /* \"#utility.yul\":205:229   */\n      tag_152\n        /* \"#utility.yul\":223:228   */\n      dup3\n        /* \"#utility.yul\":205:229   */\n      tag_101\n      jump\t// in\n    tag_152:\n        /* \"#utility.yul\":194:229   */\n      swap1\n      pop\n        /* \"#utility.yul\":139:235   */\n      swap2\n      swap1\n      pop\n      jump\t// out\n        /* \"#utility.yul\":241:359   */\n    tag_103:\n        /* \"#utility.yul\":328:352   */\n      tag_154\n        /* \"#utility.yul\":346:351   */\n      dup2\n        /* \"#utility.yul\":328:352   */\n      tag_102\n      jump\t// in\n    tag_154:\n        /* \"#utility.yul\":323:326   */\n      dup3\n        /* \"#utility.yul\":316:353   */\n      mstore\n        /* \"#utility.yul\":241:359   */\n      pop\n      pop\n      jump\t// out\n        /* \"#utility.yul\":365:587   */\n    tag_15:\n        /* \"#utility.yul\":458:462   */\n      0x00\n        /* \"#utility.yul\":496:498   */\n      0x20\n        /* \"#utility.yul\":485:494   */\n      dup3\n        /* \"#utility.yul\":481:499   */\n      add\n        /* \"#utility.yul\":473:499   */\n      swap1\n      pop\n        /* \"#utility.yul\":509:580   */\n      tag_156\n        /* \"#utility.yul\":577:578   */\n      0x00\n        /* \"#utility.yul\":566:575   */\n      dup4\n        /* \"#utility.yul\":562:579   */\n      add\n        /* \"#utility.yul\":553:559   */\n      dup5\n        /* \"#utility.yul\":509:580   */\n      tag_103\n      jump\t// in\n    tag_156:\n        /* \"#utility.yul\":365:587   */\n      swap3\n      swap2\n      pop\n      pop\n      jump\t// out\n        /* \"#utility.yul\":593:694   */\n    tag_104:\n        /* \"#utility.yul\":629:636   */\n      0x00\n        /* \"#utility.yul\":669:687   */\n      0xffffffffffffffff\n        /* \"#utility.yul\":662:667   */\n      dup3\n        /* \"#utility.yul\":658:688   */\n      and\n        /* \"#utility.yul\":647:688   */\n      swap1\n      pop\n        /* \"#utility.yul\":593:694   */\n      swap2\n      swap1\n      pop\n      jump\t// out\n        /* \"#utility.yul\":700:815   */\n    tag_105:\n        /* \"#utility.yul\":785:808   */\n      tag_159\n        /* \"#utility.yul\":802:807   */\n      dup2\n        /* \"#utility.yul\":785:808   */\n      tag_104\n      jump\t// in\n    tag_159:\n        /* \"#utility.yul\":780:783   */\n      dup3\n        /* \"#utility.yul\":773:809   */\n      mstore\n        /* \"#utility.yul\":700:815   */\n      pop\n      pop\n      jump\t// out\n        /* \"#utility.yul\":821:1039   */\n    tag_19:\n        /* \"#utility.yul\":912:916   */\n      0x00\n        /* \"#utility.yul\":950:952   */\n      0x20\n        /* \"#utility.yul\":939:948   */\n      dup3\n        /* \"#utility.yul\":935:953   */\n      add\n        /* \"#utility.yul\":927:953   */\n      swap1\n      pop\n        /* \"#utility.yul\":963:1032   */\n      tag_161\n        /* \"#utility.yul\":1029:1030   */\n      0x00\n        /* \"#utility.yul\":1018:1027   */\n      dup4\n        /* \"#utility.yul\":1014:1031   */\n      add\n        /* \"#utility.yul\":1005:1011   */\n      dup5\n        /* \"#utility.yul\":963:1032   */\n      tag_105\n      jump\t// in\n    tag_161:\n        /* \"#utility.yul\":821:1039   */\n      swap3\n      swap2\n      pop\n      pop\n      jump\t// out\n        /* \"#utility.yul\":1045:1105   */\n    tag_106:\n        /* \"#utility.yul\":1073:1076   */\n      0x00\n        /* \"#utility.yul\":1094:1099   */\n      dup2\n        /* \"#utility.yul\":1087:1099   */\n      swap1\n      pop\n        /* \"#utility.yul\":1045:1105   */\n      swap2\n      swap1\n      pop\n      jump\t// out\n        /* \"#utility.yul\":1111:1253   */\n    tag_107:\n        /* \"#utility.yul\":1161:1170   */\n      0x00\n        /* \"#utility.yul\":1194:1247   */\n      tag_164\n        /* \"#utility.yul\":1212:1246   */\n      tag_165\n        /* \"#utility.yul\":1221:1245   */\n      tag_166\n        /* \"#utility.yul\":1239:1244   */\n      dup5\n        /* \"#utility.yul\":1221:1245   */\n      tag_101\n      jump\t// in\n    tag_166:\n        /* \"#utility.yul\":1212:1246   */\n      tag_106\n      jump\t// in\n    tag_165:\n        /* \"#utility.yul\":1194:1247   */\n      tag_101\n      jump\t// in\n    tag_164:\n        /* \"#utility.yul\":1181:1247   */\n      swap1\n      pop\n        /* \"#utility.yul\":1111:1253   */\n      swap2\n      swap1\n      pop\n      jump\t// out\n        /* \"#utility.yul\":1259:1385   */\n    tag_108:\n        /* \"#utility.yul\":1309:1318   */\n      0x00\n        /* \"#utility.yul\":1342:1379   */\n      tag_168\n        /* \"#utility.yul\":1373:1378   */\n      dup3\n        /* \"#utility.yul\":1342:1379   */\n      tag_107\n      jump\t// in\n    tag_168:\n        /* \"#utility.yul\":1329:1379   */\n      swap1\n      pop\n        /* \"#utility.yul\":1259:1385   */\n      swap2\n      swap1\n      pop\n      jump\t// out\n        /* \"#utility.yul\":1391:1543   */\n    tag_109:\n        /* \"#utility.yul\":1467:1476   */\n      0x00\n        /* \"#utility.yul\":1500:1537   */\n      tag_170\n        /* \"#utility.yul\":1531:1536   */\n      dup3\n        /* \"#utility.yul\":1500:1537   */\n      tag_108\n      jump\t// in\n    tag_170:\n        /* \"#utility.yul\":1487:1537   */\n      swap1\n      pop\n        /* \"#utility.yul\":1391:1543   */\n      swap2\n      swap1\n      pop\n      jump\t// out\n        /* \"#utility.yul\":1549:1732   */\n    tag_110:\n        /* \"#utility.yul\":1662:1725   */\n      tag_172\n        /* \"#utility.yul\":1719:1724   */\n      dup2\n        /* \"#utility.yul\":1662:1725   */\n      tag_109\n      jump\t// in\n    tag_172:\n        /* \"#utility.yul\":1657:1660   */\n      dup3\n        /* \"#utility.yul\":1650:1726   */\n      mstore\n        /* \"#utility.yul\":1549:1732   */\n      pop\n      pop\n      jump\t// out\n        /* \"#utility.yul\":1738:2012   */\n    tag_23:\n        /* \"#utility.yul\":1857:1861   */\n      0x00\n        /* \"#utility.yul\":1895:1897   */\n      0x20\n        /* \"#utility.yul\":1884:1893   */\n      dup3\n        /* \"#utility.yul\":1880:1898   */\n      add\n        /* \"#utility.yul\":1872:1898   */\n      swap1\n      pop\n        /* \"#utility.yul\":1908:2005   */\n      tag_174\n        /* \"#utility.yul\":2002:2003   */\n      0x00\n        /* \"#utility.yul\":1991:2000   */\n      dup4\n        /* \"#utility.yul\":1987:2004   */\n      add\n        /* \"#utility.yul\":1978:1984   */\n      dup5\n        /* \"#utility.yul\":1908:2005   */\n      tag_110\n      jump\t// in\n    tag_174:\n        /* \"#utility.yul\":1738:2012   */\n      swap3\n      swap2\n      pop\n      pop\n      jump\t// out\n        /* \"#utility.yul\":2099:2216   */\n    tag_112:\n        /* \"#utility.yul\":2208:2209   */\n      0x00\n        /* \"#utility.yul\":2205:2206   */\n      dup1\n        /* \"#utility.yul\":2198:2210   */\n      revert\n        /* \"#utility.yul\":2345:2467   */\n    tag_114:\n        /* \"#utility.yul\":2418:2442   */\n      tag_179\n        /* \"#utility.yul\":2436:2441   */\n      dup2\n        /* \"#utility.yul\":2418:2442   */\n      tag_102\n      jump\t// in\n    tag_179:\n        /* \"#utility.yul\":2411:2416   */\n      dup2\n        /* \"#utility.yul\":2408:2443   */\n      eq\n        /* \"#utility.yul\":2398:2461   */\n      tag_180\n      jumpi\n        /* \"#utility.yul\":2457:2458   */\n      0x00\n        /* \"#utility.yul\":2454:2455   */\n      dup1\n        /* \"#utility.yul\":2447:2459   */\n      revert\n        /* \"#utility.yul\":2398:2461   */\n    tag_180:\n        /* \"#utility.yul\":2345:2467   */\n      pop\n      jump\t// out\n        /* \"#utility.yul\":2473:2612   */\n    tag_115:\n        /* \"#utility.yul\":2519:2524   */\n      0x00\n        /* \"#utility.yul\":2557:2563   */\n      dup2\n        /* \"#utility.yul\":2544:2564   */\n      calldataload\n        /* \"#utility.yul\":2535:2564   */\n      swap1\n      pop\n        /* \"#utility.yul\":2573:2606   */\n      tag_182\n        /* \"#utility.yul\":2600:2605   */\n      dup2\n        /* \"#utility.yul\":2573:2606   */\n      tag_114\n      jump\t// in\n    tag_182:\n        /* \"#utility.yul\":2473:2612   */\n      swap3\n      swap2\n      pop\n      pop\n      jump\t// out\n        /* \"#utility.yul\":2618:2947   */\n    tag_31:\n        /* \"#utility.yul\":2677:2683   */\n      0x00\n        /* \"#utility.yul\":2726:2728   */\n      0x20\n        /* \"#utility.yul\":2714:2723   */\n      dup3\n        /* \"#utility.yul\":2705:2712   */\n      dup5\n        /* \"#utility.yul\":2701:2724   */\n      sub\n        /* \"#utility.yul\":2697:2729   */\n      slt\n        /* \"#utility.yul\":2694:2813   */\n      iszero\n      tag_184\n      jumpi\n        /* \"#utility.yul\":2732:2811   */\n      tag_185\n      tag_112\n      jump\t// in\n    tag_185:\n        /* \"#utility.yul\":2694:2813   */\n    tag_184:\n        /* \"#utility.yul\":2852:2853   */\n      0x00\n        /* \"#utility.yul\":2877:2930   */\n      tag_186\n        /* \"#utility.yul\":2922:2929   */\n      dup5\n        /* \"#utility.yul\":2913:2919   */\n      dup3\n        /* \"#utility.yul\":2902:2911   */\n      dup6\n        /* \"#utility.yul\":2898:2920   */\n      add\n        /* \"#utility.yul\":2877:2930   */\n      tag_115\n      jump\t// in\n    tag_186:\n        /* \"#utility.yul\":2867:2930   */\n      swap2\n      pop\n        /* \"#utility.yul\":2823:2940   */\n      pop\n        /* \"#utility.yul\":2618:2947   */\n      swap3\n      swap2\n      pop\n      pop\n      jump\t// out\n        /* \"#utility.yul\":2953:3030   */\n    tag_116:\n        /* \"#utility.yul\":2990:2997   */\n      0x00\n        /* \"#utility.yul\":3019:3024   */\n      dup2\n        /* \"#utility.yul\":3008:3024   */\n      swap1\n      pop\n        /* \"#utility.yul\":2953:3030   */\n      swap2\n      swap1\n      pop\n      jump\t// out\n        /* \"#utility.yul\":3036:3154   */\n    tag_117:\n        /* \"#utility.yul\":3123:3147   */\n      tag_189\n        /* \"#utility.yul\":3141:3146   */\n      dup2\n        /* \"#utility.yul\":3123:3147   */\n      tag_116\n      jump\t// in\n    tag_189:\n        /* \"#utility.yul\":3118:3121   */\n      dup3\n        /* \"#utility.yul\":3111:3148   */\n      mstore\n        /* \"#utility.yul\":3036:3154   */\n      pop\n      pop\n      jump\t// out\n        /* \"#utility.yul\":3160:3382   */\n    tag_34:\n        /* \"#utility.yul\":3253:3257   */\n      0x00\n        /* \"#utility.yul\":3291:3293   */\n      0x20\n        /* \"#utility.yul\":3280:3289   */\n      dup3\n        /* \"#utility.yul\":3276:3294   */\n      add\n        /* \"#utility.yul\":3268:3294   */\n      swap1\n      pop\n        /* \"#utility.yul\":3304:3375   */\n      tag_191\n        /* \"#utility.yul\":3372:3373   */\n      0x00\n        /* \"#utility.yul\":3361:3370   */\n      dup4\n        /* \"#utility.yul\":3357:3374   */\n      add\n        /* \"#utility.yul\":3348:3354   */\n      dup5\n        /* \"#utility.yul\":3304:3375   */\n      tag_117\n      jump\t// in\n    tag_191:\n        /* \"#utility.yul\":3160:3382   */\n      swap3\n      swap2\n      pop\n      pop\n      jump\t// out\n        /* \"#utility.yul\":3388:3534   */\n    tag_118:\n        /* \"#utility.yul\":3458:3467   */\n      0x00\n        /* \"#utility.yul\":3491:3528   */\n      tag_193\n        /* \"#utility.yul\":3522:3527   */\n      dup3\n        /* \"#utility.yul\":3491:3528   */\n      tag_108\n      jump\t// in\n    tag_193:\n        /* \"#utility.yul\":3478:3528   */\n      swap1\n      pop\n        /* \"#utility.yul\":3388:3534   */\n      swap2\n      swap1\n      pop\n      jump\t// out\n        /* \"#utility.yul\":3540:3711   */\n    tag_119:\n        /* \"#utility.yul\":3647:3704   */\n      tag_195\n        /* \"#utility.yul\":3698:3703   */\n      dup2\n        /* \"#utility.yul\":3647:3704   */\n      tag_118\n      jump\t// in\n    tag_195:\n        /* \"#utility.yul\":3642:3645   */\n      dup3\n        /* \"#utility.yul\":3635:3705   */\n      mstore\n        /* \"#utility.yul\":3540:3711   */\n      pop\n      pop\n      jump\t// out\n        /* \"#utility.yul\":3717:3979   */\n    tag_41:\n        /* \"#utility.yul\":3830:3834   */\n      0x00\n        /* \"#utility.yul\":3868:3870   */\n      0x20\n        /* \"#utility.yul\":3857:3866   */\n      dup3\n        /* \"#utility.yul\":3853:3871   */\n      add\n        /* \"#utility.yul\":3845:3871   */\n      swap1\n      pop\n        /* \"#utility.yul\":3881:3972   */\n      tag_197\n        /* \"#utility.yul\":3969:3970   */\n      0x00\n        /* \"#utility.yul\":3958:3967   */\n      dup4\n        /* \"#utility.yul\":3954:3971   */\n      add\n        /* \"#utility.yul\":3945:3951   */\n      dup5\n        /* \"#utility.yul\":3881:3972   */\n      tag_119\n      jump\t// in\n    tag_197:\n        /* \"#utility.yul\":3717:3979   */\n      swap3\n      swap2\n      pop\n      pop\n      jump\t// out\n        /* \"#utility.yul\":3985:4070   */\n    tag_120:\n        /* \"#utility.yul\":4030:4037   */\n      0x00\n        /* \"#utility.yul\":4059:4064   */\n      dup2\n        /* \"#utility.yul\":4048:4064   */\n      swap1\n      pop\n        /* \"#utility.yul\":3985:4070   */\n      swap2\n      swap1\n      pop\n      jump\t// out\n        /* \"#utility.yul\":4076:4162   */\n    tag_121:\n        /* \"#utility.yul\":4111:4118   */\n      0x00\n        /* \"#utility.yul\":4151:4155   */\n      0xff\n        /* \"#utility.yul\":4144:4149   */\n      dup3\n        /* \"#utility.yul\":4140:4156   */\n      and\n        /* \"#utility.yul\":4129:4156   */\n      swap1\n      pop\n        /* \"#utility.yul\":4076:4162   */\n      swap2\n      swap1\n      pop\n      jump\t// out\n        /* \"#utility.yul\":4168:4322   */\n    tag_122:\n        /* \"#utility.yul\":4224:4233   */\n      0x00\n        /* \"#utility.yul\":4257:4316   */\n      tag_201\n        /* \"#utility.yul\":4273:4315   */\n      tag_202\n        /* \"#utility.yul\":4282:4314   */\n      tag_203\n        /* \"#utility.yul\":4308:4313   */\n      dup5\n        /* \"#utility.yul\":4282:4314   */\n      tag_120\n      jump\t// in\n    tag_203:\n        /* \"#utility.yul\":4273:4315   */\n      tag_106\n      jump\t// in\n    tag_202:\n        /* \"#utility.yul\":4257:4316   */\n      tag_121\n      jump\t// in\n    tag_201:\n        /* \"#utility.yul\":4244:4316   */\n      swap1\n      pop\n        /* \"#utility.yul\":4168:4322   */\n      swap2\n      swap1\n      pop\n      jump\t// out\n        /* \"#utility.yul\":4328:4471   */\n    tag_123:\n        /* \"#utility.yul\":4421:4464   */\n      tag_205\n        /* \"#utility.yul\":4458:4463   */\n      dup2\n        /* \"#utility.yul\":4421:4464   */\n      tag_122\n      jump\t// in\n    tag_205:\n        /* \"#utility.yul\":4416:4419   */\n      dup3\n        /* \"#utility.yul\":4409:4465   */\n      mstore\n        /* \"#utility.yul\":4328:4471   */\n      pop\n      pop\n      jump\t// out\n        /* \"#utility.yul\":4477:4821   */\n    tag_45:\n        /* \"#utility.yul\":4604:4608   */\n      0x00\n        /* \"#utility.yul\":4642:4644   */\n      0x40\n        /* \"#utility.yul\":4631:4640   */\n      dup3\n        /* \"#utility.yul\":4627:4645   */\n      add\n        /* \"#utility.yul\":4619:4645   */\n      swap1\n      pop\n        /* \"#utility.yul\":4655:4726   */\n      tag_207\n        /* \"#utility.yul\":4723:4724   */\n      0x00\n        /* \"#utility.yul\":4712:4721   */\n      dup4\n        /* \"#utility.yul\":4708:4725   */\n      add\n        /* \"#utility.yul\":4699:4705   */\n      dup6\n        /* \"#utility.yul\":4655:4726   */\n      tag_103\n      jump\t// in\n    tag_207:\n        /* \"#utility.yul\":4736:4814   */\n      tag_208\n        /* \"#utility.yul\":4810:4812   */\n      0x20\n        /* \"#utility.yul\":4799:4808   */\n      dup4\n        /* \"#utility.yul\":4795:4813   */\n      add\n        /* \"#utility.yul\":4786:4792   */\n      dup5\n        /* \"#utility.yul\":4736:4814   */\n      tag_123\n      jump\t// in\n    tag_208:\n        /* \"#utility.yul\":4477:4821   */\n      swap4\n      swap3\n      pop\n      pop\n      pop\n      jump\t// out\n        /* \"#utility.yul\":4827:5007   */\n    tag_48:\n        /* \"#utility.yul\":4875:4952   */\n      0x4e487b7100000000000000000000000000000000000000000000000000000000\n        /* \"#utility.yul\":4872:4873   */\n      0x00\n        /* \"#utility.yul\":4865:4953   */\n      mstore\n        /* \"#utility.yul\":4972:4976   */\n      0x41\n        /* \"#utility.yul\":4969:4970   */\n      0x04\n        /* \"#utility.yul\":4962:4977   */\n      mstore\n        /* \"#utility.yul\":4996:5000   */\n      0x24\n        /* \"#utility.yul\":4993:4994   */\n      0x00\n        /* \"#utility.yul\":4986:5001   */\n      revert\n        /* \"#utility.yul\":5013:5111   */\n    tag_124:\n        /* \"#utility.yul\":5064:5070   */\n      0x00\n        /* \"#utility.yul\":5098:5103   */\n      dup2\n        /* \"#utility.yul\":5092:5104   */\n      mload\n        /* \"#utility.yul\":5082:5104   */\n      swap1\n      pop\n        /* \"#utility.yul\":5013:5111   */\n      swap2\n      swap1\n      pop\n      jump\t// out\n        /* \"#utility.yul\":5117:5275   */\n    tag_125:\n        /* \"#utility.yul\":5190:5201   */\n      0x00\n        /* \"#utility.yul\":5224:5230   */\n      dup3\n        /* \"#utility.yul\":5219:5222   */\n      dup3\n        /* \"#utility.yul\":5212:5231   */\n      mstore\n        /* \"#utility.yul\":5264:5268   */\n      0x20\n        /* \"#utility.yul\":5259:5262   */\n      dup3\n        /* \"#utility.yul\":5255:5269   */\n      add\n        /* \"#utility.yul\":5240:5269   */\n      swap1\n      pop\n        /* \"#utility.yul\":5117:5275   */\n      swap3\n      swap2\n      pop\n      pop\n      jump\t// out\n        /* \"#utility.yul\":5281:5527   */\n    tag_126:\n        /* \"#utility.yul\":5362:5363   */\n      0x00\n        /* \"#utility.yul\":5372:5485   */\n    tag_213:\n        /* \"#utility.yul\":5386:5392   */\n      dup4\n        /* \"#utility.yul\":5383:5384   */\n      dup2\n        /* \"#utility.yul\":5380:5393   */\n      lt\n        /* \"#utility.yul\":5372:5485   */\n      iszero\n      tag_215\n      jumpi\n        /* \"#utility.yul\":5471:5472   */\n      dup1\n        /* \"#utility.yul\":5466:5469   */\n      dup3\n        /* \"#utility.yul\":5462:5473   */\n      add\n        /* \"#utility.yul\":5456:5474   */\n      mload\n        /* \"#utility.yul\":5452:5453   */\n      dup2\n        /* \"#utility.yul\":5447:5450   */\n      dup5\n        /* \"#utility.yul\":5443:5454   */\n      add\n        /* \"#utility.yul\":5436:5475   */\n      mstore\n        /* \"#utility.yul\":5408:5410   */\n      0x20\n        /* \"#utility.yul\":5405:5406   */\n      dup2\n        /* \"#utility.yul\":5401:5411   */\n      add\n        /* \"#utility.yul\":5396:5411   */\n      swap1\n      pop\n        /* \"#utility.yul\":5372:5485   */\n      jump(tag_213)\n    tag_215:\n        /* \"#utility.yul\":5519:5520   */\n      0x00\n        /* \"#utility.yul\":5510:5516   */\n      dup5\n        /* \"#utility.yul\":5505:5508   */\n      dup5\n        /* \"#utility.yul\":5501:5517   */\n      add\n        /* \"#utility.yul\":5494:5521   */\n      mstore\n        /* \"#utility.yul\":5343:5527   */\n      pop\n        /* \"#utility.yul\":5281:5527   */\n      pop\n      pop\n      pop\n      jump\t// out\n        /* \"#utility.yul\":5533:5635   */\n    tag_127:\n        /* \"#utility.yul\":5574:5580   */\n      0x00\n        /* \"#utility.yul\":5625:5627   */\n      0x1f\n        /* \"#utility.yul\":5621:5628   */\n      not\n        /* \"#utility.yul\":5616:5618   */\n      0x1f\n        /* \"#utility.yul\":5609:5614   */\n      dup4\n        /* \"#utility.yul\":5605:5619   */\n      add\n        /* \"#utility.yul\":5601:5629   */\n      and\n        /* \"#utility.yul\":5591:5629   */\n      swap1\n      pop\n        /* \"#utility.yul\":5533:5635   */\n      swap2\n      swap1\n      pop\n      jump\t// out\n        /* \"#utility.yul\":5641:5994   */\n    tag_128:\n        /* \"#utility.yul\":5717:5720   */\n      0x00\n        /* \"#utility.yul\":5745:5783   */\n      tag_218\n        /* \"#utility.yul\":5777:5782   */\n      dup3\n        /* \"#utility.yul\":5745:5783   */\n      tag_124\n      jump\t// in\n    tag_218:\n        /* \"#utility.yul\":5799:5859   */\n      tag_219\n        /* \"#utility.yul\":5852:5858   */\n      dup2\n        /* \"#utility.yul\":5847:5850   */\n      dup6\n        /* \"#utility.yul\":5799:5859   */\n      tag_125\n      jump\t// in\n    tag_219:\n        /* \"#utility.yul\":5792:5859   */\n      swap4\n      pop\n        /* \"#utility.yul\":5868:5933   */\n      tag_220\n        /* \"#utility.yul\":5926:5932   */\n      dup2\n        /* \"#utility.yul\":5921:5924   */\n      dup6\n        /* \"#utility.yul\":5914:5918   */\n      0x20\n        /* \"#utility.yul\":5907:5912   */\n      dup7\n        /* \"#utility.yul\":5903:5919   */\n      add\n        /* \"#utility.yul\":5868:5933   */\n      tag_126\n      jump\t// in\n    tag_220:\n        /* \"#utility.yul\":5958:5987   */\n      tag_221\n        /* \"#utility.yul\":5980:5986   */\n      dup2\n        /* \"#utility.yul\":5958:5987   */\n      tag_127\n      jump\t// in\n    tag_221:\n        /* \"#utility.yul\":5953:5956   */\n      dup5\n        /* \"#utility.yul\":5949:5988   */\n      add\n        /* \"#utility.yul\":5942:5988   */\n      swap2\n      pop\n        /* \"#utility.yul\":5721:5994   */\n      pop\n        /* \"#utility.yul\":5641:5994   */\n      swap3\n      swap2\n      pop\n      pop\n      jump\t// out\n        /* \"#utility.yul\":6000:6144   */\n    tag_129:\n        /* \"#utility.yul\":6097:6103   */\n      0x00\n        /* \"#utility.yul\":6131:6136   */\n      dup2\n        /* \"#utility.yul\":6125:6137   */\n      mload\n        /* \"#utility.yul\":6115:6137   */\n      swap1\n      pop\n        /* \"#utility.yul\":6000:6144   */\n      swap2\n      swap1\n      pop\n      jump\t// out\n        /* \"#utility.yul\":6150:6354   */\n    tag_130:\n        /* \"#utility.yul\":6269:6280   */\n      0x00\n        /* \"#utility.yul\":6303:6309   */\n      dup3\n        /* \"#utility.yul\":6298:6301   */\n      dup3\n        /* \"#utility.yul\":6291:6310   */\n      mstore\n        /* \"#utility.yul\":6343:6347   */\n      0x20\n        /* \"#utility.yul\":6338:6341   */\n      dup3\n        /* \"#utility.yul\":6334:6348   */\n      add\n        /* \"#utility.yul\":6319:6348   */\n      swap1\n      pop\n        /* \"#utility.yul\":6150:6354   */\n      swap3\n      swap2\n      pop\n      pop\n      jump\t// out\n        /* \"#utility.yul\":6360:6522   */\n    tag_131:\n        /* \"#utility.yul\":6457:6461   */\n      0x00\n        /* \"#utility.yul\":6480:6483   */\n      dup2\n        /* \"#utility.yul\":6472:6483   */\n      swap1\n      pop\n        /* \"#utility.yul\":6510:6514   */\n      0x20\n        /* \"#utility.yul\":6505:6508   */\n      dup3\n        /* \"#utility.yul\":6501:6515   */\n      add\n        /* \"#utility.yul\":6493:6515   */\n      swap1\n      pop\n        /* \"#utility.yul\":6360:6522   */\n      swap2\n      swap1\n      pop\n      jump\t// out\n        /* \"#utility.yul\":6528:6636   */\n    tag_132:\n        /* \"#utility.yul\":6605:6629   */\n      tag_226\n        /* \"#utility.yul\":6623:6628   */\n      dup2\n        /* \"#utility.yul\":6605:6629   */\n      tag_102\n      jump\t// in\n    tag_226:\n        /* \"#utility.yul\":6600:6603   */\n      dup3\n        /* \"#utility.yul\":6593:6630   */\n      mstore\n        /* \"#utility.yul\":6528:6636   */\n      pop\n      pop\n      jump\t// out\n        /* \"#utility.yul\":6642:6750   */\n    tag_133:\n        /* \"#utility.yul\":6719:6743   */\n      tag_228\n        /* \"#utility.yul\":6737:6742   */\n      dup2\n        /* \"#utility.yul\":6719:6743   */\n      tag_116\n      jump\t// in\n    tag_228:\n        /* \"#utility.yul\":6714:6717   */\n      dup3\n        /* \"#utility.yul\":6707:6744   */\n      mstore\n        /* \"#utility.yul\":6642:6750   */\n      pop\n      pop\n      jump\t// out\n        /* \"#utility.yul\":6824:7334   */\n    tag_134:\n        /* \"#utility.yul\":6971:6975   */\n      0x40\n        /* \"#utility.yul\":6966:6969   */\n      dup3\n        /* \"#utility.yul\":6962:6976   */\n      add\n        /* \"#utility.yul\":7059:7063   */\n      0x00\n        /* \"#utility.yul\":7052:7057   */\n      dup3\n        /* \"#utility.yul\":7048:7064   */\n      add\n        /* \"#utility.yul\":7042:7065   */\n      mload\n        /* \"#utility.yul\":7078:7141   */\n      tag_230\n        /* \"#utility.yul\":7135:7139   */\n      0x00\n        /* \"#utility.yul\":7130:7133   */\n      dup6\n        /* \"#utility.yul\":7126:7140   */\n      add\n        /* \"#utility.yul\":7112:7124   */\n      dup3\n        /* \"#utility.yul\":7078:7141   */\n      tag_132\n      jump\t// in\n    tag_230:\n        /* \"#utility.yul\":6986:7151   */\n      pop\n        /* \"#utility.yul\":7235:7239   */\n      0x20\n        /* \"#utility.yul\":7228:7233   */\n      dup3\n        /* \"#utility.yul\":7224:7240   */\n      add\n        /* \"#utility.yul\":7218:7241   */\n      mload\n        /* \"#utility.yul\":7254:7317   */\n      tag_231\n        /* \"#utility.yul\":7311:7315   */\n      0x20\n        /* \"#utility.yul\":7306:7309   */\n      dup6\n        /* \"#utility.yul\":7302:7316   */\n      add\n        /* \"#utility.yul\":7288:7300   */\n      dup3\n        /* \"#utility.yul\":7254:7317   */\n      tag_133\n      jump\t// in\n    tag_231:\n        /* \"#utility.yul\":7161:7327   */\n      pop\n        /* \"#utility.yul\":6940:7334   */\n      pop\n        /* \"#utility.yul\":6824:7334   */\n      pop\n      pop\n      jump\t// out\n        /* \"#utility.yul\":7340:7639   */\n    tag_135:\n        /* \"#utility.yul\":7469:7479   */\n      0x00\n        /* \"#utility.yul\":7490:7596   */\n      tag_233\n        /* \"#utility.yul\":7592:7595   */\n      dup4\n        /* \"#utility.yul\":7584:7590   */\n      dup4\n        /* \"#utility.yul\":7490:7596   */\n      tag_134\n      jump\t// in\n    tag_233:\n        /* \"#utility.yul\":7628:7632   */\n      0x40\n        /* \"#utility.yul\":7623:7626   */\n      dup4\n        /* \"#utility.yul\":7619:7633   */\n      add\n        /* \"#utility.yul\":7605:7633   */\n      swap1\n      pop\n        /* \"#utility.yul\":7340:7639   */\n      swap3\n      swap2\n      pop\n      pop\n      jump\t// out\n        /* \"#utility.yul\":7645:7788   */\n    tag_136:\n        /* \"#utility.yul\":7745:7749   */\n      0x00\n        /* \"#utility.yul\":7777:7781   */\n      0x20\n        /* \"#utility.yul\":7772:7775   */\n      dup3\n        /* \"#utility.yul\":7768:7782   */\n      add\n        /* \"#utility.yul\":7760:7782   */\n      swap1\n      pop\n        /* \"#utility.yul\":7645:7788   */\n      swap2\n      swap1\n      pop\n      jump\t// out\n        /* \"#utility.yul\":7866:8818   */\n    tag_137:\n        /* \"#utility.yul\":8035:8038   */\n      0x00\n        /* \"#utility.yul\":8064:8148   */\n      tag_236\n        /* \"#utility.yul\":8142:8147   */\n      dup3\n        /* \"#utility.yul\":8064:8148   */\n      tag_129\n      jump\t// in\n    tag_236:\n        /* \"#utility.yul\":8164:8270   */\n      tag_237\n        /* \"#utility.yul\":8263:8269   */\n      dup2\n        /* \"#utility.yul\":8258:8261   */\n      dup6\n        /* \"#utility.yul\":8164:8270   */\n      tag_130\n      jump\t// in\n    tag_237:\n        /* \"#utility.yul\":8157:8270   */\n      swap4\n      pop\n        /* \"#utility.yul\":8294:8380   */\n      tag_238\n        /* \"#utility.yul\":8374:8379   */\n      dup4\n        /* \"#utility.yul\":8294:8380   */\n      tag_131\n      jump\t// in\n    tag_238:\n        /* \"#utility.yul\":8403:8410   */\n      dup1\n        /* \"#utility.yul\":8434:8435   */\n      0x00\n        /* \"#utility.yul\":8419:8793   */\n    tag_239:\n        /* \"#utility.yul\":8444:8450   */\n      dup4\n        /* \"#utility.yul\":8441:8442   */\n      dup2\n        /* \"#utility.yul\":8438:8451   */\n      lt\n        /* \"#utility.yul\":8419:8793   */\n      iszero\n      tag_241\n      jumpi\n        /* \"#utility.yul\":8520:8526   */\n      dup2\n        /* \"#utility.yul\":8514:8527   */\n      mload\n        /* \"#utility.yul\":8547:8670   */\n      tag_242\n        /* \"#utility.yul\":8666:8669   */\n      dup9\n        /* \"#utility.yul\":8651:8664   */\n      dup3\n        /* \"#utility.yul\":8547:8670   */\n      tag_135\n      jump\t// in\n    tag_242:\n        /* \"#utility.yul\":8540:8670   */\n      swap8\n      pop\n        /* \"#utility.yul\":8693:8783   */\n      tag_243\n        /* \"#utility.yul\":8776:8782   */\n      dup4\n        /* \"#utility.yul\":8693:8783   */\n      tag_136\n      jump\t// in\n    tag_243:\n        /* \"#utility.yul\":8683:8783   */\n      swap3\n      pop\n        /* \"#utility.yul\":8479:8793   */\n      pop\n        /* \"#utility.yul\":8466:8467   */\n      0x01\n        /* \"#utility.yul\":8463:8464   */\n      dup2\n        /* \"#utility.yul\":8459:8468   */\n      add\n        /* \"#utility.yul\":8454:8468   */\n      swap1\n      pop\n        /* \"#utility.yul\":8419:8793   */\n      jump(tag_239)\n    tag_241:\n        /* \"#utility.yul\":8423:8437   */\n      pop\n        /* \"#utility.yul\":8809:8812   */\n      dup6\n        /* \"#utility.yul\":8802:8812   */\n      swap4\n      pop\n        /* \"#utility.yul\":8040:8818   */\n      pop\n      pop\n      pop\n        /* \"#utility.yul\":7866:8818   */\n      swap3\n      swap2\n      pop\n      pop\n      jump\t// out\n        /* \"#utility.yul\":8892:10348   */\n    tag_138:\n        /* \"#utility.yul\":9021:9024   */\n      0x00\n        /* \"#utility.yul\":9057:9061   */\n      0xa0\n        /* \"#utility.yul\":9052:9055   */\n      dup4\n        /* \"#utility.yul\":9048:9062   */\n      add\n        /* \"#utility.yul\":9148:9152   */\n      0x00\n        /* \"#utility.yul\":9141:9146   */\n      dup4\n        /* \"#utility.yul\":9137:9153   */\n      add\n        /* \"#utility.yul\":9131:9154   */\n      mload\n        /* \"#utility.yul\":9201:9204   */\n      dup5\n        /* \"#utility.yul\":9195:9199   */\n      dup3\n        /* \"#utility.yul\":9191:9205   */\n      sub\n        /* \"#utility.yul\":9184:9188   */\n      0x00\n        /* \"#utility.yul\":9179:9182   */\n      dup7\n        /* \"#utility.yul\":9175:9189   */\n      add\n        /* \"#utility.yul\":9168:9206   */\n      mstore\n        /* \"#utility.yul\":9227:9298   */\n      tag_245\n        /* \"#utility.yul\":9293:9297   */\n      dup3\n        /* \"#utility.yul\":9279:9291   */\n      dup3\n        /* \"#utility.yul\":9227:9298   */\n      tag_128\n      jump\t// in\n    tag_245:\n        /* \"#utility.yul\":9219:9298   */\n      swap2\n      pop\n        /* \"#utility.yul\":9072:9309   */\n      pop\n        /* \"#utility.yul\":9391:9395   */\n      0x20\n        /* \"#utility.yul\":9384:9389   */\n      dup4\n        /* \"#utility.yul\":9380:9396   */\n      add\n        /* \"#utility.yul\":9374:9397   */\n      mload\n        /* \"#utility.yul\":9444:9447   */\n      dup5\n        /* \"#utility.yul\":9438:9442   */\n      dup3\n        /* \"#utility.yul\":9434:9448   */\n      sub\n        /* \"#utility.yul\":9427:9431   */\n      0x20\n        /* \"#utility.yul\":9422:9425   */\n      dup7\n        /* \"#utility.yul\":9418:9432   */\n      add\n        /* \"#utility.yul\":9411:9449   */\n      mstore\n        /* \"#utility.yul\":9470:9541   */\n      tag_246\n        /* \"#utility.yul\":9536:9540   */\n      dup3\n        /* \"#utility.yul\":9522:9534   */\n      dup3\n        /* \"#utility.yul\":9470:9541   */\n      tag_128\n      jump\t// in\n    tag_246:\n        /* \"#utility.yul\":9462:9541   */\n      swap2\n      pop\n        /* \"#utility.yul\":9319:9552   */\n      pop\n        /* \"#utility.yul\":9642:9646   */\n      0x40\n        /* \"#utility.yul\":9635:9640   */\n      dup4\n        /* \"#utility.yul\":9631:9647   */\n      add\n        /* \"#utility.yul\":9625:9648   */\n      mload\n        /* \"#utility.yul\":9695:9698   */\n      dup5\n        /* \"#utility.yul\":9689:9693   */\n      dup3\n        /* \"#utility.yul\":9685:9699   */\n      sub\n        /* \"#utility.yul\":9678:9682   */\n      0x40\n        /* \"#utility.yul\":9673:9676   */\n      dup7\n        /* \"#utility.yul\":9669:9683   */\n      add\n        /* \"#utility.yul\":9662:9700   */\n      mstore\n        /* \"#utility.yul\":9721:9884   */\n      tag_247\n        /* \"#utility.yul\":9879:9883   */\n      dup3\n        /* \"#utility.yul\":9865:9877   */\n      dup3\n        /* \"#utility.yul\":9721:9884   */\n      tag_137\n      jump\t// in\n    tag_247:\n        /* \"#utility.yul\":9713:9884   */\n      swap2\n      pop\n        /* \"#utility.yul\":9562:9895   */\n      pop\n        /* \"#utility.yul\":9981:9985   */\n      0x60\n        /* \"#utility.yul\":9974:9979   */\n      dup4\n        /* \"#utility.yul\":9970:9986   */\n      add\n        /* \"#utility.yul\":9964:9987   */\n      mload\n        /* \"#utility.yul\":10000:10063   */\n      tag_248\n        /* \"#utility.yul\":10057:10061   */\n      0x60\n        /* \"#utility.yul\":10052:10055   */\n      dup7\n        /* \"#utility.yul\":10048:10062   */\n      add\n        /* \"#utility.yul\":10034:10046   */\n      dup3\n        /* \"#utility.yul\":10000:10063   */\n      tag_132\n      jump\t// in\n    tag_248:\n        /* \"#utility.yul\":9905:10073   */\n      pop\n        /* \"#utility.yul\":10160:10164   */\n      0x80\n        /* \"#utility.yul\":10153:10158   */\n      dup4\n        /* \"#utility.yul\":10149:10165   */\n      add\n        /* \"#utility.yul\":10143:10166   */\n      mload\n        /* \"#utility.yul\":10213:10216   */\n      dup5\n        /* \"#utility.yul\":10207:10211   */\n      dup3\n        /* \"#utility.yul\":10203:10217   */\n      sub\n        /* \"#utility.yul\":10196:10200   */\n      0x80\n        /* \"#utility.yul\":10191:10194   */\n      dup7\n        /* \"#utility.yul\":10187:10201   */\n      add\n        /* \"#utility.yul\":10180:10218   */\n      mstore\n        /* \"#utility.yul\":10239:10310   */\n      tag_249\n        /* \"#utility.yul\":10305:10309   */\n      dup3\n        /* \"#utility.yul\":10291:10303   */\n      dup3\n        /* \"#utility.yul\":10239:10310   */\n      tag_128\n      jump\t// in\n    tag_249:\n        /* \"#utility.yul\":10231:10310   */\n      swap2\n      pop\n        /* \"#utility.yul\":10083:10321   */\n      pop\n        /* \"#utility.yul\":10338:10342   */\n      dup1\n        /* \"#utility.yul\":10331:10342   */\n      swap2\n      pop\n        /* \"#utility.yul\":9026:10348   */\n      pop\n        /* \"#utility.yul\":8892:10348   */\n      swap3\n      swap2\n      pop\n      pop\n      jump\t// out\n        /* \"#utility.yul\":10354:10853   */\n    tag_56:\n        /* \"#utility.yul\":10533:10537   */\n      0x00\n        /* \"#utility.yul\":10571:10573   */\n      0x40\n        /* \"#utility.yul\":10560:10569   */\n      dup3\n        /* \"#utility.yul\":10556:10574   */\n      add\n        /* \"#utility.yul\":10548:10574   */\n      swap1\n      pop\n        /* \"#utility.yul\":10584:10653   */\n      tag_251\n        /* \"#utility.yul\":10650:10651   */\n      0x00\n        /* \"#utility.yul\":10639:10648   */\n      dup4\n        /* \"#utility.yul\":10635:10652   */\n      add\n        /* \"#utility.yul\":10626:10632   */\n      dup6\n        /* \"#utility.yul\":10584:10653   */\n      tag_105\n      jump\t// in\n    tag_251:\n        /* \"#utility.yul\":10700:10709   */\n      dup2\n        /* \"#utility.yul\":10694:10698   */\n      dup2\n        /* \"#utility.yul\":10690:10710   */\n      sub\n        /* \"#utility.yul\":10685:10687   */\n      0x20\n        /* \"#utility.yul\":10674:10683   */\n      dup4\n        /* \"#utility.yul\":10670:10688   */\n      add\n        /* \"#utility.yul\":10663:10711   */\n      mstore\n        /* \"#utility.yul\":10728:10846   */\n      tag_252\n        /* \"#utility.yul\":10841:10845   */\n      dup2\n        /* \"#utility.yul\":10832:10838   */\n      dup5\n        /* \"#utility.yul\":10728:10846   */\n      tag_138\n      jump\t// in\n    tag_252:\n        /* \"#utility.yul\":10720:10846   */\n      swap1\n      pop\n        /* \"#utility.yul\":10354:10853   */\n      swap4\n      swap3\n      pop\n      pop\n      pop\n      jump\t// out\n        /* \"#utility.yul\":10859:10981   */\n    tag_139:\n        /* \"#utility.yul\":10932:10956   */\n      tag_254\n        /* \"#utility.yul\":10950:10955   */\n      dup2\n        /* \"#utility.yul\":10932:10956   */\n      tag_116\n      jump\t// in\n    tag_254:\n        /* \"#utility.yul\":10925:10930   */\n      dup2\n        /* \"#utility.yul\":10922:10957   */\n      eq\n        /* \"#utility.yul\":10912:10975   */\n      tag_255\n      jumpi\n        /* \"#utility.yul\":10971:10972   */\n      0x00\n        /* \"#utility.yul\":10968:10969   */\n      dup1\n        /* \"#utility.yul\":10961:10973   */\n      revert\n        /* \"#utility.yul\":10912:10975   */\n    tag_255:\n        /* \"#utility.yul\":10859:10981   */\n      pop\n      jump\t// out\n        /* \"#utility.yul\":10987:11130   */\n    tag_140:\n        /* \"#utility.yul\":11044:11049   */\n      0x00\n        /* \"#utility.yul\":11075:11081   */\n      dup2\n        /* \"#utility.yul\":11069:11082   */\n      mload\n        /* \"#utility.yul\":11060:11082   */\n      swap1\n      pop\n        /* \"#utility.yul\":11091:11124   */\n      tag_257\n        /* \"#utility.yul\":11118:11123   */\n      dup2\n        /* \"#utility.yul\":11091:11124   */\n      tag_139\n      jump\t// in\n    tag_257:\n        /* \"#utility.yul\":10987:11130   */\n      swap3\n      swap2\n      pop\n      pop\n      jump\t// out\n        /* \"#utility.yul\":11136:11487   */\n    tag_60:\n        /* \"#utility.yul\":11206:11212   */\n      0x00\n        /* \"#utility.yul\":11255:11257   */\n      0x20\n        /* \"#utility.yul\":11243:11252   */\n      dup3\n        /* \"#utility.yul\":11234:11241   */\n      dup5\n        /* \"#utility.yul\":11230:11253   */\n      sub\n        /* \"#utility.yul\":11226:11258   */\n      slt\n        /* \"#utility.yul\":11223:11342   */\n      iszero\n      tag_259\n      jumpi\n        /* \"#utility.yul\":11261:11340   */\n      tag_260\n      tag_112\n      jump\t// in\n    tag_260:\n        /* \"#utility.yul\":11223:11342   */\n    tag_259:\n        /* \"#utility.yul\":11381:11382   */\n      0x00\n        /* \"#utility.yul\":11406:11470   */\n      tag_261\n        /* \"#utility.yul\":11462:11469   */\n      dup5\n        /* \"#utility.yul\":11453:11459   */\n      dup3\n        /* \"#utility.yul\":11442:11451   */\n      dup6\n        /* \"#utility.yul\":11438:11460   */\n      add\n        /* \"#utility.yul\":11406:11470   */\n      tag_140\n      jump\t// in\n    tag_261:\n        /* \"#utility.yul\":11396:11470   */\n      swap2\n      pop\n        /* \"#utility.yul\":11352:11480   */\n      pop\n        /* \"#utility.yul\":11136:11487   */\n      swap3\n      swap2\n      pop\n      pop\n      jump\t// out\n        /* \"#utility.yul\":11493:11825   */\n    tag_71:\n        /* \"#utility.yul\":11614:11618   */\n      0x00\n        /* \"#utility.yul\":11652:11654   */\n      0x40\n        /* \"#utility.yul\":11641:11650   */\n      dup3\n        /* \"#utility.yul\":11637:11655   */\n      add\n        /* \"#utility.yul\":11629:11655   */\n      swap1\n      pop\n        /* \"#utility.yul\":11665:11736   */\n      tag_263\n        /* \"#utility.yul\":11733:11734   */\n      0x00\n        /* \"#utility.yul\":11722:11731   */\n      dup4\n        /* \"#utility.yul\":11718:11735   */\n      add\n        /* \"#utility.yul\":11709:11715   */\n      dup6\n        /* \"#utility.yul\":11665:11736   */\n      tag_117\n      jump\t// in\n    tag_263:\n        /* \"#utility.yul\":11746:11818   */\n      tag_264\n        /* \"#utility.yul\":11814:11816   */\n      0x20\n        /* \"#utility.yul\":11803:11812   */\n      dup4\n        /* \"#utility.yul\":11799:11817   */\n      add\n        /* \"#utility.yul\":11790:11796   */\n      dup5\n        /* \"#utility.yul\":11746:11818   */\n      tag_117\n      jump\t// in\n    tag_264:\n        /* \"#utility.yul\":11493:11825   */\n      swap4\n      swap3\n      pop\n      pop\n      pop\n      jump\t// out\n        /* \"#utility.yul\":11831:11908   */\n    tag_141:\n        /* \"#utility.yul\":11868:11875   */\n      0x00\n        /* \"#utility.yul\":11897:11902   */\n      dup2\n        /* \"#utility.yul\":11886:11902   */\n      swap1\n      pop\n        /* \"#utility.yul\":11831:11908   */\n      swap2\n      swap1\n      pop\n      jump\t// out\n        /* \"#utility.yul\":11914:12036   */\n    tag_142:\n        /* \"#utility.yul\":11987:12011   */\n      tag_267\n        /* \"#utility.yul\":12005:12010   */\n      dup2\n        /* \"#utility.yul\":11987:12011   */\n      tag_141\n      jump\t// in\n    tag_267:\n        /* \"#utility.yul\":11980:11985   */\n      dup2\n        /* \"#utility.yul\":11977:12012   */\n      eq\n        /* \"#utility.yul\":11967:12030   */\n      tag_268\n      jumpi\n        /* \"#utility.yul\":12026:12027   */\n      0x00\n        /* \"#utility.yul\":12023:12024   */\n      dup1\n        /* \"#utility.yul\":12016:12028   */\n      revert\n        /* \"#utility.yul\":11967:12030   */\n    tag_268:\n        /* \"#utility.yul\":11914:12036   */\n      pop\n      jump\t// out\n        /* \"#utility.yul\":12042:12185   */\n    tag_143:\n        /* \"#utility.yul\":12099:12104   */\n      0x00\n        /* \"#utility.yul\":12130:12136   */\n      dup2\n        /* \"#utility.yul\":12124:12137   */\n      mload\n        /* \"#utility.yul\":12115:12137   */\n      swap1\n      pop\n        /* \"#utility.yul\":12146:12179   */\n      tag_270\n        /* \"#utility.yul\":12173:12178   */\n      dup2\n        /* \"#utility.yul\":12146:12179   */\n      tag_142\n      jump\t// in\n    tag_270:\n        /* \"#utility.yul\":12042:12185   */\n      swap3\n      swap2\n      pop\n      pop\n      jump\t// out\n        /* \"#utility.yul\":12191:12542   */\n    tag_76:\n        /* \"#utility.yul\":12261:12267   */\n      0x00\n        /* \"#utility.yul\":12310:12312   */\n      0x20\n        /* \"#utility.yul\":12298:12307   */\n      dup3\n        /* \"#utility.yul\":12289:12296   */\n      dup5\n        /* \"#utility.yul\":12285:12308   */\n      sub\n        /* \"#utility.yul\":12281:12313   */\n      slt\n        /* \"#utility.yul\":12278:12397   */\n      iszero\n      tag_272\n      jumpi\n        /* \"#utility.yul\":12316:12395   */\n      tag_273\n      tag_112\n      jump\t// in\n    tag_273:\n        /* \"#utility.yul\":12278:12397   */\n    tag_272:\n        /* \"#utility.yul\":12436:12437   */\n      0x00\n        /* \"#utility.yul\":12461:12525   */\n      tag_274\n        /* \"#utility.yul\":12517:12524   */\n      dup5\n        /* \"#utility.yul\":12508:12514   */\n      dup3\n        /* \"#utility.yul\":12497:12506   */\n      dup6\n        /* \"#utility.yul\":12493:12515   */\n      add\n        /* \"#utility.yul\":12461:12525   */\n      tag_143\n      jump\t// in\n    tag_274:\n        /* \"#utility.yul\":12451:12525   */\n      swap2\n      pop\n        /* \"#utility.yul\":12407:12535   */\n      pop\n        /* \"#utility.yul\":12191:12542   */\n      swap3\n      swap2\n      pop\n      pop\n      jump\t// out\n        /* \"#utility.yul\":12548:12666   */\n    tag_144:\n        /* \"#utility.yul\":12635:12659   */\n      tag_276\n        /* \"#utility.yul\":12653:12658   */\n      dup2\n        /* \"#utility.yul\":12635:12659   */\n      tag_141\n      jump\t// in\n    tag_276:\n        /* \"#utility.yul\":12630:12633   */\n      dup3\n        /* \"#utility.yul\":12623:12660   */\n      mstore\n        /* \"#utility.yul\":12548:12666   */\n      pop\n      pop\n      jump\t// out\n        /* \"#utility.yul\":12672:12894   */\n    tag_78:\n        /* \"#utility.yul\":12765:12769   */\n      0x00\n        /* \"#utility.yul\":12803:12805   */\n      0x20\n        /* \"#utility.yul\":12792:12801   */\n      dup3\n        /* \"#utility.yul\":12788:12806   */\n      add\n        /* \"#utility.yul\":12780:12806   */\n      swap1\n      pop\n        /* \"#utility.yul\":12816:12887   */\n      tag_278\n        /* \"#utility.yul\":12884:12885   */\n      0x00\n        /* \"#utility.yul\":12873:12882   */\n      dup4\n        /* \"#utility.yul\":12869:12886   */\n      add\n        /* \"#utility.yul\":12860:12866   */\n      dup5\n        /* \"#utility.yul\":12816:12887   */\n      tag_144\n      jump\t// in\n    tag_278:\n        /* \"#utility.yul\":12672:12894   */\n      swap3\n      swap2\n      pop\n      pop\n      jump\t// out\n        /* \"#utility.yul\":12900:13232   */\n    tag_93:\n        /* \"#utility.yul\":13021:13025   */\n      0x00\n        /* \"#utility.yul\":13059:13061   */\n      0x40\n        /* \"#utility.yul\":13048:13057   */\n      dup3\n        /* \"#utility.yul\":13044:13062   */\n      add\n        /* \"#utility.yul\":13036:13062   */\n      swap1\n      pop\n        /* \"#utility.yul\":13072:13143   */\n      tag_280\n        /* \"#utility.yul\":13140:13141   */\n      0x00\n        /* \"#utility.yul\":13129:13138   */\n      dup4\n        /* \"#utility.yul\":13125:13142   */\n      add\n        /* \"#utility.yul\":13116:13122   */\n      dup6\n        /* \"#utility.yul\":13072:13143   */\n      tag_103\n      jump\t// in\n    tag_280:\n        /* \"#utility.yul\":13153:13225   */\n      tag_281\n        /* \"#utility.yul\":13221:13223   */\n      0x20\n        /* \"#utility.yul\":13210:13219   */\n      dup4\n        /* \"#utility.yul\":13206:13224   */\n      add\n        /* \"#utility.yul\":13197:13203   */\n      dup5\n        /* \"#utility.yul\":13153:13225   */\n      tag_117\n      jump\t// in\n    tag_281:\n        /* \"#utility.yul\":12900:13232   */\n      swap4\n      swap3\n      pop\n      pop\n      pop\n      jump\t// out\n        /* \"#utility.yul\":13238:13328   */\n    tag_145:\n        /* \"#utility.yul\":13272:13279   */\n      0x00\n        /* \"#utility.yul\":13315:13320   */\n      dup2\n        /* \"#utility.yul\":13308:13321   */\n      iszero\n        /* \"#utility.yul\":13301:13322   */\n      iszero\n        /* \"#utility.yul\":13290:13322   */\n      swap1\n      pop\n        /* \"#utility.yul\":13238:13328   */\n      swap2\n      swap1\n      pop\n      jump\t// out\n        /* \"#utility.yul\":13334:13450   */\n    tag_146:\n        /* \"#utility.yul\":13404:13425   */\n      tag_284\n        /* \"#utility.yul\":13419:13424   */\n      dup2\n        /* \"#utility.yul\":13404:13425   */\n      tag_145\n      jump\t// in\n    tag_284:\n        /* \"#utility.yul\":13397:13402   */\n      dup2\n        /* \"#utility.yul\":13394:13426   */\n      eq\n        /* \"#utility.yul\":13384:13444   */\n      tag_285\n      jumpi\n        /* \"#utility.yul\":13440:13441   */\n      0x00\n        /* \"#utility.yul\":13437:13438   */\n      dup1\n        /* \"#utility.yul\":13430:13442   */\n      revert\n        /* \"#utility.yul\":13384:13444   */\n    tag_285:\n        /* \"#utility.yul\":13334:13450   */\n      pop\n      jump\t// out\n        /* \"#utility.yul\":13456:13593   */\n    tag_147:\n        /* \"#utility.yul\":13510:13515   */\n      0x00\n        /* \"#utility.yul\":13541:13547   */\n      dup2\n        /* \"#utility.yul\":13535:13548   */\n      mload\n        /* \"#utility.yul\":13526:13548   */\n      swap1\n      pop\n        /* \"#utility.yul\":13557:13587   */\n      tag_287\n        /* \"#utility.yul\":13581:13586   */\n      dup2\n        /* \"#utility.yul\":13557:13587   */\n      tag_146\n      jump\t// in\n    tag_287:\n        /* \"#utility.yul\":13456:13593   */\n      swap3\n      swap2\n      pop\n      pop\n      jump\t// out\n        /* \"#utility.yul\":13599:13944   */\n    tag_97:\n        /* \"#utility.yul\":13666:13672   */\n      0x00\n        /* \"#utility.yul\":13715:13717   */\n      0x20\n        /* \"#utility.yul\":13703:13712   */\n      dup3\n        /* \"#utility.yul\":13694:13701   */\n      dup5\n        /* \"#utility.yul\":13690:13713   */\n      sub\n        /* \"#utility.yul\":13686:13718   */\n      slt\n        /* \"#utility.yul\":13683:13802   */\n      iszero\n      tag_289\n      jumpi\n        /* \"#utility.yul\":13721:13800   */\n      tag_290\n      tag_112\n      jump\t// in\n    tag_290:\n        /* \"#utility.yul\":13683:13802   */\n    tag_289:\n        /* \"#utility.yul\":13841:13842   */\n      0x00\n        /* \"#utility.yul\":13866:13927   */\n      tag_291\n        /* \"#utility.yul\":13919:13926   */\n      dup5\n        /* \"#utility.yul\":13910:13916   */\n      dup3\n        /* \"#utility.yul\":13899:13908   */\n      dup6\n        /* \"#utility.yul\":13895:13917   */\n      add\n        /* \"#utility.yul\":13866:13927   */\n      tag_147\n      jump\t// in\n    tag_291:\n        /* \"#utility.yul\":13856:13927   */\n      swap2\n      pop\n        /* \"#utility.yul\":13812:13937   */\n      pop\n        /* \"#utility.yul\":13599:13944   */\n      swap3\n      swap2\n      pop\n      pop\n      jump\t// out\n        /* \"#utility.yul\":14018:14365   */\n    tag_148:\n        /* \"#utility.yul\":14175:14179   */\n      0x20\n        /* \"#utility.yul\":14170:14173   */\n      dup3\n        /* \"#utility.yul\":14166:14180   */\n      add\n        /* \"#utility.yul\":14266:14270   */\n      0x00\n        /* \"#utility.yul\":14259:14264   */\n      dup3\n        /* \"#utility.yul\":14255:14271   */\n      add\n        /* \"#utility.yul\":14249:14272   */\n      mload\n        /* \"#utility.yul\":14285:14348   */\n      tag_293\n        /* \"#utility.yul\":14342:14346   */\n      0x00\n        /* \"#utility.yul\":14337:14340   */\n      dup6\n        /* \"#utility.yul\":14333:14347   */\n      add\n        /* \"#utility.yul\":14319:14331   */\n      dup3\n        /* \"#utility.yul\":14285:14348   */\n      tag_133\n      jump\t// in\n    tag_293:\n        /* \"#utility.yul\":14190:14358   */\n      pop\n        /* \"#utility.yul\":14144:14365   */\n      pop\n        /* \"#utility.yul\":14018:14365   */\n      pop\n      pop\n      jump\t// out\n        /* \"#utility.yul\":14371:14713   */\n    tag_100:\n        /* \"#utility.yul\":14524:14528   */\n      0x00\n        /* \"#utility.yul\":14562:14564   */\n      0x20\n        /* \"#utility.yul\":14551:14560   */\n      dup3\n        /* \"#utility.yul\":14547:14565   */\n      add\n        /* \"#utility.yul\":14539:14565   */\n      swap1\n      pop\n        /* \"#utility.yul\":14575:14706   */\n      tag_295\n        /* \"#utility.yul\":14703:14704   */\n      0x00\n        /* \"#utility.yul\":14692:14701   */\n      dup4\n        /* \"#utility.yul\":14688:14705   */\n      add\n        /* \"#utility.yul\":14679:14685   */\n      dup5\n        /* \"#utility.yul\":14575:14706   */\n      tag_148\n      jump\t// in\n    tag_295:\n        /* \"#utility.yul\":14371:14713   */\n      swap3\n      swap2\n      pop\n      pop\n      jump\t// out\n\n    auxdata: 0xa2646970667358221220a4180bb82d62dd53b995c56e72c41b33f0c6b75b70c3b93330463fcf32b5224f64736f6c63430008130033\n}\n",
				"bytecode": {
					"linkReferences": {},
					"object": "60806040523480156200001157600080fd5b50604051620014cd380380620014cd8339818101604052810190620000379190620002d0565b33600260006101000a81548173ffffffffffffffffffffffffffffffffffffffff021916908373ffffffffffffffffffffffffffffffffffffffff160217905550600073f694e193200268f9a4868e4aa017a0118c9a81779050806000806101000a81548173ffffffffffffffffffffffffffffffffffffffff021916908373ffffffffffffffffffffffffffffffffffffffff160217905550730b9d5d9136855f6fec3c0993fee6e9ce8a297846600160006101000a81548173ffffffffffffffffffffffffffffffffffffffff021916908373ffffffffffffffffffffffffffffffffffffffff160217905550600160009054906101000a900473ffffffffffffffffffffffffffffffffffffffff1673ffffffffffffffffffffffffffffffffffffffff1663095ea7b3827fffffffffffffffffffffffffffffffffffffffffffffffffffffffffffffffff6040518363ffffffff1660e01b8152600401620001a59291906200032e565b6020604051808303816000875af1158015620001c5573d6000803e3d6000fd5b505050506040513d601f19601f82011682018060405250810190620001eb919062000398565b5067de41ba4fc9d91ad9600160146101000a81548167ffffffffffffffff021916908367ffffffffffffffff16021790555081600360006101000a81548173ffffffffffffffffffffffffffffffffffffffff021916908373ffffffffffffffffffffffffffffffffffffffff1602179055505050620003ca565b600080fd5b600073ffffffffffffffffffffffffffffffffffffffff82169050919050565b600062000298826200026b565b9050919050565b620002aa816200028b565b8114620002b657600080fd5b50565b600081519050620002ca816200029f565b92915050565b600060208284031215620002e957620002e862000266565b5b6000620002f984828501620002b9565b91505092915050565b6200030d816200028b565b82525050565b6000819050919050565b620003288162000313565b82525050565b600060408201905062000345600083018562000302565b6200035460208301846200031d565b9392505050565b60008115159050919050565b62000372816200035b565b81146200037e57600080fd5b50565b600081519050620003928162000367565b92915050565b600060208284031215620003b157620003b062000266565b5b6000620003c18482850162000381565b91505092915050565b6110f380620003da6000396000f3fe608060405234801561001057600080fd5b50600436106100885760003560e01c8063a225149b1161005b578063a225149b14610105578063b13f25521461010f578063bf384e101461013f578063f887ea401461015b57610088565b80631a8af8d51461008d57806331db1ffc146100ab57806357970e93146100c95780638da5cb5b146100e7575b600080fd5b610095610179565b6040516100a29190610a61565b60405180910390f35b6100b361019f565b6040516100c09190610a9f565b60405180910390f35b6100d16101b9565b6040516100de9190610b19565b60405180910390f35b6100ef6101df565b6040516100fc9190610a61565b60405180910390f35b61010d610205565b005b61012960048036038101906101249190610b65565b6106cf565b6040516101369190610bab565b60405180910390f35b61015960048036038101906101549190610b65565b610774565b005b61016361094d565b6040516101709190610be7565b60405180910390f35b600360009054906101000a900473ffffffffffffffffffffffffffffffffffffffff1681565b600160149054906101000a900467ffffffffffffffff1681565b600160009054906101000a900473ffffffffffffffffffffffffffffffffffffffff1681565b600260009054906101000a900473ffffffffffffffffffffffffffffffffffffffff1681565b60006040518060a00160405280600360009054906101000a900473ffffffffffffffffffffffffffffffffffffffff166040516020016102459190610a61565b604051602081830303815290604052815260200133600160405160240161026d929190610c4a565b6040516020818303038152906040527f1cc74859000000000000000000000000000000000000000000000000000000007bffffffffffffffffffffffffffffffffffffffffffffffffffffffff19166020820180517bffffffffffffffffffffffffffffffffffffffffffffffffffffffff83818316178352505050508152602001600067ffffffffffffffff81111561030a57610309610c73565b5b60405190808252806020026020018201604052801561034357816020015b6103306109f0565b8152602001906001900390816103285790505b508152602001600160009054906101000a900473ffffffffffffffffffffffffffffffffffffffff1673ffffffffffffffffffffffffffffffffffffffff1681526020016103a16040518060200160405280620ef420815250610971565b815250905060008060009054906101000a900473ffffffffffffffffffffffffffffffffffffffff1673ffffffffffffffffffffffffffffffffffffffff166320487ded600160149054906101000a900467ffffffffffffffff16846040518363ffffffff1660e01b815260040161041a929190610eb9565b602060405180830381865afa158015610437573d6000803e3d6000fd5b505050506040513d601f19601f8201168201806040525081019061045b9190610f15565b9050600160009054906101000a900473ffffffffffffffffffffffffffffffffffffffff1673ffffffffffffffffffffffffffffffffffffffff166370a08231306040518263ffffffff1660e01b81526004016104b89190610a61565b602060405180830381865afa1580156104d5573d6000803e3d6000fd5b505050506040513d601f19601f820116820180604052508101906104f99190610f15565b8111156105da57600160009054906101000a900473ffffffffffffffffffffffffffffffffffffffff1673ffffffffffffffffffffffffffffffffffffffff166370a08231306040518263ffffffff1660e01b815260040161055b9190610a61565b602060405180830381865afa158015610578573d6000803e3d6000fd5b505050506040513d601f19601f8201168201806040525081019061059c9190610f15565b816040517f8f0f42060000000000000000000000000000000000000000000000000000000081526004016105d1929190610f42565b60405180910390fd5b60008060009054906101000a900473ffffffffffffffffffffffffffffffffffffffff1673ffffffffffffffffffffffffffffffffffffffff166396f4e9f9600160149054906101000a900467ffffffffffffffff16856040518363ffffffff1660e01b815260040161064e929190610eb9565b6020604051808303816000875af115801561066d573d6000803e3d6000fd5b505050506040513d601f19601f820116820180604052508101906106919190610fa1565b90507f54791b38f3859327992a1ca0590ad3c0f08feba98d1a4f56ab0dca74d203392a816040516106c29190610fdd565b60405180910390a1505050565b6000600160009054906101000a900473ffffffffffffffffffffffffffffffffffffffff1673ffffffffffffffffffffffffffffffffffffffff166370a08231836040518263ffffffff1660e01b815260040161072c9190610a61565b602060405180830381865afa158015610749573d6000803e3d6000fd5b505050506040513d601f19601f8201168201806040525081019061076d9190610f15565b9050919050565b600260009054906101000a900473ffffffffffffffffffffffffffffffffffffffff1673ffffffffffffffffffffffffffffffffffffffff163373ffffffffffffffffffffffffffffffffffffffff16146107ce57600080fd5b6000600160009054906101000a900473ffffffffffffffffffffffffffffffffffffffff1673ffffffffffffffffffffffffffffffffffffffff166370a08231306040518263ffffffff1660e01b815260040161082b9190610a61565b602060405180830381865afa158015610848573d6000803e3d6000fd5b505050506040513d601f19601f8201168201806040525081019061086c9190610f15565b9050600081036108a8576040517fd0d04f6000000000000000000000000000000000000000000000000000000000815260040160405180910390fd5b600160009054906101000a900473ffffffffffffffffffffffffffffffffffffffff1673ffffffffffffffffffffffffffffffffffffffff1663a9059cbb83836040518363ffffffff1660e01b8152600401610905929190610ff8565b6020604051808303816000875af1158015610924573d6000803e3d6000fd5b505050506040513d601f19601f820116820180604052508101906109489190611059565b505050565b60008054906101000a900473ffffffffffffffffffffffffffffffffffffffff1681565b60606397a657c960e01b8260405160240161098c91906110a2565b604051602081830303815290604052907bffffffffffffffffffffffffffffffffffffffffffffffffffffffff19166020820180517bffffffffffffffffffffffffffffffffffffffffffffffffffffffff83818316178352505050509050919050565b6040518060400160405280600073ffffffffffffffffffffffffffffffffffffffff168152602001600081525090565b600073ffffffffffffffffffffffffffffffffffffffff82169050919050565b6000610a4b82610a20565b9050919050565b610a5b81610a40565b82525050565b6000602082019050610a766000830184610a52565b92915050565b600067ffffffffffffffff82169050919050565b610a9981610a7c565b82525050565b6000602082019050610ab46000830184610a90565b92915050565b6000819050919050565b6000610adf610ada610ad584610a20565b610aba565b610a20565b9050919050565b6000610af182610ac4565b9050919050565b6000610b0382610ae6565b9050919050565b610b1381610af8565b82525050565b6000602082019050610b2e6000830184610b0a565b92915050565b600080fd5b610b4281610a40565b8114610b4d57600080fd5b50565b600081359050610b5f81610b39565b92915050565b600060208284031215610b7b57610b7a610b34565b5b6000610b8984828501610b50565b91505092915050565b6000819050919050565b610ba581610b92565b82525050565b6000602082019050610bc06000830184610b9c565b92915050565b6000610bd182610ae6565b9050919050565b610be181610bc6565b82525050565b6000602082019050610bfc6000830184610bd8565b92915050565b6000819050919050565b600060ff82169050919050565b6000610c34610c2f610c2a84610c02565b610aba565b610c0c565b9050919050565b610c4481610c19565b82525050565b6000604082019050610c5f6000830185610a52565b610c6c6020830184610c3b565b9392505050565b7f4e487b7100000000000000000000000000000000000000000000000000000000600052604160045260246000fd5b600081519050919050565b600082825260208201905092915050565b60005b83811015610cdc578082015181840152602081019050610cc1565b60008484015250505050565b6000601f19601f8301169050919050565b6000610d0482610ca2565b610d0e8185610cad565b9350610d1e818560208601610cbe565b610d2781610ce8565b840191505092915050565b600081519050919050565b600082825260208201905092915050565b6000819050602082019050919050565b610d6781610a40565b82525050565b610d7681610b92565b82525050565b604082016000820151610d926000850182610d5e565b506020820151610da56020850182610d6d565b50505050565b6000610db78383610d7c565b60408301905092915050565b6000602082019050919050565b6000610ddb82610d32565b610de58185610d3d565b9350610df083610d4e565b8060005b83811015610e21578151610e088882610dab565b9750610e1383610dc3565b925050600181019050610df4565b5085935050505092915050565b600060a0830160008301518482036000860152610e4b8282610cf9565b91505060208301518482036020860152610e658282610cf9565b91505060408301518482036040860152610e7f8282610dd0565b9150506060830151610e946060860182610d5e565b5060808301518482036080860152610eac8282610cf9565b9150508091505092915050565b6000604082019050610ece6000830185610a90565b8181036020830152610ee08184610e2e565b90509392505050565b610ef281610b92565b8114610efd57600080fd5b50565b600081519050610f0f81610ee9565b92915050565b600060208284031215610f2b57610f2a610b34565b5b6000610f3984828501610f00565b91505092915050565b6000604082019050610f576000830185610b9c565b610f646020830184610b9c565b9392505050565b6000819050919050565b610f7e81610f6b565b8114610f8957600080fd5b50565b600081519050610f9b81610f75565b92915050565b600060208284031215610fb757610fb6610b34565b5b6000610fc584828501610f8c565b91505092915050565b610fd781610f6b565b82525050565b6000602082019050610ff26000830184610fce565b92915050565b600060408201905061100d6000830185610a52565b61101a6020830184610b9c565b9392505050565b60008115159050919050565b61103681611021565b811461104157600080fd5b50565b6000815190506110538161102d565b92915050565b60006020828403121561106f5761106e610b34565b5b600061107d84828501611044565b91505092915050565b60208201600082015161109c6000850182610d6d565b50505050565b60006020820190506110b76000830184611086565b9291505056fea2646970667358221220a4180bb82d62dd53b995c56e72c41b33f0c6b75b70c3b93330463fcf32b5224f64736f6c63430008130033",
					"opcodes": "PUSH1 0x80 PUSH1 0x40 MSTORE CALLVALUE DUP1 ISZERO PUSH3 0x11 JUMPI PUSH1 0x0 DUP1 REVERT JUMPDEST POP PUSH1 0x40 MLOAD PUSH3 0x14CD CODESIZE SUB DUP1 PUSH3 0x14CD DUP4 CODECOPY DUP2 DUP2 ADD PUSH1 0x40 MSTORE DUP2 ADD SWAP1 PUSH3 0x37 SWAP2 SWAP1 PUSH3 0x2D0 JUMP JUMPDEST CALLER PUSH1 0x2 PUSH1 0x0 PUSH2 0x100 EXP DUP2 SLOAD DUP2 PUSH20 0xFFFFFFFFFFFFFFFFFFFFFFFFFFFFFFFFFFFFFFFF MUL NOT AND SWAP1 DUP4 PUSH20 0xFFFFFFFFFFFFFFFFFFFFFFFFFFFFFFFFFFFFFFFF AND MUL OR SWAP1 SSTORE POP PUSH1 0x0 PUSH20 0xF694E193200268F9A4868E4AA017A0118C9A8177 SWAP1 POP DUP1 PUSH1 0x0 DUP1 PUSH2 0x100 EXP DUP2 SLOAD DUP2 PUSH20 0xFFFFFFFFFFFFFFFFFFFFFFFFFFFFFFFFFFFFFFFF MUL NOT AND SWAP1 DUP4 PUSH20 0xFFFFFFFFFFFFFFFFFFFFFFFFFFFFFFFFFFFFFFFF AND MUL OR SWAP1 SSTORE POP PUSH20 0xB9D5D9136855F6FEC3C0993FEE6E9CE8A297846 PUSH1 0x1 PUSH1 0x0 PUSH2 0x100 EXP DUP2 SLOAD DUP2 PUSH20 0xFFFFFFFFFFFFFFFFFFFFFFFFFFFFFFFFFFFFFFFF MUL NOT AND SWAP1 DUP4 PUSH20 0xFFFFFFFFFFFFFFFFFFFFFFFFFFFFFFFFFFFFFFFF AND MUL OR SWAP1 SSTORE POP PUSH1 0x1 PUSH1 0x0 SWAP1 SLOAD SWAP1 PUSH2 0x100 EXP SWAP1 DIV PUSH20 0xFFFFFFFFFFFFFFFFFFFFFFFFFFFFFFFFFFFFFFFF AND PUSH20 0xFFFFFFFFFFFFFFFFFFFFFFFFFFFFFFFFFFFFFFFF AND PUSH4 0x95EA7B3 DUP3 PUSH32 0xFFFFFFFFFFFFFFFFFFFFFFFFFFFFFFFFFFFFFFFFFFFFFFFFFFFFFFFFFFFFFFFF PUSH1 0x40 MLOAD DUP4 PUSH4 0xFFFFFFFF AND PUSH1 0xE0 SHL DUP2 MSTORE PUSH1 0x4 ADD PUSH3 0x1A5 SWAP3 SWAP2 SWAP1 PUSH3 0x32E JUMP JUMPDEST PUSH1 0x20 PUSH1 0x40 MLOAD DUP1 DUP4 SUB DUP2 PUSH1 0x0 DUP8 GAS CALL ISZERO DUP1 ISZERO PUSH3 0x1C5 JUMPI RETURNDATASIZE PUSH1 0x0 DUP1 RETURNDATACOPY RETURNDATASIZE PUSH1 0x0 REVERT JUMPDEST POP POP POP POP PUSH1 0x40 MLOAD RETURNDATASIZE PUSH1 0x1F NOT PUSH1 0x1F DUP3 ADD AND DUP3 ADD DUP1 PUSH1 0x40 MSTORE POP DUP2 ADD SWAP1 PUSH3 0x1EB SWAP2 SWAP1 PUSH3 0x398 JUMP JUMPDEST POP PUSH8 0xDE41BA4FC9D91AD9 PUSH1 0x1 PUSH1 0x14 PUSH2 0x100 EXP DUP2 SLOAD DUP2 PUSH8 0xFFFFFFFFFFFFFFFF MUL NOT AND SWAP1 DUP4 PUSH8 0xFFFFFFFFFFFFFFFF AND MUL OR SWAP1 SSTORE POP DUP2 PUSH1 0x3 PUSH1 0x0 PUSH2 0x100 EXP DUP2 SLOAD DUP2 PUSH20 0xFFFFFFFFFFFFFFFFFFFFFFFFFFFFFFFFFFFFFFFF MUL NOT AND SWAP1 DUP4 PUSH20 0xFFFFFFFFFFFFFFFFFFFFFFFFFFFFFFFFFFFFFFFF AND MUL OR SWAP1 SSTORE POP POP POP PUSH3 0x3CA JUMP JUMPDEST PUSH1 0x0 DUP1 REVERT JUMPDEST PUSH1 0x0 PUSH20 0xFFFFFFFFFFFFFFFFFFFFFFFFFFFFFFFFFFFFFFFF DUP3 AND SWAP1 POP SWAP2 SWAP1 POP JUMP JUMPDEST PUSH1 0x0 PUSH3 0x298 DUP3 PUSH3 0x26B JUMP JUMPDEST SWAP1 POP SWAP2 SWAP1 POP JUMP JUMPDEST PUSH3 0x2AA DUP2 PUSH3 0x28B JUMP JUMPDEST DUP2 EQ PUSH3 0x2B6 JUMPI PUSH1 0x0 DUP1 REVERT JUMPDEST POP JUMP JUMPDEST PUSH1 0x0 DUP2 MLOAD SWAP1 POP PUSH3 0x2CA DUP2 PUSH3 0x29F JUMP JUMPDEST SWAP3 SWAP2 POP POP JUMP JUMPDEST PUSH1 0x0 PUSH1 0x20 DUP3 DUP5 SUB SLT ISZERO PUSH3 0x2E9 JUMPI PUSH3 0x2E8 PUSH3 0x266 JUMP JUMPDEST JUMPDEST PUSH1 0x0 PUSH3 0x2F9 DUP5 DUP3 DUP6 ADD PUSH3 0x2B9 JUMP JUMPDEST SWAP2 POP POP SWAP3 SWAP2 POP POP JUMP JUMPDEST PUSH3 0x30D DUP2 PUSH3 0x28B JUMP JUMPDEST DUP3 MSTORE POP POP JUMP JUMPDEST PUSH1 0x0 DUP2 SWAP1 POP SWAP2 SWAP1 POP JUMP JUMPDEST PUSH3 0x328 DUP2 PUSH3 0x313 JUMP JUMPDEST DUP3 MSTORE POP POP JUMP JUMPDEST PUSH1 0x0 PUSH1 0x40 DUP3 ADD SWAP1 POP PUSH3 0x345 PUSH1 0x0 DUP4 ADD DUP6 PUSH3 0x302 JUMP JUMPDEST PUSH3 0x354 PUSH1 0x20 DUP4 ADD DUP5 PUSH3 0x31D JUMP JUMPDEST SWAP4 SWAP3 POP POP POP JUMP JUMPDEST PUSH1 0x0 DUP2 ISZERO ISZERO SWAP1 POP SWAP2 SWAP1 POP JUMP JUMPDEST PUSH3 0x372 DUP2 PUSH3 0x35B JUMP JUMPDEST DUP2 EQ PUSH3 0x37E JUMPI PUSH1 0x0 DUP1 REVERT JUMPDEST POP JUMP JUMPDEST PUSH1 0x0 DUP2 MLOAD SWAP1 POP PUSH3 0x392 DUP2 PUSH3 0x367 JUMP JUMPDEST SWAP3 SWAP2 POP POP JUMP JUMPDEST PUSH1 0x0 PUSH1 0x20 DUP3 DUP5 SUB SLT ISZERO PUSH3 0x3B1 JUMPI PUSH3 0x3B0 PUSH3 0x266 JUMP JUMPDEST JUMPDEST PUSH1 0x0 PUSH3 0x3C1 DUP5 DUP3 DUP6 ADD PUSH3 0x381 JUMP JUMPDEST SWAP2 POP POP SWAP3 SWAP2 POP POP JUMP JUMPDEST PUSH2 0x10F3 DUP1 PUSH3 0x3DA PUSH1 0x0 CODECOPY PUSH1 0x0 RETURN INVALID PUSH1 0x80 PUSH1 0x40 MSTORE CALLVALUE DUP1 ISZERO PUSH2 0x10 JUMPI PUSH1 0x0 DUP1 REVERT JUMPDEST POP PUSH1 0x4 CALLDATASIZE LT PUSH2 0x88 JUMPI PUSH1 0x0 CALLDATALOAD PUSH1 0xE0 SHR DUP1 PUSH4 0xA225149B GT PUSH2 0x5B JUMPI DUP1 PUSH4 0xA225149B EQ PUSH2 0x105 JUMPI DUP1 PUSH4 0xB13F2552 EQ PUSH2 0x10F JUMPI DUP1 PUSH4 0xBF384E10 EQ PUSH2 0x13F JUMPI DUP1 PUSH4 0xF887EA40 EQ PUSH2 0x15B JUMPI PUSH2 0x88 JUMP JUMPDEST DUP1 PUSH4 0x1A8AF8D5 EQ PUSH2 0x8D JUMPI DUP1 PUSH4 0x31DB1FFC EQ PUSH2 0xAB JUMPI DUP1 PUSH4 0x57970E93 EQ PUSH2 0xC9 JUMPI DUP1 PUSH4 0x8DA5CB5B EQ PUSH2 0xE7 JUMPI JUMPDEST PUSH1 0x0 DUP1 REVERT JUMPDEST PUSH2 0x95 PUSH2 0x179 JUMP JUMPDEST PUSH1 0x40 MLOAD PUSH2 0xA2 SWAP2 SWAP1 PUSH2 0xA61 JUMP JUMPDEST PUSH1 0x40 MLOAD DUP1 SWAP2 SUB SWAP1 RETURN JUMPDEST PUSH2 0xB3 PUSH2 0x19F JUMP JUMPDEST PUSH1 0x40 MLOAD PUSH2 0xC0 SWAP2 SWAP1 PUSH2 0xA9F JUMP JUMPDEST PUSH1 0x40 MLOAD DUP1 SWAP2 SUB SWAP1 RETURN JUMPDEST PUSH2 0xD1 PUSH2 0x1B9 JUMP JUMPDEST PUSH1 0x40 MLOAD PUSH2 0xDE SWAP2 SWAP1 PUSH2 0xB19 JUMP JUMPDEST PUSH1 0x40 MLOAD DUP1 SWAP2 SUB SWAP1 RETURN JUMPDEST PUSH2 0xEF PUSH2 0x1DF JUMP JUMPDEST PUSH1 0x40 MLOAD PUSH2 0xFC SWAP2 SWAP1 PUSH2 0xA61 JUMP JUMPDEST PUSH1 0x40 MLOAD DUP1 SWAP2 SUB SWAP1 RETURN JUMPDEST PUSH2 0x10D PUSH2 0x205 JUMP JUMPDEST STOP JUMPDEST PUSH2 0x129 PUSH1 0x4 DUP1 CALLDATASIZE SUB DUP2 ADD SWAP1 PUSH2 0x124 SWAP2 SWAP1 PUSH2 0xB65 JUMP JUMPDEST PUSH2 0x6CF JUMP JUMPDEST PUSH1 0x40 MLOAD PUSH2 0x136 SWAP2 SWAP1 PUSH2 0xBAB JUMP JUMPDEST PUSH1 0x40 MLOAD DUP1 SWAP2 SUB SWAP1 RETURN JUMPDEST PUSH2 0x159 PUSH1 0x4 DUP1 CALLDATASIZE SUB DUP2 ADD SWAP1 PUSH2 0x154 SWAP2 SWAP1 PUSH2 0xB65 JUMP JUMPDEST PUSH2 0x774 JUMP JUMPDEST STOP JUMPDEST PUSH2 0x163 PUSH2 0x94D JUMP JUMPDEST PUSH1 0x40 MLOAD PUSH2 0x170 SWAP2 SWAP1 PUSH2 0xBE7 JUMP JUMPDEST PUSH1 0x40 MLOAD DUP1 SWAP2 SUB SWAP1 RETURN JUMPDEST PUSH1 0x3 PUSH1 0x0 SWAP1 SLOAD SWAP1 PUSH2 0x100 EXP SWAP1 DIV PUSH20 0xFFFFFFFFFFFFFFFFFFFFFFFFFFFFFFFFFFFFFFFF AND DUP2 JUMP JUMPDEST PUSH1 0x1 PUSH1 0x14 SWAP1 SLOAD SWAP1 PUSH2 0x100 EXP SWAP1 DIV PUSH8 0xFFFFFFFFFFFFFFFF AND DUP2 JUMP JUMPDEST PUSH1 0x1 PUSH1 0x0 SWAP1 SLOAD SWAP1 PUSH2 0x100 EXP SWAP1 DIV PUSH20 0xFFFFFFFFFFFFFFFFFFFFFFFFFFFFFFFFFFFFFFFF AND DUP2 JUMP JUMPDEST PUSH1 0x2 PUSH1 0x0 SWAP1 SLOAD SWAP1 PUSH2 0x100 EXP SWAP1 DIV PUSH20 0xFFFFFFFFFFFFFFFFFFFFFFFFFFFFFFFFFFFFFFFF AND DUP2 JUMP JUMPDEST PUSH1 0x0 PUSH1 0x40 MLOAD DUP1 PUSH1 0xA0 ADD PUSH1 0x40 MSTORE DUP1 PUSH1 0x3 PUSH1 0x0 SWAP1 SLOAD SWAP1 PUSH2 0x100 EXP SWAP1 DIV PUSH20 0xFFFFFFFFFFFFFFFFFFFFFFFFFFFFFFFFFFFFFFFF AND PUSH1 0x40 MLOAD PUSH1 0x20 ADD PUSH2 0x245 SWAP2 SWAP1 PUSH2 0xA61 JUMP JUMPDEST PUSH1 0x40 MLOAD PUSH1 0x20 DUP2 DUP4 SUB SUB DUP2 MSTORE SWAP1 PUSH1 0x40 MSTORE DUP2 MSTORE PUSH1 0x20 ADD CALLER PUSH1 0x1 PUSH1 0x40 MLOAD PUSH1 0x24 ADD PUSH2 0x26D SWAP3 SWAP2 SWAP1 PUSH2 0xC4A JUMP JUMPDEST PUSH1 0x40 MLOAD PUSH1 0x20 DUP2 DUP4 SUB SUB DUP2 MSTORE SWAP1 PUSH1 0x40 MSTORE PUSH32 0x1CC7485900000000000000000000000000000000000000000000000000000000 PUSH28 0xFFFFFFFFFFFFFFFFFFFFFFFFFFFFFFFFFFFFFFFFFFFFFFFFFFFFFFFF NOT AND PUSH1 0x20 DUP3 ADD DUP1 MLOAD PUSH28 0xFFFFFFFFFFFFFFFFFFFFFFFFFFFFFFFFFFFFFFFFFFFFFFFFFFFFFFFF DUP4 DUP2 DUP4 AND OR DUP4 MSTORE POP POP POP POP DUP2 MSTORE PUSH1 0x20 ADD PUSH1 0x0 PUSH8 0xFFFFFFFFFFFFFFFF DUP2 GT ISZERO PUSH2 0x30A JUMPI PUSH2 0x309 PUSH2 0xC73 JUMP JUMPDEST JUMPDEST PUSH1 0x40 MLOAD SWAP1 DUP1 DUP3 MSTORE DUP1 PUSH1 0x20 MUL PUSH1 0x20 ADD DUP3 ADD PUSH1 0x40 MSTORE DUP1 ISZERO PUSH2 0x343 JUMPI DUP2 PUSH1 0x20 ADD JUMPDEST PUSH2 0x330 PUSH2 0x9F0 JUMP JUMPDEST DUP2 MSTORE PUSH1 0x20 ADD SWAP1 PUSH1 0x1 SWAP1 SUB SWAP1 DUP2 PUSH2 0x328 JUMPI SWAP1 POP JUMPDEST POP DUP2 MSTORE PUSH1 0x20 ADD PUSH1 0x1 PUSH1 0x0 SWAP1 SLOAD SWAP1 PUSH2 0x100 EXP SWAP1 DIV PUSH20 0xFFFFFFFFFFFFFFFFFFFFFFFFFFFFFFFFFFFFFFFF AND PUSH20 0xFFFFFFFFFFFFFFFFFFFFFFFFFFFFFFFFFFFFFFFF AND DUP2 MSTORE PUSH1 0x20 ADD PUSH2 0x3A1 PUSH1 0x40 MLOAD DUP1 PUSH1 0x20 ADD PUSH1 0x40 MSTORE DUP1 PUSH3 0xEF420 DUP2 MSTORE POP PUSH2 0x971 JUMP JUMPDEST DUP2 MSTORE POP SWAP1 POP PUSH1 0x0 DUP1 PUSH1 0x0 SWAP1 SLOAD SWAP1 PUSH2 0x100 EXP SWAP1 DIV PUSH20 0xFFFFFFFFFFFFFFFFFFFFFFFFFFFFFFFFFFFFFFFF AND PUSH20 0xFFFFFFFFFFFFFFFFFFFFFFFFFFFFFFFFFFFFFFFF AND PUSH4 0x20487DED PUSH1 0x1 PUSH1 0x14 SWAP1 SLOAD SWAP1 PUSH2 0x100 EXP SWAP1 DIV PUSH8 0xFFFFFFFFFFFFFFFF AND DUP5 PUSH1 0x40 MLOAD DUP4 PUSH4 0xFFFFFFFF AND PUSH1 0xE0 SHL DUP2 MSTORE PUSH1 0x4 ADD PUSH2 0x41A SWAP3 SWAP2 SWAP1 PUSH2 0xEB9 JUMP JUMPDEST PUSH1 0x20 PUSH1 0x40 MLOAD DUP1 DUP4 SUB DUP2 DUP7 GAS STATICCALL ISZERO DUP1 ISZERO PUSH2 0x437 JUMPI RETURNDATASIZE PUSH1 0x0 DUP1 RETURNDATACOPY RETURNDATASIZE PUSH1 0x0 REVERT JUMPDEST POP POP POP POP PUSH1 0x40 MLOAD RETURNDATASIZE PUSH1 0x1F NOT PUSH1 0x1F DUP3 ADD AND DUP3 ADD DUP1 PUSH1 0x40 MSTORE POP DUP2 ADD SWAP1 PUSH2 0x45B SWAP2 SWAP1 PUSH2 0xF15 JUMP JUMPDEST SWAP1 POP PUSH1 0x1 PUSH1 0x0 SWAP1 SLOAD SWAP1 PUSH2 0x100 EXP SWAP1 DIV PUSH20 0xFFFFFFFFFFFFFFFFFFFFFFFFFFFFFFFFFFFFFFFF AND PUSH20 0xFFFFFFFFFFFFFFFFFFFFFFFFFFFFFFFFFFFFFFFF AND PUSH4 0x70A08231 ADDRESS PUSH1 0x40 MLOAD DUP3 PUSH4 0xFFFFFFFF AND PUSH1 0xE0 SHL DUP2 MSTORE PUSH1 0x4 ADD PUSH2 0x4B8 SWAP2 SWAP1 PUSH2 0xA61 JUMP JUMPDEST PUSH1 0x20 PUSH1 0x40 MLOAD DUP1 DUP4 SUB DUP2 DUP7 GAS STATICCALL ISZERO DUP1 ISZERO PUSH2 0x4D5 JUMPI RETURNDATASIZE PUSH1 0x0 DUP1 RETURNDATACOPY RETURNDATASIZE PUSH1 0x0 REVERT JUMPDEST POP POP POP POP PUSH1 0x40 MLOAD RETURNDATASIZE PUSH1 0x1F NOT PUSH1 0x1F DUP3 ADD AND DUP3 ADD DUP1 PUSH1 0x40 MSTORE POP DUP2 ADD SWAP1 PUSH2 0x4F9 SWAP2 SWAP1 PUSH2 0xF15 JUMP JUMPDEST DUP2 GT ISZERO PUSH2 0x5DA JUMPI PUSH1 0x1 PUSH1 0x0 SWAP1 SLOAD SWAP1 PUSH2 0x100 EXP SWAP1 DIV PUSH20 0xFFFFFFFFFFFFFFFFFFFFFFFFFFFFFFFFFFFFFFFF AND PUSH20 0xFFFFFFFFFFFFFFFFFFFFFFFFFFFFFFFFFFFFFFFF AND PUSH4 0x70A08231 ADDRESS PUSH1 0x40 MLOAD DUP3 PUSH4 0xFFFFFFFF AND PUSH1 0xE0 SHL DUP2 MSTORE PUSH1 0x4 ADD PUSH2 0x55B SWAP2 SWAP1 PUSH2 0xA61 JUMP JUMPDEST PUSH1 0x20 PUSH1 0x40 MLOAD DUP1 DUP4 SUB DUP2 DUP7 GAS STATICCALL ISZERO DUP1 ISZERO PUSH2 0x578 JUMPI RETURNDATASIZE PUSH1 0x0 DUP1 RETURNDATACOPY RETURNDATASIZE PUSH1 0x0 REVERT JUMPDEST POP POP POP POP PUSH1 0x40 MLOAD RETURNDATASIZE PUSH1 0x1F NOT PUSH1 0x1F DUP3 ADD AND DUP3 ADD DUP1 PUSH1 0x40 MSTORE POP DUP2 ADD SWAP1 PUSH2 0x59C SWAP2 SWAP1 PUSH2 0xF15 JUMP JUMPDEST DUP2 PUSH1 0x40 MLOAD PUSH32 0x8F0F420600000000000000000000000000000000000000000000000000000000 DUP2 MSTORE PUSH1 0x4 ADD PUSH2 0x5D1 SWAP3 SWAP2 SWAP1 PUSH2 0xF42 JUMP JUMPDEST PUSH1 0x40 MLOAD DUP1 SWAP2 SUB SWAP1 REVERT JUMPDEST PUSH1 0x0 DUP1 PUSH1 0x0 SWAP1 SLOAD SWAP1 PUSH2 0x100 EXP SWAP1 DIV PUSH20 0xFFFFFFFFFFFFFFFFFFFFFFFFFFFFFFFFFFFFFFFF AND PUSH20 0xFFFFFFFFFFFFFFFFFFFFFFFFFFFFFFFFFFFFFFFF AND PUSH4 0x96F4E9F9 PUSH1 0x1 PUSH1 0x14 SWAP1 SLOAD SWAP1 PUSH2 0x100 EXP SWAP1 DIV PUSH8 0xFFFFFFFFFFFFFFFF AND DUP6 PUSH1 0x40 MLOAD DUP4 PUSH4 0xFFFFFFFF AND PUSH1 0xE0 SHL DUP2 MSTORE PUSH1 0x4 ADD PUSH2 0x64E SWAP3 SWAP2 SWAP1 PUSH2 0xEB9 JUMP JUMPDEST PUSH1 0x20 PUSH1 0x40 MLOAD DUP1 DUP4 SUB DUP2 PUSH1 0x0 DUP8 GAS CALL ISZERO DUP1 ISZERO PUSH2 0x66D JUMPI RETURNDATASIZE PUSH1 0x0 DUP1 RETURNDATACOPY RETURNDATASIZE PUSH1 0x0 REVERT JUMPDEST POP POP POP POP PUSH1 0x40 MLOAD RETURNDATASIZE PUSH1 0x1F NOT PUSH1 0x1F DUP3 ADD AND DUP3 ADD DUP1 PUSH1 0x40 MSTORE POP DUP2 ADD SWAP1 PUSH2 0x691 SWAP2 SWAP1 PUSH2 0xFA1 JUMP JUMPDEST SWAP1 POP PUSH32 0x54791B38F3859327992A1CA0590AD3C0F08FEBA98D1A4F56AB0DCA74D203392A DUP2 PUSH1 0x40 MLOAD PUSH2 0x6C2 SWAP2 SWAP1 PUSH2 0xFDD JUMP JUMPDEST PUSH1 0x40 MLOAD DUP1 SWAP2 SUB SWAP1 LOG1 POP POP POP JUMP JUMPDEST PUSH1 0x0 PUSH1 0x1 PUSH1 0x0 SWAP1 SLOAD SWAP1 PUSH2 0x100 EXP SWAP1 DIV PUSH20 0xFFFFFFFFFFFFFFFFFFFFFFFFFFFFFFFFFFFFFFFF AND PUSH20 0xFFFFFFFFFFFFFFFFFFFFFFFFFFFFFFFFFFFFFFFF AND PUSH4 0x70A08231 DUP4 PUSH1 0x40 MLOAD DUP3 PUSH4 0xFFFFFFFF AND PUSH1 0xE0 SHL DUP2 MSTORE PUSH1 0x4 ADD PUSH2 0x72C SWAP2 SWAP1 PUSH2 0xA61 JUMP JUMPDEST PUSH1 0x20 PUSH1 0x40 MLOAD DUP1 DUP4 SUB DUP2 DUP7 GAS STATICCALL ISZERO DUP1 ISZERO PUSH2 0x749 JUMPI RETURNDATASIZE PUSH1 0x0 DUP1 RETURNDATACOPY RETURNDATASIZE PUSH1 0x0 REVERT JUMPDEST POP POP POP POP PUSH1 0x40 MLOAD RETURNDATASIZE PUSH1 0x1F NOT PUSH1 0x1F DUP3 ADD AND DUP3 ADD DUP1 PUSH1 0x40 MSTORE POP DUP2 ADD SWAP1 PUSH2 0x76D SWAP2 SWAP1 PUSH2 0xF15 JUMP JUMPDEST SWAP1 POP SWAP2 SWAP1 POP JUMP JUMPDEST PUSH1 0x2 PUSH1 0x0 SWAP1 SLOAD SWAP1 PUSH2 0x100 EXP SWAP1 DIV PUSH20 0xFFFFFFFFFFFFFFFFFFFFFFFFFFFFFFFFFFFFFFFF AND PUSH20 0xFFFFFFFFFFFFFFFFFFFFFFFFFFFFFFFFFFFFFFFF AND CALLER PUSH20 0xFFFFFFFFFFFFFFFFFFFFFFFFFFFFFFFFFFFFFFFF AND EQ PUSH2 0x7CE JUMPI PUSH1 0x0 DUP1 REVERT JUMPDEST PUSH1 0x0 PUSH1 0x1 PUSH1 0x0 SWAP1 SLOAD SWAP1 PUSH2 0x100 EXP SWAP1 DIV PUSH20 0xFFFFFFFFFFFFFFFFFFFFFFFFFFFFFFFFFFFFFFFF AND PUSH20 0xFFFFFFFFFFFFFFFFFFFFFFFFFFFFFFFFFFFFFFFF AND PUSH4 0x70A08231 ADDRESS PUSH1 0x40 MLOAD DUP3 PUSH4 0xFFFFFFFF AND PUSH1 0xE0 SHL DUP2 MSTORE PUSH1 0x4 ADD PUSH2 0x82B SWAP2 SWAP1 PUSH2 0xA61 JUMP JUMPDEST PUSH1 0x20 PUSH1 0x40 MLOAD DUP1 DUP4 SUB DUP2 DUP7 GAS STATICCALL ISZERO DUP1 ISZERO PUSH2 0x848 JUMPI RETURNDATASIZE PUSH1 0x0 DUP1 RETURNDATACOPY RETURNDATASIZE PUSH1 0x0 REVERT JUMPDEST POP POP POP POP PUSH1 0x40 MLOAD RETURNDATASIZE PUSH1 0x1F NOT PUSH1 0x1F DUP3 ADD AND DUP3 ADD DUP1 PUSH1 0x40 MSTORE POP DUP2 ADD SWAP1 PUSH2 0x86C SWAP2 SWAP1 PUSH2 0xF15 JUMP JUMPDEST SWAP1 POP PUSH1 0x0 DUP2 SUB PUSH2 0x8A8 JUMPI PUSH1 0x40 MLOAD PUSH32 0xD0D04F6000000000000000000000000000000000000000000000000000000000 DUP2 MSTORE PUSH1 0x4 ADD PUSH1 0x40 MLOAD DUP1 SWAP2 SUB SWAP1 REVERT JUMPDEST PUSH1 0x1 PUSH1 0x0 SWAP1 SLOAD SWAP1 PUSH2 0x100 EXP SWAP1 DIV PUSH20 0xFFFFFFFFFFFFFFFFFFFFFFFFFFFFFFFFFFFFFFFF AND PUSH20 0xFFFFFFFFFFFFFFFFFFFFFFFFFFFFFFFFFFFFFFFF AND PUSH4 0xA9059CBB DUP4 DUP4 PUSH1 0x40 MLOAD DUP4 PUSH4 0xFFFFFFFF AND PUSH1 0xE0 SHL DUP2 MSTORE PUSH1 0x4 ADD PUSH2 0x905 SWAP3 SWAP2 SWAP1 PUSH2 0xFF8 JUMP JUMPDEST PUSH1 0x20 PUSH1 0x40 MLOAD DUP1 DUP4 SUB DUP2 PUSH1 0x0 DUP8 GAS CALL ISZERO DUP1 ISZERO PUSH2 0x924 JUMPI RETURNDATASIZE PUSH1 0x0 DUP1 RETURNDATACOPY RETURNDATASIZE PUSH1 0x0 REVERT JUMPDEST POP POP POP POP PUSH1 0x40 MLOAD RETURNDATASIZE PUSH1 0x1F NOT PUSH1 0x1F DUP3 ADD AND DUP3 ADD DUP1 PUSH1 0x40 MSTORE POP DUP2 ADD SWAP1 PUSH2 0x948 SWAP2 SWAP1 PUSH2 0x1059 JUMP JUMPDEST POP POP POP JUMP JUMPDEST PUSH1 0x0 DUP1 SLOAD SWAP1 PUSH2 0x100 EXP SWAP1 DIV PUSH20 0xFFFFFFFFFFFFFFFFFFFFFFFFFFFFFFFFFFFFFFFF AND DUP2 JUMP JUMPDEST PUSH1 0x60 PUSH4 0x97A657C9 PUSH1 0xE0 SHL DUP3 PUSH1 0x40 MLOAD PUSH1 0x24 ADD PUSH2 0x98C SWAP2 SWAP1 PUSH2 0x10A2 JUMP JUMPDEST PUSH1 0x40 MLOAD PUSH1 0x20 DUP2 DUP4 SUB SUB DUP2 MSTORE SWAP1 PUSH1 0x40 MSTORE SWAP1 PUSH28 0xFFFFFFFFFFFFFFFFFFFFFFFFFFFFFFFFFFFFFFFFFFFFFFFFFFFFFFFF NOT AND PUSH1 0x20 DUP3 ADD DUP1 MLOAD PUSH28 0xFFFFFFFFFFFFFFFFFFFFFFFFFFFFFFFFFFFFFFFFFFFFFFFFFFFFFFFF DUP4 DUP2 DUP4 AND OR DUP4 MSTORE POP POP POP POP SWAP1 POP SWAP2 SWAP1 POP JUMP JUMPDEST PUSH1 0x40 MLOAD DUP1 PUSH1 0x40 ADD PUSH1 0x40 MSTORE DUP1 PUSH1 0x0 PUSH20 0xFFFFFFFFFFFFFFFFFFFFFFFFFFFFFFFFFFFFFFFF AND DUP2 MSTORE PUSH1 0x20 ADD PUSH1 0x0 DUP2 MSTORE POP SWAP1 JUMP JUMPDEST PUSH1 0x0 PUSH20 0xFFFFFFFFFFFFFFFFFFFFFFFFFFFFFFFFFFFFFFFF DUP3 AND SWAP1 POP SWAP2 SWAP1 POP JUMP JUMPDEST PUSH1 0x0 PUSH2 0xA4B DUP3 PUSH2 0xA20 JUMP JUMPDEST SWAP1 POP SWAP2 SWAP1 POP JUMP JUMPDEST PUSH2 0xA5B DUP2 PUSH2 0xA40 JUMP JUMPDEST DUP3 MSTORE POP POP JUMP JUMPDEST PUSH1 0x0 PUSH1 0x20 DUP3 ADD SWAP1 POP PUSH2 0xA76 PUSH1 0x0 DUP4 ADD DUP5 PUSH2 0xA52 JUMP JUMPDEST SWAP3 SWAP2 POP POP JUMP JUMPDEST PUSH1 0x0 PUSH8 0xFFFFFFFFFFFFFFFF DUP3 AND SWAP1 POP SWAP2 SWAP1 POP JUMP JUMPDEST PUSH2 0xA99 DUP2 PUSH2 0xA7C JUMP JUMPDEST DUP3 MSTORE POP POP JUMP JUMPDEST PUSH1 0x0 PUSH1 0x20 DUP3 ADD SWAP1 POP PUSH2 0xAB4 PUSH1 0x0 DUP4 ADD DUP5 PUSH2 0xA90 JUMP JUMPDEST SWAP3 SWAP2 POP POP JUMP JUMPDEST PUSH1 0x0 DUP2 SWAP1 POP SWAP2 SWAP1 POP JUMP JUMPDEST PUSH1 0x0 PUSH2 0xADF PUSH2 0xADA PUSH2 0xAD5 DUP5 PUSH2 0xA20 JUMP JUMPDEST PUSH2 0xABA JUMP JUMPDEST PUSH2 0xA20 JUMP JUMPDEST SWAP1 POP SWAP2 SWAP1 POP JUMP JUMPDEST PUSH1 0x0 PUSH2 0xAF1 DUP3 PUSH2 0xAC4 JUMP JUMPDEST SWAP1 POP SWAP2 SWAP1 POP JUMP JUMPDEST PUSH1 0x0 PUSH2 0xB03 DUP3 PUSH2 0xAE6 JUMP JUMPDEST SWAP1 POP SWAP2 SWAP1 POP JUMP JUMPDEST PUSH2 0xB13 DUP2 PUSH2 0xAF8 JUMP JUMPDEST DUP3 MSTORE POP POP JUMP JUMPDEST PUSH1 0x0 PUSH1 0x20 DUP3 ADD SWAP1 POP PUSH2 0xB2E PUSH1 0x0 DUP4 ADD DUP5 PUSH2 0xB0A JUMP JUMPDEST SWAP3 SWAP2 POP POP JUMP JUMPDEST PUSH1 0x0 DUP1 REVERT JUMPDEST PUSH2 0xB42 DUP2 PUSH2 0xA40 JUMP JUMPDEST DUP2 EQ PUSH2 0xB4D JUMPI PUSH1 0x0 DUP1 REVERT JUMPDEST POP JUMP JUMPDEST PUSH1 0x0 DUP2 CALLDATALOAD SWAP1 POP PUSH2 0xB5F DUP2 PUSH2 0xB39 JUMP JUMPDEST SWAP3 SWAP2 POP POP JUMP JUMPDEST PUSH1 0x0 PUSH1 0x20 DUP3 DUP5 SUB SLT ISZERO PUSH2 0xB7B JUMPI PUSH2 0xB7A PUSH2 0xB34 JUMP JUMPDEST JUMPDEST PUSH1 0x0 PUSH2 0xB89 DUP5 DUP3 DUP6 ADD PUSH2 0xB50 JUMP JUMPDEST SWAP2 POP POP SWAP3 SWAP2 POP POP JUMP JUMPDEST PUSH1 0x0 DUP2 SWAP1 POP SWAP2 SWAP1 POP JUMP JUMPDEST PUSH2 0xBA5 DUP2 PUSH2 0xB92 JUMP JUMPDEST DUP3 MSTORE POP POP JUMP JUMPDEST PUSH1 0x0 PUSH1 0x20 DUP3 ADD SWAP1 POP PUSH2 0xBC0 PUSH1 0x0 DUP4 ADD DUP5 PUSH2 0xB9C JUMP JUMPDEST SWAP3 SWAP2 POP POP JUMP JUMPDEST PUSH1 0x0 PUSH2 0xBD1 DUP3 PUSH2 0xAE6 JUMP JUMPDEST SWAP1 POP SWAP2 SWAP1 POP JUMP JUMPDEST PUSH2 0xBE1 DUP2 PUSH2 0xBC6 JUMP JUMPDEST DUP3 MSTORE POP POP JUMP JUMPDEST PUSH1 0x0 PUSH1 0x20 DUP3 ADD SWAP1 POP PUSH2 0xBFC PUSH1 0x0 DUP4 ADD DUP5 PUSH2 0xBD8 JUMP JUMPDEST SWAP3 SWAP2 POP POP JUMP JUMPDEST PUSH1 0x0 DUP2 SWAP1 POP SWAP2 SWAP1 POP JUMP JUMPDEST PUSH1 0x0 PUSH1 0xFF DUP3 AND SWAP1 POP SWAP2 SWAP1 POP JUMP JUMPDEST PUSH1 0x0 PUSH2 0xC34 PUSH2 0xC2F PUSH2 0xC2A DUP5 PUSH2 0xC02 JUMP JUMPDEST PUSH2 0xABA JUMP JUMPDEST PUSH2 0xC0C JUMP JUMPDEST SWAP1 POP SWAP2 SWAP1 POP JUMP JUMPDEST PUSH2 0xC44 DUP2 PUSH2 0xC19 JUMP JUMPDEST DUP3 MSTORE POP POP JUMP JUMPDEST PUSH1 0x0 PUSH1 0x40 DUP3 ADD SWAP1 POP PUSH2 0xC5F PUSH1 0x0 DUP4 ADD DUP6 PUSH2 0xA52 JUMP JUMPDEST PUSH2 0xC6C PUSH1 0x20 DUP4 ADD DUP5 PUSH2 0xC3B JUMP JUMPDEST SWAP4 SWAP3 POP POP POP JUMP JUMPDEST PUSH32 0x4E487B7100000000000000000000000000000000000000000000000000000000 PUSH1 0x0 MSTORE PUSH1 0x41 PUSH1 0x4 MSTORE PUSH1 0x24 PUSH1 0x0 REVERT JUMPDEST PUSH1 0x0 DUP2 MLOAD SWAP1 POP SWAP2 SWAP1 POP JUMP JUMPDEST PUSH1 0x0 DUP3 DUP3 MSTORE PUSH1 0x20 DUP3 ADD SWAP1 POP SWAP3 SWAP2 POP POP JUMP JUMPDEST PUSH1 0x0 JUMPDEST DUP4 DUP2 LT ISZERO PUSH2 0xCDC JUMPI DUP1 DUP3 ADD MLOAD DUP2 DUP5 ADD MSTORE PUSH1 0x20 DUP2 ADD SWAP1 POP PUSH2 0xCC1 JUMP JUMPDEST PUSH1 0x0 DUP5 DUP5 ADD MSTORE POP POP POP POP JUMP JUMPDEST PUSH1 0x0 PUSH1 0x1F NOT PUSH1 0x1F DUP4 ADD AND SWAP1 POP SWAP2 SWAP1 POP JUMP JUMPDEST PUSH1 0x0 PUSH2 0xD04 DUP3 PUSH2 0xCA2 JUMP JUMPDEST PUSH2 0xD0E DUP2 DUP6 PUSH2 0xCAD JUMP JUMPDEST SWAP4 POP PUSH2 0xD1E DUP2 DUP6 PUSH1 0x20 DUP7 ADD PUSH2 0xCBE JUMP JUMPDEST PUSH2 0xD27 DUP2 PUSH2 0xCE8 JUMP JUMPDEST DUP5 ADD SWAP2 POP POP SWAP3 SWAP2 POP POP JUMP JUMPDEST PUSH1 0x0 DUP2 MLOAD SWAP1 POP SWAP2 SWAP1 POP JUMP JUMPDEST PUSH1 0x0 DUP3 DUP3 MSTORE PUSH1 0x20 DUP3 ADD SWAP1 POP SWAP3 SWAP2 POP POP JUMP JUMPDEST PUSH1 0x0 DUP2 SWAP1 POP PUSH1 0x20 DUP3 ADD SWAP1 POP SWAP2 SWAP1 POP JUMP JUMPDEST PUSH2 0xD67 DUP2 PUSH2 0xA40 JUMP JUMPDEST DUP3 MSTORE POP POP JUMP JUMPDEST PUSH2 0xD76 DUP2 PUSH2 0xB92 JUMP JUMPDEST DUP3 MSTORE POP POP JUMP JUMPDEST PUSH1 0x40 DUP3 ADD PUSH1 0x0 DUP3 ADD MLOAD PUSH2 0xD92 PUSH1 0x0 DUP6 ADD DUP3 PUSH2 0xD5E JUMP JUMPDEST POP PUSH1 0x20 DUP3 ADD MLOAD PUSH2 0xDA5 PUSH1 0x20 DUP6 ADD DUP3 PUSH2 0xD6D JUMP JUMPDEST POP POP POP POP JUMP JUMPDEST PUSH1 0x0 PUSH2 0xDB7 DUP4 DUP4 PUSH2 0xD7C JUMP JUMPDEST PUSH1 0x40 DUP4 ADD SWAP1 POP SWAP3 SWAP2 POP POP JUMP JUMPDEST PUSH1 0x0 PUSH1 0x20 DUP3 ADD SWAP1 POP SWAP2 SWAP1 POP JUMP JUMPDEST PUSH1 0x0 PUSH2 0xDDB DUP3 PUSH2 0xD32 JUMP JUMPDEST PUSH2 0xDE5 DUP2 DUP6 PUSH2 0xD3D JUMP JUMPDEST SWAP4 POP PUSH2 0xDF0 DUP4 PUSH2 0xD4E JUMP JUMPDEST DUP1 PUSH1 0x0 JUMPDEST DUP4 DUP2 LT ISZERO PUSH2 0xE21 JUMPI DUP2 MLOAD PUSH2 0xE08 DUP9 DUP3 PUSH2 0xDAB JUMP JUMPDEST SWAP8 POP PUSH2 0xE13 DUP4 PUSH2 0xDC3 JUMP JUMPDEST SWAP3 POP POP PUSH1 0x1 DUP2 ADD SWAP1 POP PUSH2 0xDF4 JUMP JUMPDEST POP DUP6 SWAP4 POP POP POP POP SWAP3 SWAP2 POP POP JUMP JUMPDEST PUSH1 0x0 PUSH1 0xA0 DUP4 ADD PUSH1 0x0 DUP4 ADD MLOAD DUP5 DUP3 SUB PUSH1 0x0 DUP7 ADD MSTORE PUSH2 0xE4B DUP3 DUP3 PUSH2 0xCF9 JUMP JUMPDEST SWAP2 POP POP PUSH1 0x20 DUP4 ADD MLOAD DUP5 DUP3 SUB PUSH1 0x20 DUP7 ADD MSTORE PUSH2 0xE65 DUP3 DUP3 PUSH2 0xCF9 JUMP JUMPDEST SWAP2 POP POP PUSH1 0x40 DUP4 ADD MLOAD DUP5 DUP3 SUB PUSH1 0x40 DUP7 ADD MSTORE PUSH2 0xE7F DUP3 DUP3 PUSH2 0xDD0 JUMP JUMPDEST SWAP2 POP POP PUSH1 0x60 DUP4 ADD MLOAD PUSH2 0xE94 PUSH1 0x60 DUP7 ADD DUP3 PUSH2 0xD5E JUMP JUMPDEST POP PUSH1 0x80 DUP4 ADD MLOAD DUP5 DUP3 SUB PUSH1 0x80 DUP7 ADD MSTORE PUSH2 0xEAC DUP3 DUP3 PUSH2 0xCF9 JUMP JUMPDEST SWAP2 POP POP DUP1 SWAP2 POP POP SWAP3 SWAP2 POP POP JUMP JUMPDEST PUSH1 0x0 PUSH1 0x40 DUP3 ADD SWAP1 POP PUSH2 0xECE PUSH1 0x0 DUP4 ADD DUP6 PUSH2 0xA90 JUMP JUMPDEST DUP2 DUP2 SUB PUSH1 0x20 DUP4 ADD MSTORE PUSH2 0xEE0 DUP2 DUP5 PUSH2 0xE2E JUMP JUMPDEST SWAP1 POP SWAP4 SWAP3 POP POP POP JUMP JUMPDEST PUSH2 0xEF2 DUP2 PUSH2 0xB92 JUMP JUMPDEST DUP2 EQ PUSH2 0xEFD JUMPI PUSH1 0x0 DUP1 REVERT JUMPDEST POP JUMP JUMPDEST PUSH1 0x0 DUP2 MLOAD SWAP1 POP PUSH2 0xF0F DUP2 PUSH2 0xEE9 JUMP JUMPDEST SWAP3 SWAP2 POP POP JUMP JUMPDEST PUSH1 0x0 PUSH1 0x20 DUP3 DUP5 SUB SLT ISZERO PUSH2 0xF2B JUMPI PUSH2 0xF2A PUSH2 0xB34 JUMP JUMPDEST JUMPDEST PUSH1 0x0 PUSH2 0xF39 DUP5 DUP3 DUP6 ADD PUSH2 0xF00 JUMP JUMPDEST SWAP2 POP POP SWAP3 SWAP2 POP POP JUMP JUMPDEST PUSH1 0x0 PUSH1 0x40 DUP3 ADD SWAP1 POP PUSH2 0xF57 PUSH1 0x0 DUP4 ADD DUP6 PUSH2 0xB9C JUMP JUMPDEST PUSH2 0xF64 PUSH1 0x20 DUP4 ADD DUP5 PUSH2 0xB9C JUMP JUMPDEST SWAP4 SWAP3 POP POP POP JUMP JUMPDEST PUSH1 0x0 DUP2 SWAP1 POP SWAP2 SWAP1 POP JUMP JUMPDEST PUSH2 0xF7E DUP2 PUSH2 0xF6B JUMP JUMPDEST DUP2 EQ PUSH2 0xF89 JUMPI PUSH1 0x0 DUP1 REVERT JUMPDEST POP JUMP JUMPDEST PUSH1 0x0 DUP2 MLOAD SWAP1 POP PUSH2 0xF9B DUP2 PUSH2 0xF75 JUMP JUMPDEST SWAP3 SWAP2 POP POP JUMP JUMPDEST PUSH1 0x0 PUSH1 0x20 DUP3 DUP5 SUB SLT ISZERO PUSH2 0xFB7 JUMPI PUSH2 0xFB6 PUSH2 0xB34 JUMP JUMPDEST JUMPDEST PUSH1 0x0 PUSH2 0xFC5 DUP5 DUP3 DUP6 ADD PUSH2 0xF8C JUMP JUMPDEST SWAP2 POP POP SWAP3 SWAP2 POP POP JUMP JUMPDEST PUSH2 0xFD7 DUP2 PUSH2 0xF6B JUMP JUMPDEST DUP3 MSTORE POP POP JUMP JUMPDEST PUSH1 0x0 PUSH1 0x20 DUP3 ADD SWAP1 POP PUSH2 0xFF2 PUSH1 0x0 DUP4 ADD DUP5 PUSH2 0xFCE JUMP JUMPDEST SWAP3 SWAP2 POP POP JUMP JUMPDEST PUSH1 0x0 PUSH1 0x40 DUP3 ADD SWAP1 POP PUSH2 0x100D PUSH1 0x0 DUP4 ADD DUP6 PUSH2 0xA52 JUMP JUMPDEST PUSH2 0x101A PUSH1 0x20 DUP4 ADD DUP5 PUSH2 0xB9C JUMP JUMPDEST SWAP4 SWAP3 POP POP POP JUMP JUMPDEST PUSH1 0x0 DUP2 ISZERO ISZERO SWAP1 POP SWAP2 SWAP1 POP JUMP JUMPDEST PUSH2 0x1036 DUP2 PUSH2 0x1021 JUMP JUMPDEST DUP2 EQ PUSH2 0x1041 JUMPI PUSH1 0x0 DUP1 REVERT JUMPDEST POP JUMP JUMPDEST PUSH1 0x0 DUP2 MLOAD SWAP1 POP PUSH2 0x1053 DUP2 PUSH2 0x102D JUMP JUMPDEST SWAP3 SWAP2 POP POP JUMP JUMPDEST PUSH1 0x0 PUSH1 0x20 DUP3 DUP5 SUB SLT ISZERO PUSH2 0x106F JUMPI PUSH2 0x106E PUSH2 0xB34 JUMP JUMPDEST JUMPDEST PUSH1 0x0 PUSH2 0x107D DUP5 DUP3 DUP6 ADD PUSH2 0x1044 JUMP JUMPDEST SWAP2 POP POP SWAP3 SWAP2 POP POP JUMP JUMPDEST PUSH1 0x20 DUP3 ADD PUSH1 0x0 DUP3 ADD MLOAD PUSH2 0x109C PUSH1 0x0 DUP6 ADD DUP3 PUSH2 0xD6D JUMP JUMPDEST POP POP POP POP JUMP JUMPDEST PUSH1 0x0 PUSH1 0x20 DUP3 ADD SWAP1 POP PUSH2 0x10B7 PUSH1 0x0 DUP4 ADD DUP5 PUSH2 0x1086 JUMP JUMPDEST SWAP3 SWAP2 POP POP JUMP INVALID LOG2 PUSH5 0x6970667358 0x22 SLT KECCAK256 LOG4 XOR SIGNEXTEND 0xB8 0x2D PUSH3 0xDD53B9 SWAP6 0xC5 PUSH15 0x72C41B33F0C6B75B70C3B93330463F 0xCF ORIGIN 0xB5 0x22 0x4F PUSH5 0x736F6C6343 STOP ADDMOD SGT STOP CALLER "
				},
				"gasEstimates": {
					"creation": {
						"codeDepositCost": "867800",
						"executionCost": "infinite",
						"totalCost": "infinite"
					},
					"external": {
						"destinationChainSelector()": "2544",
						"destinationMinter()": "2515",
						"linkBalance(address)": "infinite",
						"linkToken()": "infinite",
						"mintOnSepolia()": "infinite",
						"owner()": "2581",
						"router()": "infinite",
						"withdrawLINK(address)": "infinite"
					}
				},
				"methodIdentifiers": {
					"destinationChainSelector()": "31db1ffc",
					"destinationMinter()": "1a8af8d5",
					"linkBalance(address)": "b13f2552",
					"linkToken()": "57970e93",
					"mintOnSepolia()": "a225149b",
					"owner()": "8da5cb5b",
					"router()": "f887ea40",
					"withdrawLINK(address)": "bf384e10"
				}
			},
			"storageLayout": {
				"storage": [
					{
						"astId": 235,
						"contract": "CrossSourceMinter.sol:CrossSourceMinter",
						"label": "router",
						"offset": 0,
						"slot": "0",
						"type": "t_contract(IRouterClient)42"
					},
					{
						"astId": 238,
						"contract": "CrossSourceMinter.sol:CrossSourceMinter",
						"label": "linkToken",
						"offset": 0,
						"slot": "1",
						"type": "t_contract(LinkTokenInterface)215"
					},
					{
						"astId": 240,
						"contract": "CrossSourceMinter.sol:CrossSourceMinter",
						"label": "destinationChainSelector",
						"offset": 20,
						"slot": "1",
						"type": "t_uint64"
					},
					{
						"astId": 242,
						"contract": "CrossSourceMinter.sol:CrossSourceMinter",
						"label": "owner",
						"offset": 0,
						"slot": "2",
						"type": "t_address"
					},
					{
						"astId": 244,
						"contract": "CrossSourceMinter.sol:CrossSourceMinter",
						"label": "destinationMinter",
						"offset": 0,
						"slot": "3",
						"type": "t_address"
					}
				],
				"types": {
					"t_address": {
						"encoding": "inplace",
						"label": "address",
						"numberOfBytes": "20"
					},
					"t_contract(IRouterClient)42": {
						"encoding": "inplace",
						"label": "contract IRouterClient",
						"numberOfBytes": "20"
					},
					"t_contract(LinkTokenInterface)215": {
						"encoding": "inplace",
						"label": "contract LinkTokenInterface",
						"numberOfBytes": "20"
					},
					"t_uint64": {
						"encoding": "inplace",
						"label": "uint64",
						"numberOfBytes": "8"
					}
				}
			},
			"userdoc": {
				"kind": "user",
				"methods": {},
				"notice": "THIS IS AN EXAMPLE CONTRACT THAT USES HARDCODED VALUES FOR CLARITY. THIS IS AN EXAMPLE CONTRACT THAT USES UN-AUDITED CODE. DO NOT USE THIS CODE IN PRODUCTION.",
				"version": 1
			}
		}
	}
}