{
	"CrossDestinationMinter.sol": {
		"CrossDestinationMinter": {
			"abi": [
				{
					"inputs": [
						{
							"internalType": "address",
							"name": "nftAddress",
							"type": "address"
						}
					],
					"stateMutability": "nonpayable",
					"type": "constructor"
				},
				{
					"inputs": [
						{
							"internalType": "address",
							"name": "router",
							"type": "address"
						}
					],
					"name": "InvalidRouter",
					"type": "error"
				},
				{
					"anonymous": false,
					"inputs": [],
					"name": "MintCallSuccessfull",
					"type": "event"
				},
				{
					"inputs": [
						{
							"components": [
								{
									"internalType": "bytes32",
									"name": "messageId",
									"type": "bytes32"
								},
								{
									"internalType": "uint64",
									"name": "sourceChainSelector",
									"type": "uint64"
								},
								{
									"internalType": "bytes",
									"name": "sender",
									"type": "bytes"
								},
								{
									"internalType": "bytes",
									"name": "data",
									"type": "bytes"
								},
								{
									"components": [
										{
											"internalType": "address",
											"name": "token",
											"type": "address"
										},
										{
											"internalType": "uint256",
											"name": "amount",
											"type": "uint256"
										}
									],
									"internalType": "struct Client.EVMTokenAmount[]",
									"name": "destTokenAmounts",
									"type": "tuple[]"
								}
							],
							"internalType": "struct Client.Any2EVMMessage",
							"name": "message",
							"type": "tuple"
						}
					],
					"name": "ccipReceive",
					"outputs": [],
					"stateMutability": "nonpayable",
					"type": "function"
				},
				{
					"inputs": [],
					"name": "getRouter",
					"outputs": [
						{
							"internalType": "address",
							"name": "",
							"type": "address"
						}
					],
					"stateMutability": "view",
					"type": "function"
				},
				{
					"inputs": [],
					"name": "nft",
					"outputs": [
						{
							"internalType": "contract InftMinter",
							"name": "",
							"type": "address"
						}
					],
					"stateMutability": "view",
					"type": "function"
				},
				{
					"inputs": [
						{
							"internalType": "bytes4",
							"name": "interfaceId",
							"type": "bytes4"
						}
					],
					"name": "supportsInterface",
					"outputs": [
						{
							"internalType": "bool",
							"name": "",
							"type": "bool"
						}
					],
					"stateMutability": "view",
					"type": "function"
				},
				{
					"inputs": [],
					"name": "testMessage",
					"outputs": [],
					"stateMutability": "nonpayable",
					"type": "function"
				},
				{
					"inputs": [],
					"name": "testMint",
					"outputs": [],
					"stateMutability": "nonpayable",
					"type": "function"
				},
				{
					"inputs": [
						{
							"internalType": "address",
							"name": "nftAddress",
							"type": "address"
						}
					],
					"name": "updateNFT",
					"outputs": [],
					"stateMutability": "nonpayable",
					"type": "function"
				}
			],
			"devdoc": {
				"kind": "dev",
				"methods": {
					"ccipReceive((bytes32,uint64,bytes,bytes,(address,uint256)[]))": {
						"details": "Note ensure you check the msg.sender is the OffRampRouter",
						"params": {
							"message": "CCIP Message"
						}
					},
					"getRouter()": {
						"returns": {
							"_0": "CCIP router address"
						}
					},
					"supportsInterface(bytes4)": {
						"details": "Should indicate whether the contract implements IAny2EVMMessageReceiver e.g. return interfaceId == type(IAny2EVMMessageReceiver).interfaceId || interfaceId == type(IERC165).interfaceId This allows CCIP to check if ccipReceive is available before calling it. If this returns false or reverts, only tokens are transferred to the receiver. If this returns true, tokens are transferred and ccipReceive is called atomically. Additionally, if the receiver address does not have code associated with it at the time of execution (EXTCODESIZE returns 0), only tokens will be transferred.",
						"params": {
							"interfaceId": "The interfaceId to check"
						},
						"returns": {
							"_0": "true if the interfaceId is supported"
						}
					}
				},
				"version": 1
			},
			"evm": {
				"assembly": "    /* \"CrossDestinationMinter.sol\":549:1650  contract CrossDestinationMinter is CCIPReceiver {... */\n  mstore(0x40, 0xa0)\n    /* \"CrossDestinationMinter.sol\":751:793  0x0BF3dE8c5D3e8A2B34D2BEeB17ABfCeBaf363A59 */\n  0x0bf3de8c5d3e8a2b34d2beeb17abfcebaf363a59\n    /* \"CrossDestinationMinter.sol\":727:793  address routerSepolia = 0x0BF3dE8c5D3e8A2B34D2BEeB17ABfCeBaf363A59 */\n  0x01\n  exp(0x0100, 0x00)\n  dup2\n  sload\n  dup2\n  0xffffffffffffffffffffffffffffffffffffffff\n  mul\n  not\n  and\n  swap1\n  dup4\n  0xffffffffffffffffffffffffffffffffffffffff\n  and\n  mul\n  or\n  swap1\n  sstore\n  pop\n    /* \"CrossDestinationMinter.sol\":800:905  constructor(address nftAddress) CCIPReceiver(routerSepolia) {... */\n  callvalue\n  dup1\n  iszero\n  tag_1\n  jumpi\n  0x00\n  dup1\n  revert\ntag_1:\n  pop\n  mload(0x40)\n  sub(codesize, bytecodeSize)\n  dup1\n  bytecodeSize\n  dup4\n  codecopy\n  dup2\n  dup2\n  add\n  0x40\n  mstore\n  dup2\n  add\n  swap1\n  tag_2\n  swap2\n  swap1\n  tag_3\n  jump\t// in\ntag_2:\n    /* \"CrossDestinationMinter.sol\":845:858  routerSepolia */\n  0x01\n  0x00\n  swap1\n  sload\n  swap1\n  0x0100\n  exp\n  swap1\n  div\n  0xffffffffffffffffffffffffffffffffffffffff\n  and\n    /* \"@chainlink/contracts-ccip/src/v0.8/ccip/applications/CCIPReceiver.sol\":560:561  0 */\n  0x00\n    /* \"@chainlink/contracts-ccip/src/v0.8/ccip/applications/CCIPReceiver.sol\":542:562  router == address(0) */\n  0xffffffffffffffffffffffffffffffffffffffff\n  and\n    /* \"@chainlink/contracts-ccip/src/v0.8/ccip/applications/CCIPReceiver.sol\":542:548  router */\n  dup2\n    /* \"@chainlink/contracts-ccip/src/v0.8/ccip/applications/CCIPReceiver.sol\":542:562  router == address(0) */\n  0xffffffffffffffffffffffffffffffffffffffff\n  and\n  sub\n    /* \"@chainlink/contracts-ccip/src/v0.8/ccip/applications/CCIPReceiver.sol\":538:596  if (router == address(0)) revert InvalidRouter(address(0)) */\n  tag_7\n  jumpi\n    /* \"@chainlink/contracts-ccip/src/v0.8/ccip/applications/CCIPReceiver.sol\":593:594  0 */\n  0x00\n    /* \"@chainlink/contracts-ccip/src/v0.8/ccip/applications/CCIPReceiver.sol\":571:596  InvalidRouter(address(0)) */\n  mload(0x40)\n  0xd7f7333400000000000000000000000000000000000000000000000000000000\n  dup2\n  mstore\n  0x04\n  add\n  tag_8\n  swap2\n  swap1\n  tag_9\n  jump\t// in\ntag_8:\n  mload(0x40)\n  dup1\n  swap2\n  sub\n  swap1\n  revert\n    /* \"@chainlink/contracts-ccip/src/v0.8/ccip/applications/CCIPReceiver.sol\":538:596  if (router == address(0)) revert InvalidRouter(address(0)) */\ntag_7:\n    /* \"@chainlink/contracts-ccip/src/v0.8/ccip/applications/CCIPReceiver.sol\":617:623  router */\n  dup1\n    /* \"@chainlink/contracts-ccip/src/v0.8/ccip/applications/CCIPReceiver.sol\":602:623  i_ccipRouter = router */\n  0xffffffffffffffffffffffffffffffffffffffff\n  and\n  0x80\n  dup2\n  0xffffffffffffffffffffffffffffffffffffffff\n  and\n  dup2\n  mstore\n  pop\n  pop\n    /* \"@chainlink/contracts-ccip/src/v0.8/ccip/applications/CCIPReceiver.sol\":504:628  constructor(address router) {... */\n  pop\n    /* \"CrossDestinationMinter.sol\":887:897  nftAddress */\n  dup1\n    /* \"CrossDestinationMinter.sol\":870:873  nft */\n  0x00\n  dup1\n    /* \"CrossDestinationMinter.sol\":870:898  nft = InftMinter(nftAddress) */\n  0x0100\n  exp\n  dup2\n  sload\n  dup2\n  0xffffffffffffffffffffffffffffffffffffffff\n  mul\n  not\n  and\n  swap1\n  dup4\n  0xffffffffffffffffffffffffffffffffffffffff\n  and\n  mul\n  or\n  swap1\n  sstore\n  pop\n    /* \"CrossDestinationMinter.sol\":800:905  constructor(address nftAddress) CCIPReceiver(routerSepolia) {... */\n  pop\n    /* \"CrossDestinationMinter.sol\":549:1650  contract CrossDestinationMinter is CCIPReceiver {... */\n  jump(tag_11)\n    /* \"#utility.yul\":88:205   */\ntag_13:\n    /* \"#utility.yul\":197:198   */\n  0x00\n    /* \"#utility.yul\":194:195   */\n  dup1\n    /* \"#utility.yul\":187:199   */\n  revert\n    /* \"#utility.yul\":334:460   */\ntag_15:\n    /* \"#utility.yul\":371:378   */\n  0x00\n    /* \"#utility.yul\":411:453   */\n  0xffffffffffffffffffffffffffffffffffffffff\n    /* \"#utility.yul\":404:409   */\n  dup3\n    /* \"#utility.yul\":400:454   */\n  and\n    /* \"#utility.yul\":389:454   */\n  swap1\n  pop\n    /* \"#utility.yul\":334:460   */\n  swap2\n  swap1\n  pop\n  jump\t// out\n    /* \"#utility.yul\":466:562   */\ntag_16:\n    /* \"#utility.yul\":503:510   */\n  0x00\n    /* \"#utility.yul\":532:556   */\n  tag_26\n    /* \"#utility.yul\":550:555   */\n  dup3\n    /* \"#utility.yul\":532:556   */\n  tag_15\n  jump\t// in\ntag_26:\n    /* \"#utility.yul\":521:556   */\n  swap1\n  pop\n    /* \"#utility.yul\":466:562   */\n  swap2\n  swap1\n  pop\n  jump\t// out\n    /* \"#utility.yul\":568:690   */\ntag_17:\n    /* \"#utility.yul\":641:665   */\n  tag_28\n    /* \"#utility.yul\":659:664   */\n  dup2\n    /* \"#utility.yul\":641:665   */\n  tag_16\n  jump\t// in\ntag_28:\n    /* \"#utility.yul\":634:639   */\n  dup2\n    /* \"#utility.yul\":631:666   */\n  eq\n    /* \"#utility.yul\":621:684   */\n  tag_29\n  jumpi\n    /* \"#utility.yul\":680:681   */\n  0x00\n    /* \"#utility.yul\":677:678   */\n  dup1\n    /* \"#utility.yul\":670:682   */\n  revert\n    /* \"#utility.yul\":621:684   */\ntag_29:\n    /* \"#utility.yul\":568:690   */\n  pop\n  jump\t// out\n    /* \"#utility.yul\":696:839   */\ntag_18:\n    /* \"#utility.yul\":753:758   */\n  0x00\n    /* \"#utility.yul\":784:790   */\n  dup2\n    /* \"#utility.yul\":778:791   */\n  mload\n    /* \"#utility.yul\":769:791   */\n  swap1\n  pop\n    /* \"#utility.yul\":800:833   */\n  tag_31\n    /* \"#utility.yul\":827:832   */\n  dup2\n    /* \"#utility.yul\":800:833   */\n  tag_17\n  jump\t// in\ntag_31:\n    /* \"#utility.yul\":696:839   */\n  swap3\n  swap2\n  pop\n  pop\n  jump\t// out\n    /* \"#utility.yul\":845:1196   */\ntag_3:\n    /* \"#utility.yul\":915:921   */\n  0x00\n    /* \"#utility.yul\":964:966   */\n  0x20\n    /* \"#utility.yul\":952:961   */\n  dup3\n    /* \"#utility.yul\":943:950   */\n  dup5\n    /* \"#utility.yul\":939:962   */\n  sub\n    /* \"#utility.yul\":935:967   */\n  slt\n    /* \"#utility.yul\":932:1051   */\n  iszero\n  tag_33\n  jumpi\n    /* \"#utility.yul\":970:1049   */\n  tag_34\n  tag_13\n  jump\t// in\ntag_34:\n    /* \"#utility.yul\":932:1051   */\ntag_33:\n    /* \"#utility.yul\":1090:1091   */\n  0x00\n    /* \"#utility.yul\":1115:1179   */\n  tag_35\n    /* \"#utility.yul\":1171:1178   */\n  dup5\n    /* \"#utility.yul\":1162:1168   */\n  dup3\n    /* \"#utility.yul\":1151:1160   */\n  dup6\n    /* \"#utility.yul\":1147:1169   */\n  add\n    /* \"#utility.yul\":1115:1179   */\n  tag_18\n  jump\t// in\ntag_35:\n    /* \"#utility.yul\":1105:1179   */\n  swap2\n  pop\n    /* \"#utility.yul\":1061:1189   */\n  pop\n    /* \"#utility.yul\":845:1196   */\n  swap3\n  swap2\n  pop\n  pop\n  jump\t// out\n    /* \"#utility.yul\":1202:1320   */\ntag_19:\n    /* \"#utility.yul\":1289:1313   */\n  tag_37\n    /* \"#utility.yul\":1307:1312   */\n  dup2\n    /* \"#utility.yul\":1289:1313   */\n  tag_16\n  jump\t// in\ntag_37:\n    /* \"#utility.yul\":1284:1287   */\n  dup3\n    /* \"#utility.yul\":1277:1314   */\n  mstore\n    /* \"#utility.yul\":1202:1320   */\n  pop\n  pop\n  jump\t// out\n    /* \"#utility.yul\":1326:1548   */\ntag_9:\n    /* \"#utility.yul\":1419:1423   */\n  0x00\n    /* \"#utility.yul\":1457:1459   */\n  0x20\n    /* \"#utility.yul\":1446:1455   */\n  dup3\n    /* \"#utility.yul\":1442:1460   */\n  add\n    /* \"#utility.yul\":1434:1460   */\n  swap1\n  pop\n    /* \"#utility.yul\":1470:1541   */\n  tag_39\n    /* \"#utility.yul\":1538:1539   */\n  0x00\n    /* \"#utility.yul\":1527:1536   */\n  dup4\n    /* \"#utility.yul\":1523:1540   */\n  add\n    /* \"#utility.yul\":1514:1520   */\n  dup5\n    /* \"#utility.yul\":1470:1541   */\n  tag_19\n  jump\t// in\ntag_39:\n    /* \"#utility.yul\":1326:1548   */\n  swap3\n  swap2\n  pop\n  pop\n  jump\t// out\n    /* \"CrossDestinationMinter.sol\":549:1650  contract CrossDestinationMinter is CCIPReceiver {... */\ntag_11:\n  mload(0x80)\n  codecopy(0x00, dataOffset(sub_0), dataSize(sub_0))\n  0x00\n  assignImmutable(\"0x5c4c6aa067b6f8e6cb38e6ab843832a94d1712d661a04d73c517d6a1931a9e5d\")\n  return(0x00, dataSize(sub_0))\nstop\n\nsub_0: assembly {\n        /* \"CrossDestinationMinter.sol\":549:1650  contract CrossDestinationMinter is CCIPReceiver {... */\n      mstore(0x40, 0x80)\n      callvalue\n      dup1\n      iszero\n      tag_1\n      jumpi\n      0x00\n      dup1\n      revert\n    tag_1:\n      pop\n      jumpi(tag_2, lt(calldatasize, 0x04))\n      shr(0xe0, calldataload(0x00))\n      dup1\n      0x5be68e93\n      gt\n      tag_10\n      jumpi\n      dup1\n      0x5be68e93\n      eq\n      tag_6\n      jumpi\n      dup1\n      0x85572ffb\n      eq\n      tag_7\n      jumpi\n      dup1\n      0x9642ddaf\n      eq\n      tag_8\n      jumpi\n      dup1\n      0xb0f479a1\n      eq\n      tag_9\n      jumpi\n      jump(tag_2)\n    tag_10:\n      dup1\n      0x01ffc9a7\n      eq\n      tag_3\n      jumpi\n      dup1\n      0x08076601\n      eq\n      tag_4\n      jumpi\n      dup1\n      0x47ccca02\n      eq\n      tag_5\n      jumpi\n    tag_2:\n      0x00\n      dup1\n      revert\n        /* \"@chainlink/contracts-ccip/src/v0.8/ccip/applications/CCIPReceiver.sol\":1405:1614  function supportsInterface(bytes4 interfaceId) public view virtual override returns (bool) {... */\n    tag_3:\n      tag_11\n      0x04\n      dup1\n      calldatasize\n      sub\n      dup2\n      add\n      swap1\n      tag_12\n      swap2\n      swap1\n      tag_13\n      jump\t// in\n    tag_12:\n      tag_14\n      jump\t// in\n    tag_11:\n      mload(0x40)\n      tag_15\n      swap2\n      swap1\n      tag_16\n      jump\t// in\n    tag_15:\n      mload(0x40)\n      dup1\n      swap2\n      sub\n      swap1\n      return\n        /* \"CrossDestinationMinter.sol\":1246:1549  function testMessage() external {... */\n    tag_4:\n      tag_17\n      tag_18\n      jump\t// in\n    tag_17:\n      stop\n        /* \"CrossDestinationMinter.sol\":603:624  InftMinter public nft */\n    tag_5:\n      tag_19\n      tag_20\n      jump\t// in\n    tag_19:\n      mload(0x40)\n      tag_21\n      swap2\n      swap1\n      tag_22\n      jump\t// in\n    tag_21:\n      mload(0x40)\n      dup1\n      swap2\n      sub\n      swap1\n      return\n        /* \"CrossDestinationMinter.sol\":1555:1648  function updateNFT(address nftAddress) external {... */\n    tag_6:\n      tag_23\n      0x04\n      dup1\n      calldatasize\n      sub\n      dup2\n      add\n      swap1\n      tag_24\n      swap2\n      swap1\n      tag_25\n      jump\t// in\n    tag_24:\n      tag_26\n      jump\t// in\n    tag_23:\n      stop\n        /* \"@chainlink/contracts-ccip/src/v0.8/ccip/applications/CCIPReceiver.sol\":1660:1790  function ccipReceive(Client.Any2EVMMessage calldata message) external virtual override onlyRouter {... */\n    tag_7:\n      tag_27\n      0x04\n      dup1\n      calldatasize\n      sub\n      dup2\n      add\n      swap1\n      tag_28\n      swap2\n      swap1\n      tag_29\n      jump\t// in\n    tag_28:\n      tag_30\n      jump\t// in\n    tag_27:\n      stop\n        /* \"CrossDestinationMinter.sol\":1138:1240  function testMint() external {... */\n    tag_8:\n      tag_31\n      tag_32\n      jump\t// in\n    tag_31:\n      stop\n        /* \"@chainlink/contracts-ccip/src/v0.8/ccip/applications/CCIPReceiver.sol\":2205:2303  function getRouter() public view virtual returns (address) {... */\n    tag_9:\n      tag_33\n      tag_34\n      jump\t// in\n    tag_33:\n      mload(0x40)\n      tag_35\n      swap2\n      swap1\n      tag_36\n      jump\t// in\n    tag_35:\n      mload(0x40)\n      dup1\n      swap2\n      sub\n      swap1\n      return\n        /* \"@chainlink/contracts-ccip/src/v0.8/ccip/applications/CCIPReceiver.sol\":1405:1614  function supportsInterface(bytes4 interfaceId) public view virtual override returns (bool) {... */\n    tag_14:\n        /* \"@chainlink/contracts-ccip/src/v0.8/ccip/applications/CCIPReceiver.sol\":1490:1494  bool */\n      0x00\n        /* \"@chainlink/contracts-ccip/src/v0.8/ccip/applications/CCIPReceiver.sol\":1524:1565  type(IAny2EVMMessageReceiver).interfaceId */\n      0x85572ffb00000000000000000000000000000000000000000000000000000000\n        /* \"@chainlink/contracts-ccip/src/v0.8/ccip/applications/CCIPReceiver.sol\":1509:1565  interfaceId == type(IAny2EVMMessageReceiver).interfaceId */\n      not(0xffffffffffffffffffffffffffffffffffffffffffffffffffffffff)\n      and\n        /* \"@chainlink/contracts-ccip/src/v0.8/ccip/applications/CCIPReceiver.sol\":1509:1520  interfaceId */\n      dup3\n        /* \"@chainlink/contracts-ccip/src/v0.8/ccip/applications/CCIPReceiver.sol\":1509:1565  interfaceId == type(IAny2EVMMessageReceiver).interfaceId */\n      not(0xffffffffffffffffffffffffffffffffffffffffffffffffffffffff)\n      and\n      eq\n        /* \"@chainlink/contracts-ccip/src/v0.8/ccip/applications/CCIPReceiver.sol\":1509:1609  interfaceId == type(IAny2EVMMessageReceiver).interfaceId || interfaceId == type(IERC165).interfaceId */\n      dup1\n      tag_38\n      jumpi\n      pop\n        /* \"@chainlink/contracts-ccip/src/v0.8/ccip/applications/CCIPReceiver.sol\":1584:1609  type(IERC165).interfaceId */\n      0x01ffc9a700000000000000000000000000000000000000000000000000000000\n        /* \"@chainlink/contracts-ccip/src/v0.8/ccip/applications/CCIPReceiver.sol\":1569:1609  interfaceId == type(IERC165).interfaceId */\n      not(0xffffffffffffffffffffffffffffffffffffffffffffffffffffffff)\n      and\n        /* \"@chainlink/contracts-ccip/src/v0.8/ccip/applications/CCIPReceiver.sol\":1569:1580  interfaceId */\n      dup3\n        /* \"@chainlink/contracts-ccip/src/v0.8/ccip/applications/CCIPReceiver.sol\":1569:1609  interfaceId == type(IERC165).interfaceId */\n      not(0xffffffffffffffffffffffffffffffffffffffffffffffffffffffff)\n      and\n      eq\n        /* \"@chainlink/contracts-ccip/src/v0.8/ccip/applications/CCIPReceiver.sol\":1509:1609  interfaceId == type(IAny2EVMMessageReceiver).interfaceId || interfaceId == type(IERC165).interfaceId */\n    tag_38:\n        /* \"@chainlink/contracts-ccip/src/v0.8/ccip/applications/CCIPReceiver.sol\":1502:1609  return interfaceId == type(IAny2EVMMessageReceiver).interfaceId || interfaceId == type(IERC165).interfaceId */\n      swap1\n      pop\n        /* \"@chainlink/contracts-ccip/src/v0.8/ccip/applications/CCIPReceiver.sol\":1405:1614  function supportsInterface(bytes4 interfaceId) public view virtual override returns (bool) {... */\n      swap2\n      swap1\n      pop\n      jump\t// out\n        /* \"CrossDestinationMinter.sol\":1246:1549  function testMessage() external {... */\n    tag_18:\n        /* \"CrossDestinationMinter.sol\":1317:1337  bytes memory message */\n      0x60\n        /* \"CrossDestinationMinter.sol\":1410:1420  msg.sender */\n      caller\n        /* \"CrossDestinationMinter.sol\":1422:1423  0 */\n      0x00\n        /* \"CrossDestinationMinter.sol\":1357:1424  abi.encodeWithSignature(\"mintFrom(address,uint256)\", msg.sender, 0) */\n      add(0x24, mload(0x40))\n      tag_40\n      swap3\n      swap2\n      swap1\n      tag_41\n      jump\t// in\n    tag_40:\n      mload(0x40)\n      0x20\n      dup2\n      dup4\n      sub\n      sub\n      dup2\n      mstore\n      swap1\n      0x40\n      mstore\n      and(not(0xffffffffffffffffffffffffffffffffffffffffffffffffffffffff), 0x1cc7485900000000000000000000000000000000000000000000000000000000)\n      0x20\n      dup3\n      add\n      dup1\n      mload\n      0xffffffffffffffffffffffffffffffffffffffffffffffffffffffff\n      dup4\n      dup2\n      dup4\n      and\n      or\n      dup4\n      mstore\n      pop\n      pop\n      pop\n      pop\n        /* \"CrossDestinationMinter.sol\":1347:1424  message = abi.encodeWithSignature(\"mintFrom(address,uint256)\", msg.sender, 0) */\n      swap1\n      pop\n        /* \"CrossDestinationMinter.sol\":1436:1448  bool success */\n      0x00\n        /* \"CrossDestinationMinter.sol\":1462:1465  nft */\n      dup1\n      0x00\n      swap1\n      sload\n      swap1\n      0x0100\n      exp\n      swap1\n      div\n      0xffffffffffffffffffffffffffffffffffffffff\n      and\n        /* \"CrossDestinationMinter.sol\":1454:1471  address(nft).call */\n      0xffffffffffffffffffffffffffffffffffffffff\n      and\n        /* \"CrossDestinationMinter.sol\":1472:1479  message */\n      dup3\n        /* \"CrossDestinationMinter.sol\":1454:1480  address(nft).call(message) */\n      mload(0x40)\n      tag_42\n      swap2\n      swap1\n      tag_43\n      jump\t// in\n    tag_42:\n      0x00\n      mload(0x40)\n      dup1\n      dup4\n      sub\n      dup2\n      0x00\n      dup7\n      gas\n      call\n      swap2\n      pop\n      pop\n      returndatasize\n      dup1\n      0x00\n      dup2\n      eq\n      tag_46\n      jumpi\n      mload(0x40)\n      swap2\n      pop\n      and(add(returndatasize, 0x3f), not(0x1f))\n      dup3\n      add\n      0x40\n      mstore\n      returndatasize\n      dup3\n      mstore\n      returndatasize\n      0x00\n      0x20\n      dup5\n      add\n      returndatacopy\n      jump(tag_45)\n    tag_46:\n      0x60\n      swap2\n      pop\n    tag_45:\n      pop\n        /* \"CrossDestinationMinter.sol\":1435:1480  (bool success, ) = address(nft).call(message) */\n      pop\n      swap1\n      pop\n        /* \"CrossDestinationMinter.sol\":1498:1505  success */\n      dup1\n        /* \"CrossDestinationMinter.sol\":1490:1506  require(success) */\n      tag_47\n      jumpi\n      0x00\n      dup1\n      revert\n    tag_47:\n        /* \"CrossDestinationMinter.sol\":1521:1542  MintCallSuccessfull() */\n      0xa8bcb6a278444293ea5c0bce4a4734a060a5f557bb999d8a57c4f69e96f1fe88\n      mload(0x40)\n      mload(0x40)\n      dup1\n      swap2\n      sub\n      swap1\n      log1\n        /* \"CrossDestinationMinter.sol\":1278:1549  {... */\n      pop\n      pop\n        /* \"CrossDestinationMinter.sol\":1246:1549  function testMessage() external {... */\n      jump\t// out\n        /* \"CrossDestinationMinter.sol\":603:624  InftMinter public nft */\n    tag_20:\n      0x00\n      dup1\n      sload\n      swap1\n      0x0100\n      exp\n      swap1\n      div\n      0xffffffffffffffffffffffffffffffffffffffff\n      and\n      dup2\n      jump\t// out\n        /* \"CrossDestinationMinter.sol\":1555:1648  function updateNFT(address nftAddress) external {... */\n    tag_26:\n        /* \"CrossDestinationMinter.sol\":1630:1640  nftAddress */\n      dup1\n        /* \"CrossDestinationMinter.sol\":1613:1616  nft */\n      0x00\n      dup1\n        /* \"CrossDestinationMinter.sol\":1613:1641  nft = InftMinter(nftAddress) */\n      0x0100\n      exp\n      dup2\n      sload\n      dup2\n      0xffffffffffffffffffffffffffffffffffffffff\n      mul\n      not\n      and\n      swap1\n      dup4\n      0xffffffffffffffffffffffffffffffffffffffff\n      and\n      mul\n      or\n      swap1\n      sstore\n      pop\n        /* \"CrossDestinationMinter.sol\":1555:1648  function updateNFT(address nftAddress) external {... */\n      pop\n      jump\t// out\n        /* \"@chainlink/contracts-ccip/src/v0.8/ccip/applications/CCIPReceiver.sol\":1660:1790  function ccipReceive(Client.Any2EVMMessage calldata message) external virtual override onlyRouter {... */\n    tag_30:\n        /* \"@chainlink/contracts-ccip/src/v0.8/ccip/applications/CCIPReceiver.sol\":2449:2460  getRouter() */\n      tag_50\n        /* \"@chainlink/contracts-ccip/src/v0.8/ccip/applications/CCIPReceiver.sol\":2449:2458  getRouter */\n      tag_34\n        /* \"@chainlink/contracts-ccip/src/v0.8/ccip/applications/CCIPReceiver.sol\":2449:2460  getRouter() */\n      jump\t// in\n    tag_50:\n        /* \"@chainlink/contracts-ccip/src/v0.8/ccip/applications/CCIPReceiver.sol\":2435:2460  msg.sender != getRouter() */\n      0xffffffffffffffffffffffffffffffffffffffff\n      and\n        /* \"@chainlink/contracts-ccip/src/v0.8/ccip/applications/CCIPReceiver.sol\":2435:2445  msg.sender */\n      caller\n        /* \"@chainlink/contracts-ccip/src/v0.8/ccip/applications/CCIPReceiver.sol\":2435:2460  msg.sender != getRouter() */\n      0xffffffffffffffffffffffffffffffffffffffff\n      and\n      eq\n        /* \"@chainlink/contracts-ccip/src/v0.8/ccip/applications/CCIPReceiver.sol\":2431:2494  if (msg.sender != getRouter()) revert InvalidRouter(msg.sender) */\n      tag_51\n      jumpi\n        /* \"@chainlink/contracts-ccip/src/v0.8/ccip/applications/CCIPReceiver.sol\":2483:2493  msg.sender */\n      caller\n        /* \"@chainlink/contracts-ccip/src/v0.8/ccip/applications/CCIPReceiver.sol\":2469:2494  InvalidRouter(msg.sender) */\n      mload(0x40)\n      0xd7f7333400000000000000000000000000000000000000000000000000000000\n      dup2\n      mstore\n      0x04\n      add\n      tag_52\n      swap2\n      swap1\n      tag_36\n      jump\t// in\n    tag_52:\n      mload(0x40)\n      dup1\n      swap2\n      sub\n      swap1\n      revert\n        /* \"@chainlink/contracts-ccip/src/v0.8/ccip/applications/CCIPReceiver.sol\":2431:2494  if (msg.sender != getRouter()) revert InvalidRouter(msg.sender) */\n    tag_51:\n        /* \"@chainlink/contracts-ccip/src/v0.8/ccip/applications/CCIPReceiver.sol\":1764:1785  _ccipReceive(message) */\n      tag_54\n        /* \"@chainlink/contracts-ccip/src/v0.8/ccip/applications/CCIPReceiver.sol\":1777:1784  message */\n      dup2\n        /* \"@chainlink/contracts-ccip/src/v0.8/ccip/applications/CCIPReceiver.sol\":1764:1785  _ccipReceive(message) */\n      tag_55\n      swap1\n      tag_56\n      jump\t// in\n    tag_55:\n        /* \"@chainlink/contracts-ccip/src/v0.8/ccip/applications/CCIPReceiver.sol\":1764:1776  _ccipReceive */\n      tag_57\n        /* \"@chainlink/contracts-ccip/src/v0.8/ccip/applications/CCIPReceiver.sol\":1764:1785  _ccipReceive(message) */\n      jump\t// in\n    tag_54:\n        /* \"@chainlink/contracts-ccip/src/v0.8/ccip/applications/CCIPReceiver.sol\":1660:1790  function ccipReceive(Client.Any2EVMMessage calldata message) external virtual override onlyRouter {... */\n      pop\n      jump\t// out\n        /* \"CrossDestinationMinter.sol\":1138:1240  function testMint() external {... */\n    tag_32:\n        /* \"CrossDestinationMinter.sol\":1206:1209  nft */\n      0x00\n      dup1\n      sload\n      swap1\n      0x0100\n      exp\n      swap1\n      div\n      0xffffffffffffffffffffffffffffffffffffffff\n      and\n        /* \"CrossDestinationMinter.sol\":1206:1218  nft.mintFrom */\n      0xffffffffffffffffffffffffffffffffffffffff\n      and\n      0x1cc74859\n        /* \"CrossDestinationMinter.sol\":1219:1229  msg.sender */\n      caller\n        /* \"CrossDestinationMinter.sol\":1231:1232  0 */\n      0x00\n        /* \"CrossDestinationMinter.sol\":1206:1233  nft.mintFrom(msg.sender, 0) */\n      mload(0x40)\n      dup4\n      0xffffffff\n      and\n      0xe0\n      shl\n      dup2\n      mstore\n      0x04\n      add\n      tag_59\n      swap3\n      swap2\n      swap1\n      tag_60\n      jump\t// in\n    tag_59:\n      0x00\n      mload(0x40)\n      dup1\n      dup4\n      sub\n      dup2\n      0x00\n      dup8\n      dup1\n      extcodesize\n      iszero\n      dup1\n      iszero\n      tag_61\n      jumpi\n      0x00\n      dup1\n      revert\n    tag_61:\n      pop\n      gas\n      call\n      iszero\n      dup1\n      iszero\n      tag_63\n      jumpi\n      returndatasize\n      0x00\n      dup1\n      returndatacopy\n      revert(0x00, returndatasize)\n    tag_63:\n      pop\n      pop\n      pop\n      pop\n        /* \"CrossDestinationMinter.sol\":1138:1240  function testMint() external {... */\n      jump\t// out\n        /* \"@chainlink/contracts-ccip/src/v0.8/ccip/applications/CCIPReceiver.sol\":2205:2303  function getRouter() public view virtual returns (address) {... */\n    tag_34:\n        /* \"@chainlink/contracts-ccip/src/v0.8/ccip/applications/CCIPReceiver.sol\":2255:2262  address */\n      0x00\n        /* \"@chainlink/contracts-ccip/src/v0.8/ccip/applications/CCIPReceiver.sol\":2285:2297  i_ccipRouter */\n      immutable(\"0x5c4c6aa067b6f8e6cb38e6ab843832a94d1712d661a04d73c517d6a1931a9e5d\")\n        /* \"@chainlink/contracts-ccip/src/v0.8/ccip/applications/CCIPReceiver.sol\":2270:2298  return address(i_ccipRouter) */\n      swap1\n      pop\n        /* \"@chainlink/contracts-ccip/src/v0.8/ccip/applications/CCIPReceiver.sol\":2205:2303  function getRouter() public view virtual returns (address) {... */\n      swap1\n      jump\t// out\n        /* \"CrossDestinationMinter.sol\":911:1132  function _ccipReceive(... */\n    tag_57:\n        /* \"CrossDestinationMinter.sol\":1014:1026  bool success */\n      0x00\n        /* \"CrossDestinationMinter.sol\":1040:1043  nft */\n      dup1\n      0x00\n      swap1\n      sload\n      swap1\n      0x0100\n      exp\n      swap1\n      div\n      0xffffffffffffffffffffffffffffffffffffffff\n      and\n        /* \"CrossDestinationMinter.sol\":1032:1049  address(nft).call */\n      0xffffffffffffffffffffffffffffffffffffffff\n      and\n        /* \"CrossDestinationMinter.sol\":1050:1057  message */\n      dup3\n        /* \"CrossDestinationMinter.sol\":1050:1062  message.data */\n      0x60\n      add\n      mload\n        /* \"CrossDestinationMinter.sol\":1032:1063  address(nft).call(message.data) */\n      mload(0x40)\n      tag_66\n      swap2\n      swap1\n      tag_43\n      jump\t// in\n    tag_66:\n      0x00\n      mload(0x40)\n      dup1\n      dup4\n      sub\n      dup2\n      0x00\n      dup7\n      gas\n      call\n      swap2\n      pop\n      pop\n      returndatasize\n      dup1\n      0x00\n      dup2\n      eq\n      tag_69\n      jumpi\n      mload(0x40)\n      swap2\n      pop\n      and(add(returndatasize, 0x3f), not(0x1f))\n      dup3\n      add\n      0x40\n      mstore\n      returndatasize\n      dup3\n      mstore\n      returndatasize\n      0x00\n      0x20\n      dup5\n      add\n      returndatacopy\n      jump(tag_68)\n    tag_69:\n      0x60\n      swap2\n      pop\n    tag_68:\n      pop\n        /* \"CrossDestinationMinter.sol\":1013:1063  (bool success, ) = address(nft).call(message.data) */\n      pop\n      swap1\n      pop\n        /* \"CrossDestinationMinter.sol\":1081:1088  success */\n      dup1\n        /* \"CrossDestinationMinter.sol\":1073:1089  require(success) */\n      tag_70\n      jumpi\n      0x00\n      dup1\n      revert\n    tag_70:\n        /* \"CrossDestinationMinter.sol\":1104:1125  MintCallSuccessfull() */\n      0xa8bcb6a278444293ea5c0bce4a4734a060a5f557bb999d8a57c4f69e96f1fe88\n      mload(0x40)\n      mload(0x40)\n      dup1\n      swap2\n      sub\n      swap1\n      log1\n        /* \"CrossDestinationMinter.sol\":1003:1132  {... */\n      pop\n        /* \"CrossDestinationMinter.sol\":911:1132  function _ccipReceive(... */\n      pop\n      jump\t// out\n        /* \"#utility.yul\":7:82   */\n    tag_71:\n        /* \"#utility.yul\":40:46   */\n      0x00\n        /* \"#utility.yul\":73:75   */\n      0x40\n        /* \"#utility.yul\":67:76   */\n      mload\n        /* \"#utility.yul\":57:76   */\n      swap1\n      pop\n        /* \"#utility.yul\":7:82   */\n      swap1\n      jump\t// out\n        /* \"#utility.yul\":88:205   */\n    tag_72:\n        /* \"#utility.yul\":197:198   */\n      0x00\n        /* \"#utility.yul\":194:195   */\n      dup1\n        /* \"#utility.yul\":187:199   */\n      revert\n        /* \"#utility.yul\":211:328   */\n    tag_73:\n        /* \"#utility.yul\":320:321   */\n      0x00\n        /* \"#utility.yul\":317:318   */\n      dup1\n        /* \"#utility.yul\":310:322   */\n      revert\n        /* \"#utility.yul\":334:483   */\n    tag_74:\n        /* \"#utility.yul\":370:377   */\n      0x00\n        /* \"#utility.yul\":410:476   */\n      0xffffffff00000000000000000000000000000000000000000000000000000000\n        /* \"#utility.yul\":403:408   */\n      dup3\n        /* \"#utility.yul\":399:477   */\n      and\n        /* \"#utility.yul\":388:477   */\n      swap1\n      pop\n        /* \"#utility.yul\":334:483   */\n      swap2\n      swap1\n      pop\n      jump\t// out\n        /* \"#utility.yul\":489:609   */\n    tag_75:\n        /* \"#utility.yul\":561:584   */\n      tag_134\n        /* \"#utility.yul\":578:583   */\n      dup2\n        /* \"#utility.yul\":561:584   */\n      tag_74\n      jump\t// in\n    tag_134:\n        /* \"#utility.yul\":554:559   */\n      dup2\n        /* \"#utility.yul\":551:585   */\n      eq\n        /* \"#utility.yul\":541:603   */\n      tag_135\n      jumpi\n        /* \"#utility.yul\":599:600   */\n      0x00\n        /* \"#utility.yul\":596:597   */\n      dup1\n        /* \"#utility.yul\":589:601   */\n      revert\n        /* \"#utility.yul\":541:603   */\n    tag_135:\n        /* \"#utility.yul\":489:609   */\n      pop\n      jump\t// out\n        /* \"#utility.yul\":615:752   */\n    tag_76:\n        /* \"#utility.yul\":660:665   */\n      0x00\n        /* \"#utility.yul\":698:704   */\n      dup2\n        /* \"#utility.yul\":685:705   */\n      calldataload\n        /* \"#utility.yul\":676:705   */\n      swap1\n      pop\n        /* \"#utility.yul\":714:746   */\n      tag_137\n        /* \"#utility.yul\":740:745   */\n      dup2\n        /* \"#utility.yul\":714:746   */\n      tag_75\n      jump\t// in\n    tag_137:\n        /* \"#utility.yul\":615:752   */\n      swap3\n      swap2\n      pop\n      pop\n      jump\t// out\n        /* \"#utility.yul\":758:1085   */\n    tag_13:\n        /* \"#utility.yul\":816:822   */\n      0x00\n        /* \"#utility.yul\":865:867   */\n      0x20\n        /* \"#utility.yul\":853:862   */\n      dup3\n        /* \"#utility.yul\":844:851   */\n      dup5\n        /* \"#utility.yul\":840:863   */\n      sub\n        /* \"#utility.yul\":836:868   */\n      slt\n        /* \"#utility.yul\":833:952   */\n      iszero\n      tag_139\n      jumpi\n        /* \"#utility.yul\":871:950   */\n      tag_140\n      tag_72\n      jump\t// in\n    tag_140:\n        /* \"#utility.yul\":833:952   */\n    tag_139:\n        /* \"#utility.yul\":991:992   */\n      0x00\n        /* \"#utility.yul\":1016:1068   */\n      tag_141\n        /* \"#utility.yul\":1060:1067   */\n      dup5\n        /* \"#utility.yul\":1051:1057   */\n      dup3\n        /* \"#utility.yul\":1040:1049   */\n      dup6\n        /* \"#utility.yul\":1036:1058   */\n      add\n        /* \"#utility.yul\":1016:1068   */\n      tag_76\n      jump\t// in\n    tag_141:\n        /* \"#utility.yul\":1006:1068   */\n      swap2\n      pop\n        /* \"#utility.yul\":962:1078   */\n      pop\n        /* \"#utility.yul\":758:1085   */\n      swap3\n      swap2\n      pop\n      pop\n      jump\t// out\n        /* \"#utility.yul\":1091:1181   */\n    tag_77:\n        /* \"#utility.yul\":1125:1132   */\n      0x00\n        /* \"#utility.yul\":1168:1173   */\n      dup2\n        /* \"#utility.yul\":1161:1174   */\n      iszero\n        /* \"#utility.yul\":1154:1175   */\n      iszero\n        /* \"#utility.yul\":1143:1175   */\n      swap1\n      pop\n        /* \"#utility.yul\":1091:1181   */\n      swap2\n      swap1\n      pop\n      jump\t// out\n        /* \"#utility.yul\":1187:1296   */\n    tag_78:\n        /* \"#utility.yul\":1268:1289   */\n      tag_144\n        /* \"#utility.yul\":1283:1288   */\n      dup2\n        /* \"#utility.yul\":1268:1289   */\n      tag_77\n      jump\t// in\n    tag_144:\n        /* \"#utility.yul\":1263:1266   */\n      dup3\n        /* \"#utility.yul\":1256:1290   */\n      mstore\n        /* \"#utility.yul\":1187:1296   */\n      pop\n      pop\n      jump\t// out\n        /* \"#utility.yul\":1302:1512   */\n    tag_16:\n        /* \"#utility.yul\":1389:1393   */\n      0x00\n        /* \"#utility.yul\":1427:1429   */\n      0x20\n        /* \"#utility.yul\":1416:1425   */\n      dup3\n        /* \"#utility.yul\":1412:1430   */\n      add\n        /* \"#utility.yul\":1404:1430   */\n      swap1\n      pop\n        /* \"#utility.yul\":1440:1505   */\n      tag_146\n        /* \"#utility.yul\":1502:1503   */\n      0x00\n        /* \"#utility.yul\":1491:1500   */\n      dup4\n        /* \"#utility.yul\":1487:1504   */\n      add\n        /* \"#utility.yul\":1478:1484   */\n      dup5\n        /* \"#utility.yul\":1440:1505   */\n      tag_78\n      jump\t// in\n    tag_146:\n        /* \"#utility.yul\":1302:1512   */\n      swap3\n      swap2\n      pop\n      pop\n      jump\t// out\n        /* \"#utility.yul\":1518:1644   */\n    tag_79:\n        /* \"#utility.yul\":1555:1562   */\n      0x00\n        /* \"#utility.yul\":1595:1637   */\n      0xffffffffffffffffffffffffffffffffffffffff\n        /* \"#utility.yul\":1588:1593   */\n      dup3\n        /* \"#utility.yul\":1584:1638   */\n      and\n        /* \"#utility.yul\":1573:1638   */\n      swap1\n      pop\n        /* \"#utility.yul\":1518:1644   */\n      swap2\n      swap1\n      pop\n      jump\t// out\n        /* \"#utility.yul\":1650:1710   */\n    tag_80:\n        /* \"#utility.yul\":1678:1681   */\n      0x00\n        /* \"#utility.yul\":1699:1704   */\n      dup2\n        /* \"#utility.yul\":1692:1704   */\n      swap1\n      pop\n        /* \"#utility.yul\":1650:1710   */\n      swap2\n      swap1\n      pop\n      jump\t// out\n        /* \"#utility.yul\":1716:1858   */\n    tag_81:\n        /* \"#utility.yul\":1766:1775   */\n      0x00\n        /* \"#utility.yul\":1799:1852   */\n      tag_150\n        /* \"#utility.yul\":1817:1851   */\n      tag_151\n        /* \"#utility.yul\":1826:1850   */\n      tag_152\n        /* \"#utility.yul\":1844:1849   */\n      dup5\n        /* \"#utility.yul\":1826:1850   */\n      tag_79\n      jump\t// in\n    tag_152:\n        /* \"#utility.yul\":1817:1851   */\n      tag_80\n      jump\t// in\n    tag_151:\n        /* \"#utility.yul\":1799:1852   */\n      tag_79\n      jump\t// in\n    tag_150:\n        /* \"#utility.yul\":1786:1852   */\n      swap1\n      pop\n        /* \"#utility.yul\":1716:1858   */\n      swap2\n      swap1\n      pop\n      jump\t// out\n        /* \"#utility.yul\":1864:1990   */\n    tag_82:\n        /* \"#utility.yul\":1914:1923   */\n      0x00\n        /* \"#utility.yul\":1947:1984   */\n      tag_154\n        /* \"#utility.yul\":1978:1983   */\n      dup3\n        /* \"#utility.yul\":1947:1984   */\n      tag_81\n      jump\t// in\n    tag_154:\n        /* \"#utility.yul\":1934:1984   */\n      swap1\n      pop\n        /* \"#utility.yul\":1864:1990   */\n      swap2\n      swap1\n      pop\n      jump\t// out\n        /* \"#utility.yul\":1996:2140   */\n    tag_83:\n        /* \"#utility.yul\":2064:2073   */\n      0x00\n        /* \"#utility.yul\":2097:2134   */\n      tag_156\n        /* \"#utility.yul\":2128:2133   */\n      dup3\n        /* \"#utility.yul\":2097:2134   */\n      tag_82\n      jump\t// in\n    tag_156:\n        /* \"#utility.yul\":2084:2134   */\n      swap1\n      pop\n        /* \"#utility.yul\":1996:2140   */\n      swap2\n      swap1\n      pop\n      jump\t// out\n        /* \"#utility.yul\":2146:2313   */\n    tag_84:\n        /* \"#utility.yul\":2251:2306   */\n      tag_158\n        /* \"#utility.yul\":2300:2305   */\n      dup2\n        /* \"#utility.yul\":2251:2306   */\n      tag_83\n      jump\t// in\n    tag_158:\n        /* \"#utility.yul\":2246:2249   */\n      dup3\n        /* \"#utility.yul\":2239:2307   */\n      mstore\n        /* \"#utility.yul\":2146:2313   */\n      pop\n      pop\n      jump\t// out\n        /* \"#utility.yul\":2319:2577   */\n    tag_22:\n        /* \"#utility.yul\":2430:2434   */\n      0x00\n        /* \"#utility.yul\":2468:2470   */\n      0x20\n        /* \"#utility.yul\":2457:2466   */\n      dup3\n        /* \"#utility.yul\":2453:2471   */\n      add\n        /* \"#utility.yul\":2445:2471   */\n      swap1\n      pop\n        /* \"#utility.yul\":2481:2570   */\n      tag_160\n        /* \"#utility.yul\":2567:2568   */\n      0x00\n        /* \"#utility.yul\":2556:2565   */\n      dup4\n        /* \"#utility.yul\":2552:2569   */\n      add\n        /* \"#utility.yul\":2543:2549   */\n      dup5\n        /* \"#utility.yul\":2481:2570   */\n      tag_84\n      jump\t// in\n    tag_160:\n        /* \"#utility.yul\":2319:2577   */\n      swap3\n      swap2\n      pop\n      pop\n      jump\t// out\n        /* \"#utility.yul\":2583:2679   */\n    tag_85:\n        /* \"#utility.yul\":2620:2627   */\n      0x00\n        /* \"#utility.yul\":2649:2673   */\n      tag_162\n        /* \"#utility.yul\":2667:2672   */\n      dup3\n        /* \"#utility.yul\":2649:2673   */\n      tag_79\n      jump\t// in\n    tag_162:\n        /* \"#utility.yul\":2638:2673   */\n      swap1\n      pop\n        /* \"#utility.yul\":2583:2679   */\n      swap2\n      swap1\n      pop\n      jump\t// out\n        /* \"#utility.yul\":2685:2807   */\n    tag_86:\n        /* \"#utility.yul\":2758:2782   */\n      tag_164\n        /* \"#utility.yul\":2776:2781   */\n      dup2\n        /* \"#utility.yul\":2758:2782   */\n      tag_85\n      jump\t// in\n    tag_164:\n        /* \"#utility.yul\":2751:2756   */\n      dup2\n        /* \"#utility.yul\":2748:2783   */\n      eq\n        /* \"#utility.yul\":2738:2801   */\n      tag_165\n      jumpi\n        /* \"#utility.yul\":2797:2798   */\n      0x00\n        /* \"#utility.yul\":2794:2795   */\n      dup1\n        /* \"#utility.yul\":2787:2799   */\n      revert\n        /* \"#utility.yul\":2738:2801   */\n    tag_165:\n        /* \"#utility.yul\":2685:2807   */\n      pop\n      jump\t// out\n        /* \"#utility.yul\":2813:2952   */\n    tag_87:\n        /* \"#utility.yul\":2859:2864   */\n      0x00\n        /* \"#utility.yul\":2897:2903   */\n      dup2\n        /* \"#utility.yul\":2884:2904   */\n      calldataload\n        /* \"#utility.yul\":2875:2904   */\n      swap1\n      pop\n        /* \"#utility.yul\":2913:2946   */\n      tag_167\n        /* \"#utility.yul\":2940:2945   */\n      dup2\n        /* \"#utility.yul\":2913:2946   */\n      tag_86\n      jump\t// in\n    tag_167:\n        /* \"#utility.yul\":2813:2952   */\n      swap3\n      swap2\n      pop\n      pop\n      jump\t// out\n        /* \"#utility.yul\":2958:3287   */\n    tag_25:\n        /* \"#utility.yul\":3017:3023   */\n      0x00\n        /* \"#utility.yul\":3066:3068   */\n      0x20\n        /* \"#utility.yul\":3054:3063   */\n      dup3\n        /* \"#utility.yul\":3045:3052   */\n      dup5\n        /* \"#utility.yul\":3041:3064   */\n      sub\n        /* \"#utility.yul\":3037:3069   */\n      slt\n        /* \"#utility.yul\":3034:3153   */\n      iszero\n      tag_169\n      jumpi\n        /* \"#utility.yul\":3072:3151   */\n      tag_170\n      tag_72\n      jump\t// in\n    tag_170:\n        /* \"#utility.yul\":3034:3153   */\n    tag_169:\n        /* \"#utility.yul\":3192:3193   */\n      0x00\n        /* \"#utility.yul\":3217:3270   */\n      tag_171\n        /* \"#utility.yul\":3262:3269   */\n      dup5\n        /* \"#utility.yul\":3253:3259   */\n      dup3\n        /* \"#utility.yul\":3242:3251   */\n      dup6\n        /* \"#utility.yul\":3238:3260   */\n      add\n        /* \"#utility.yul\":3217:3270   */\n      tag_87\n      jump\t// in\n    tag_171:\n        /* \"#utility.yul\":3207:3270   */\n      swap2\n      pop\n        /* \"#utility.yul\":3163:3280   */\n      pop\n        /* \"#utility.yul\":2958:3287   */\n      swap3\n      swap2\n      pop\n      pop\n      jump\t// out\n        /* \"#utility.yul\":3293:3410   */\n    tag_88:\n        /* \"#utility.yul\":3402:3403   */\n      0x00\n        /* \"#utility.yul\":3399:3400   */\n      dup1\n        /* \"#utility.yul\":3392:3404   */\n      revert\n        /* \"#utility.yul\":3452:3690   */\n    tag_89:\n        /* \"#utility.yul\":3531:3536   */\n      0x00\n        /* \"#utility.yul\":3572:3575   */\n      0xa0\n        /* \"#utility.yul\":3563:3569   */\n      dup3\n        /* \"#utility.yul\":3558:3561   */\n      dup5\n        /* \"#utility.yul\":3554:3570   */\n      sub\n        /* \"#utility.yul\":3550:3576   */\n      slt\n        /* \"#utility.yul\":3547:3660   */\n      iszero\n      tag_174\n      jumpi\n        /* \"#utility.yul\":3579:3658   */\n      tag_175\n      tag_88\n      jump\t// in\n    tag_175:\n        /* \"#utility.yul\":3547:3660   */\n    tag_174:\n        /* \"#utility.yul\":3678:3684   */\n      dup2\n        /* \"#utility.yul\":3669:3684   */\n      swap1\n      pop\n        /* \"#utility.yul\":3452:3690   */\n      swap3\n      swap2\n      pop\n      pop\n      jump\t// out\n        /* \"#utility.yul\":3696:4251   */\n    tag_29:\n        /* \"#utility.yul\":3788:3794   */\n      0x00\n        /* \"#utility.yul\":3837:3839   */\n      0x20\n        /* \"#utility.yul\":3825:3834   */\n      dup3\n        /* \"#utility.yul\":3816:3823   */\n      dup5\n        /* \"#utility.yul\":3812:3835   */\n      sub\n        /* \"#utility.yul\":3808:3840   */\n      slt\n        /* \"#utility.yul\":3805:3924   */\n      iszero\n      tag_177\n      jumpi\n        /* \"#utility.yul\":3843:3922   */\n      tag_178\n      tag_72\n      jump\t// in\n    tag_178:\n        /* \"#utility.yul\":3805:3924   */\n    tag_177:\n        /* \"#utility.yul\":3991:3992   */\n      0x00\n        /* \"#utility.yul\":3980:3989   */\n      dup3\n        /* \"#utility.yul\":3976:3993   */\n      add\n        /* \"#utility.yul\":3963:3994   */\n      calldataload\n        /* \"#utility.yul\":4021:4039   */\n      0xffffffffffffffff\n        /* \"#utility.yul\":4013:4019   */\n      dup2\n        /* \"#utility.yul\":4010:4040   */\n      gt\n        /* \"#utility.yul\":4007:4124   */\n      iszero\n      tag_179\n      jumpi\n        /* \"#utility.yul\":4043:4122   */\n      tag_180\n      tag_73\n      jump\t// in\n    tag_180:\n        /* \"#utility.yul\":4007:4124   */\n    tag_179:\n        /* \"#utility.yul\":4148:4234   */\n      tag_181\n        /* \"#utility.yul\":4226:4233   */\n      dup5\n        /* \"#utility.yul\":4217:4223   */\n      dup3\n        /* \"#utility.yul\":4206:4215   */\n      dup6\n        /* \"#utility.yul\":4202:4224   */\n      add\n        /* \"#utility.yul\":4148:4234   */\n      tag_89\n      jump\t// in\n    tag_181:\n        /* \"#utility.yul\":4138:4234   */\n      swap2\n      pop\n        /* \"#utility.yul\":3934:4244   */\n      pop\n        /* \"#utility.yul\":3696:4251   */\n      swap3\n      swap2\n      pop\n      pop\n      jump\t// out\n        /* \"#utility.yul\":4257:4375   */\n    tag_90:\n        /* \"#utility.yul\":4344:4368   */\n      tag_183\n        /* \"#utility.yul\":4362:4367   */\n      dup2\n        /* \"#utility.yul\":4344:4368   */\n      tag_85\n      jump\t// in\n    tag_183:\n        /* \"#utility.yul\":4339:4342   */\n      dup3\n        /* \"#utility.yul\":4332:4369   */\n      mstore\n        /* \"#utility.yul\":4257:4375   */\n      pop\n      pop\n      jump\t// out\n        /* \"#utility.yul\":4381:4603   */\n    tag_36:\n        /* \"#utility.yul\":4474:4478   */\n      0x00\n        /* \"#utility.yul\":4512:4514   */\n      0x20\n        /* \"#utility.yul\":4501:4510   */\n      dup3\n        /* \"#utility.yul\":4497:4515   */\n      add\n        /* \"#utility.yul\":4489:4515   */\n      swap1\n      pop\n        /* \"#utility.yul\":4525:4596   */\n      tag_185\n        /* \"#utility.yul\":4593:4594   */\n      0x00\n        /* \"#utility.yul\":4582:4591   */\n      dup4\n        /* \"#utility.yul\":4578:4595   */\n      add\n        /* \"#utility.yul\":4569:4575   */\n      dup5\n        /* \"#utility.yul\":4525:4596   */\n      tag_90\n      jump\t// in\n    tag_185:\n        /* \"#utility.yul\":4381:4603   */\n      swap3\n      swap2\n      pop\n      pop\n      jump\t// out\n        /* \"#utility.yul\":4609:4694   */\n    tag_91:\n        /* \"#utility.yul\":4654:4661   */\n      0x00\n        /* \"#utility.yul\":4683:4688   */\n      dup2\n        /* \"#utility.yul\":4672:4688   */\n      swap1\n      pop\n        /* \"#utility.yul\":4609:4694   */\n      swap2\n      swap1\n      pop\n      jump\t// out\n        /* \"#utility.yul\":4700:4786   */\n    tag_92:\n        /* \"#utility.yul\":4735:4742   */\n      0x00\n        /* \"#utility.yul\":4775:4779   */\n      0xff\n        /* \"#utility.yul\":4768:4773   */\n      dup3\n        /* \"#utility.yul\":4764:4780   */\n      and\n        /* \"#utility.yul\":4753:4780   */\n      swap1\n      pop\n        /* \"#utility.yul\":4700:4786   */\n      swap2\n      swap1\n      pop\n      jump\t// out\n        /* \"#utility.yul\":4792:4946   */\n    tag_93:\n        /* \"#utility.yul\":4848:4857   */\n      0x00\n        /* \"#utility.yul\":4881:4940   */\n      tag_189\n        /* \"#utility.yul\":4897:4939   */\n      tag_190\n        /* \"#utility.yul\":4906:4938   */\n      tag_191\n        /* \"#utility.yul\":4932:4937   */\n      dup5\n        /* \"#utility.yul\":4906:4938   */\n      tag_91\n      jump\t// in\n    tag_191:\n        /* \"#utility.yul\":4897:4939   */\n      tag_80\n      jump\t// in\n    tag_190:\n        /* \"#utility.yul\":4881:4940   */\n      tag_92\n      jump\t// in\n    tag_189:\n        /* \"#utility.yul\":4868:4940   */\n      swap1\n      pop\n        /* \"#utility.yul\":4792:4946   */\n      swap2\n      swap1\n      pop\n      jump\t// out\n        /* \"#utility.yul\":4952:5095   */\n    tag_94:\n        /* \"#utility.yul\":5045:5088   */\n      tag_193\n        /* \"#utility.yul\":5082:5087   */\n      dup2\n        /* \"#utility.yul\":5045:5088   */\n      tag_93\n      jump\t// in\n    tag_193:\n        /* \"#utility.yul\":5040:5043   */\n      dup3\n        /* \"#utility.yul\":5033:5089   */\n      mstore\n        /* \"#utility.yul\":4952:5095   */\n      pop\n      pop\n      jump\t// out\n        /* \"#utility.yul\":5101:5445   */\n    tag_41:\n        /* \"#utility.yul\":5228:5232   */\n      0x00\n        /* \"#utility.yul\":5266:5268   */\n      0x40\n        /* \"#utility.yul\":5255:5264   */\n      dup3\n        /* \"#utility.yul\":5251:5269   */\n      add\n        /* \"#utility.yul\":5243:5269   */\n      swap1\n      pop\n        /* \"#utility.yul\":5279:5350   */\n      tag_195\n        /* \"#utility.yul\":5347:5348   */\n      0x00\n        /* \"#utility.yul\":5336:5345   */\n      dup4\n        /* \"#utility.yul\":5332:5349   */\n      add\n        /* \"#utility.yul\":5323:5329   */\n      dup6\n        /* \"#utility.yul\":5279:5350   */\n      tag_90\n      jump\t// in\n    tag_195:\n        /* \"#utility.yul\":5360:5438   */\n      tag_196\n        /* \"#utility.yul\":5434:5436   */\n      0x20\n        /* \"#utility.yul\":5423:5432   */\n      dup4\n        /* \"#utility.yul\":5419:5437   */\n      add\n        /* \"#utility.yul\":5410:5416   */\n      dup5\n        /* \"#utility.yul\":5360:5438   */\n      tag_94\n      jump\t// in\n    tag_196:\n        /* \"#utility.yul\":5101:5445   */\n      swap4\n      swap3\n      pop\n      pop\n      pop\n      jump\t// out\n        /* \"#utility.yul\":5451:5549   */\n    tag_95:\n        /* \"#utility.yul\":5502:5508   */\n      0x00\n        /* \"#utility.yul\":5536:5541   */\n      dup2\n        /* \"#utility.yul\":5530:5542   */\n      mload\n        /* \"#utility.yul\":5520:5542   */\n      swap1\n      pop\n        /* \"#utility.yul\":5451:5549   */\n      swap2\n      swap1\n      pop\n      jump\t// out\n        /* \"#utility.yul\":5555:5702   */\n    tag_96:\n        /* \"#utility.yul\":5656:5667   */\n      0x00\n        /* \"#utility.yul\":5693:5696   */\n      dup2\n        /* \"#utility.yul\":5678:5696   */\n      swap1\n      pop\n        /* \"#utility.yul\":5555:5702   */\n      swap3\n      swap2\n      pop\n      pop\n      jump\t// out\n        /* \"#utility.yul\":5708:5956   */\n    tag_97:\n        /* \"#utility.yul\":5790:5791   */\n      0x00\n        /* \"#utility.yul\":5800:5913   */\n    tag_200:\n        /* \"#utility.yul\":5814:5820   */\n      dup4\n        /* \"#utility.yul\":5811:5812   */\n      dup2\n        /* \"#utility.yul\":5808:5821   */\n      lt\n        /* \"#utility.yul\":5800:5913   */\n      iszero\n      tag_202\n      jumpi\n        /* \"#utility.yul\":5899:5900   */\n      dup1\n        /* \"#utility.yul\":5894:5897   */\n      dup3\n        /* \"#utility.yul\":5890:5901   */\n      add\n        /* \"#utility.yul\":5884:5902   */\n      mload\n        /* \"#utility.yul\":5880:5881   */\n      dup2\n        /* \"#utility.yul\":5875:5878   */\n      dup5\n        /* \"#utility.yul\":5871:5882   */\n      add\n        /* \"#utility.yul\":5864:5903   */\n      mstore\n        /* \"#utility.yul\":5836:5838   */\n      0x20\n        /* \"#utility.yul\":5833:5834   */\n      dup2\n        /* \"#utility.yul\":5829:5839   */\n      add\n        /* \"#utility.yul\":5824:5839   */\n      swap1\n      pop\n        /* \"#utility.yul\":5800:5913   */\n      jump(tag_200)\n    tag_202:\n        /* \"#utility.yul\":5947:5948   */\n      0x00\n        /* \"#utility.yul\":5938:5944   */\n      dup5\n        /* \"#utility.yul\":5933:5936   */\n      dup5\n        /* \"#utility.yul\":5929:5945   */\n      add\n        /* \"#utility.yul\":5922:5949   */\n      mstore\n        /* \"#utility.yul\":5770:5956   */\n      pop\n        /* \"#utility.yul\":5708:5956   */\n      pop\n      pop\n      pop\n      jump\t// out\n        /* \"#utility.yul\":5962:6348   */\n    tag_98:\n        /* \"#utility.yul\":6066:6069   */\n      0x00\n        /* \"#utility.yul\":6094:6132   */\n      tag_204\n        /* \"#utility.yul\":6126:6131   */\n      dup3\n        /* \"#utility.yul\":6094:6132   */\n      tag_95\n      jump\t// in\n    tag_204:\n        /* \"#utility.yul\":6148:6236   */\n      tag_205\n        /* \"#utility.yul\":6229:6235   */\n      dup2\n        /* \"#utility.yul\":6224:6227   */\n      dup6\n        /* \"#utility.yul\":6148:6236   */\n      tag_96\n      jump\t// in\n    tag_205:\n        /* \"#utility.yul\":6141:6236   */\n      swap4\n      pop\n        /* \"#utility.yul\":6245:6310   */\n      tag_206\n        /* \"#utility.yul\":6303:6309   */\n      dup2\n        /* \"#utility.yul\":6298:6301   */\n      dup6\n        /* \"#utility.yul\":6291:6295   */\n      0x20\n        /* \"#utility.yul\":6284:6289   */\n      dup7\n        /* \"#utility.yul\":6280:6296   */\n      add\n        /* \"#utility.yul\":6245:6310   */\n      tag_97\n      jump\t// in\n    tag_206:\n        /* \"#utility.yul\":6335:6341   */\n      dup1\n        /* \"#utility.yul\":6330:6333   */\n      dup5\n        /* \"#utility.yul\":6326:6342   */\n      add\n        /* \"#utility.yul\":6319:6342   */\n      swap2\n      pop\n        /* \"#utility.yul\":6070:6348   */\n      pop\n        /* \"#utility.yul\":5962:6348   */\n      swap3\n      swap2\n      pop\n      pop\n      jump\t// out\n        /* \"#utility.yul\":6354:6625   */\n    tag_43:\n        /* \"#utility.yul\":6484:6487   */\n      0x00\n        /* \"#utility.yul\":6506:6599   */\n      tag_208\n        /* \"#utility.yul\":6595:6598   */\n      dup3\n        /* \"#utility.yul\":6586:6592   */\n      dup5\n        /* \"#utility.yul\":6506:6599   */\n      tag_98\n      jump\t// in\n    tag_208:\n        /* \"#utility.yul\":6499:6599   */\n      swap2\n      pop\n        /* \"#utility.yul\":6616:6619   */\n      dup2\n        /* \"#utility.yul\":6609:6619   */\n      swap1\n      pop\n        /* \"#utility.yul\":6354:6625   */\n      swap3\n      swap2\n      pop\n      pop\n      jump\t// out\n        /* \"#utility.yul\":6631:6748   */\n    tag_99:\n        /* \"#utility.yul\":6740:6741   */\n      0x00\n        /* \"#utility.yul\":6737:6738   */\n      dup1\n        /* \"#utility.yul\":6730:6742   */\n      revert\n        /* \"#utility.yul\":6754:6856   */\n    tag_100:\n        /* \"#utility.yul\":6795:6801   */\n      0x00\n        /* \"#utility.yul\":6846:6848   */\n      0x1f\n        /* \"#utility.yul\":6842:6849   */\n      not\n        /* \"#utility.yul\":6837:6839   */\n      0x1f\n        /* \"#utility.yul\":6830:6835   */\n      dup4\n        /* \"#utility.yul\":6826:6840   */\n      add\n        /* \"#utility.yul\":6822:6850   */\n      and\n        /* \"#utility.yul\":6812:6850   */\n      swap1\n      pop\n        /* \"#utility.yul\":6754:6856   */\n      swap2\n      swap1\n      pop\n      jump\t// out\n        /* \"#utility.yul\":6862:7042   */\n    tag_101:\n        /* \"#utility.yul\":6910:6987   */\n      0x4e487b7100000000000000000000000000000000000000000000000000000000\n        /* \"#utility.yul\":6907:6908   */\n      0x00\n        /* \"#utility.yul\":6900:6988   */\n      mstore\n        /* \"#utility.yul\":7007:7011   */\n      0x41\n        /* \"#utility.yul\":7004:7005   */\n      0x04\n        /* \"#utility.yul\":6997:7012   */\n      mstore\n        /* \"#utility.yul\":7031:7035   */\n      0x24\n        /* \"#utility.yul\":7028:7029   */\n      0x00\n        /* \"#utility.yul\":7021:7036   */\n      revert\n        /* \"#utility.yul\":7048:7329   */\n    tag_102:\n        /* \"#utility.yul\":7131:7158   */\n      tag_213\n        /* \"#utility.yul\":7153:7157   */\n      dup3\n        /* \"#utility.yul\":7131:7158   */\n      tag_100\n      jump\t// in\n    tag_213:\n        /* \"#utility.yul\":7123:7129   */\n      dup2\n        /* \"#utility.yul\":7119:7159   */\n      add\n        /* \"#utility.yul\":7261:7267   */\n      dup2\n        /* \"#utility.yul\":7249:7259   */\n      dup2\n        /* \"#utility.yul\":7246:7268   */\n      lt\n        /* \"#utility.yul\":7225:7243   */\n      0xffffffffffffffff\n        /* \"#utility.yul\":7213:7223   */\n      dup3\n        /* \"#utility.yul\":7210:7244   */\n      gt\n        /* \"#utility.yul\":7207:7269   */\n      or\n        /* \"#utility.yul\":7204:7292   */\n      iszero\n      tag_214\n      jumpi\n        /* \"#utility.yul\":7272:7290   */\n      tag_215\n      tag_101\n      jump\t// in\n    tag_215:\n        /* \"#utility.yul\":7204:7292   */\n    tag_214:\n        /* \"#utility.yul\":7312:7322   */\n      dup1\n        /* \"#utility.yul\":7308:7310   */\n      0x40\n        /* \"#utility.yul\":7301:7323   */\n      mstore\n        /* \"#utility.yul\":7091:7329   */\n      pop\n        /* \"#utility.yul\":7048:7329   */\n      pop\n      pop\n      jump\t// out\n        /* \"#utility.yul\":7335:7464   */\n    tag_103:\n        /* \"#utility.yul\":7369:7375   */\n      0x00\n        /* \"#utility.yul\":7396:7416   */\n      tag_217\n      tag_71\n      jump\t// in\n    tag_217:\n        /* \"#utility.yul\":7386:7416   */\n      swap1\n      pop\n        /* \"#utility.yul\":7425:7458   */\n      tag_218\n        /* \"#utility.yul\":7453:7457   */\n      dup3\n        /* \"#utility.yul\":7445:7451   */\n      dup3\n        /* \"#utility.yul\":7425:7458   */\n      tag_102\n      jump\t// in\n    tag_218:\n        /* \"#utility.yul\":7335:7464   */\n      swap2\n      swap1\n      pop\n      jump\t// out\n        /* \"#utility.yul\":7470:7587   */\n    tag_104:\n        /* \"#utility.yul\":7579:7580   */\n      0x00\n        /* \"#utility.yul\":7576:7577   */\n      dup1\n        /* \"#utility.yul\":7569:7581   */\n      revert\n        /* \"#utility.yul\":7593:7670   */\n    tag_105:\n        /* \"#utility.yul\":7630:7637   */\n      0x00\n        /* \"#utility.yul\":7659:7664   */\n      dup2\n        /* \"#utility.yul\":7648:7664   */\n      swap1\n      pop\n        /* \"#utility.yul\":7593:7670   */\n      swap2\n      swap1\n      pop\n      jump\t// out\n        /* \"#utility.yul\":7676:7798   */\n    tag_106:\n        /* \"#utility.yul\":7749:7773   */\n      tag_222\n        /* \"#utility.yul\":7767:7772   */\n      dup2\n        /* \"#utility.yul\":7749:7773   */\n      tag_105\n      jump\t// in\n    tag_222:\n        /* \"#utility.yul\":7742:7747   */\n      dup2\n        /* \"#utility.yul\":7739:7774   */\n      eq\n        /* \"#utility.yul\":7729:7792   */\n      tag_223\n      jumpi\n        /* \"#utility.yul\":7788:7789   */\n      0x00\n        /* \"#utility.yul\":7785:7786   */\n      dup1\n        /* \"#utility.yul\":7778:7790   */\n      revert\n        /* \"#utility.yul\":7729:7792   */\n    tag_223:\n        /* \"#utility.yul\":7676:7798   */\n      pop\n      jump\t// out\n        /* \"#utility.yul\":7804:7943   */\n    tag_107:\n        /* \"#utility.yul\":7850:7855   */\n      0x00\n        /* \"#utility.yul\":7888:7894   */\n      dup2\n        /* \"#utility.yul\":7875:7895   */\n      calldataload\n        /* \"#utility.yul\":7866:7895   */\n      swap1\n      pop\n        /* \"#utility.yul\":7904:7937   */\n      tag_225\n        /* \"#utility.yul\":7931:7936   */\n      dup2\n        /* \"#utility.yul\":7904:7937   */\n      tag_106\n      jump\t// in\n    tag_225:\n        /* \"#utility.yul\":7804:7943   */\n      swap3\n      swap2\n      pop\n      pop\n      jump\t// out\n        /* \"#utility.yul\":7949:8050   */\n    tag_108:\n        /* \"#utility.yul\":7985:7992   */\n      0x00\n        /* \"#utility.yul\":8025:8043   */\n      0xffffffffffffffff\n        /* \"#utility.yul\":8018:8023   */\n      dup3\n        /* \"#utility.yul\":8014:8044   */\n      and\n        /* \"#utility.yul\":8003:8044   */\n      swap1\n      pop\n        /* \"#utility.yul\":7949:8050   */\n      swap2\n      swap1\n      pop\n      jump\t// out\n        /* \"#utility.yul\":8056:8176   */\n    tag_109:\n        /* \"#utility.yul\":8128:8151   */\n      tag_228\n        /* \"#utility.yul\":8145:8150   */\n      dup2\n        /* \"#utility.yul\":8128:8151   */\n      tag_108\n      jump\t// in\n    tag_228:\n        /* \"#utility.yul\":8121:8126   */\n      dup2\n        /* \"#utility.yul\":8118:8152   */\n      eq\n        /* \"#utility.yul\":8108:8170   */\n      tag_229\n      jumpi\n        /* \"#utility.yul\":8166:8167   */\n      0x00\n        /* \"#utility.yul\":8163:8164   */\n      dup1\n        /* \"#utility.yul\":8156:8168   */\n      revert\n        /* \"#utility.yul\":8108:8170   */\n    tag_229:\n        /* \"#utility.yul\":8056:8176   */\n      pop\n      jump\t// out\n        /* \"#utility.yul\":8182:8319   */\n    tag_110:\n        /* \"#utility.yul\":8227:8232   */\n      0x00\n        /* \"#utility.yul\":8265:8271   */\n      dup2\n        /* \"#utility.yul\":8252:8272   */\n      calldataload\n        /* \"#utility.yul\":8243:8272   */\n      swap1\n      pop\n        /* \"#utility.yul\":8281:8313   */\n      tag_231\n        /* \"#utility.yul\":8307:8312   */\n      dup2\n        /* \"#utility.yul\":8281:8313   */\n      tag_109\n      jump\t// in\n    tag_231:\n        /* \"#utility.yul\":8182:8319   */\n      swap3\n      swap2\n      pop\n      pop\n      jump\t// out\n        /* \"#utility.yul\":8325:8442   */\n    tag_111:\n        /* \"#utility.yul\":8434:8435   */\n      0x00\n        /* \"#utility.yul\":8431:8432   */\n      dup1\n        /* \"#utility.yul\":8424:8436   */\n      revert\n        /* \"#utility.yul\":8448:8565   */\n    tag_112:\n        /* \"#utility.yul\":8557:8558   */\n      0x00\n        /* \"#utility.yul\":8554:8555   */\n      dup1\n        /* \"#utility.yul\":8547:8559   */\n      revert\n        /* \"#utility.yul\":8571:8878   */\n    tag_113:\n        /* \"#utility.yul\":8632:8636   */\n      0x00\n        /* \"#utility.yul\":8722:8740   */\n      0xffffffffffffffff\n        /* \"#utility.yul\":8714:8720   */\n      dup3\n        /* \"#utility.yul\":8711:8741   */\n      gt\n        /* \"#utility.yul\":8708:8764   */\n      iszero\n      tag_235\n      jumpi\n        /* \"#utility.yul\":8744:8762   */\n      tag_236\n      tag_101\n      jump\t// in\n    tag_236:\n        /* \"#utility.yul\":8708:8764   */\n    tag_235:\n        /* \"#utility.yul\":8782:8811   */\n      tag_237\n        /* \"#utility.yul\":8804:8810   */\n      dup3\n        /* \"#utility.yul\":8782:8811   */\n      tag_100\n      jump\t// in\n    tag_237:\n        /* \"#utility.yul\":8774:8811   */\n      swap1\n      pop\n        /* \"#utility.yul\":8866:8870   */\n      0x20\n        /* \"#utility.yul\":8860:8864   */\n      dup2\n        /* \"#utility.yul\":8856:8871   */\n      add\n        /* \"#utility.yul\":8848:8871   */\n      swap1\n      pop\n        /* \"#utility.yul\":8571:8878   */\n      swap2\n      swap1\n      pop\n      jump\t// out\n        /* \"#utility.yul\":8884:9032   */\n    tag_114:\n        /* \"#utility.yul\":8982:8988   */\n      dup3\n        /* \"#utility.yul\":8977:8980   */\n      dup2\n        /* \"#utility.yul\":8972:8975   */\n      dup4\n        /* \"#utility.yul\":8959:8989   */\n      calldatacopy\n        /* \"#utility.yul\":9023:9024   */\n      0x00\n        /* \"#utility.yul\":9014:9020   */\n      dup4\n        /* \"#utility.yul\":9009:9012   */\n      dup4\n        /* \"#utility.yul\":9005:9021   */\n      add\n        /* \"#utility.yul\":8998:9025   */\n      mstore\n        /* \"#utility.yul\":8884:9032   */\n      pop\n      pop\n      pop\n      jump\t// out\n        /* \"#utility.yul\":9038:9461   */\n    tag_115:\n        /* \"#utility.yul\":9115:9120   */\n      0x00\n        /* \"#utility.yul\":9140:9205   */\n      tag_240\n        /* \"#utility.yul\":9156:9204   */\n      tag_241\n        /* \"#utility.yul\":9197:9203   */\n      dup5\n        /* \"#utility.yul\":9156:9204   */\n      tag_113\n      jump\t// in\n    tag_241:\n        /* \"#utility.yul\":9140:9205   */\n      tag_103\n      jump\t// in\n    tag_240:\n        /* \"#utility.yul\":9131:9205   */\n      swap1\n      pop\n        /* \"#utility.yul\":9228:9234   */\n      dup3\n        /* \"#utility.yul\":9221:9226   */\n      dup2\n        /* \"#utility.yul\":9214:9235   */\n      mstore\n        /* \"#utility.yul\":9266:9270   */\n      0x20\n        /* \"#utility.yul\":9259:9264   */\n      dup2\n        /* \"#utility.yul\":9255:9271   */\n      add\n        /* \"#utility.yul\":9304:9307   */\n      dup5\n        /* \"#utility.yul\":9295:9301   */\n      dup5\n        /* \"#utility.yul\":9290:9293   */\n      dup5\n        /* \"#utility.yul\":9286:9302   */\n      add\n        /* \"#utility.yul\":9283:9308   */\n      gt\n        /* \"#utility.yul\":9280:9392   */\n      iszero\n      tag_242\n      jumpi\n        /* \"#utility.yul\":9311:9390   */\n      tag_243\n      tag_112\n      jump\t// in\n    tag_243:\n        /* \"#utility.yul\":9280:9392   */\n    tag_242:\n        /* \"#utility.yul\":9401:9455   */\n      tag_244\n        /* \"#utility.yul\":9448:9454   */\n      dup5\n        /* \"#utility.yul\":9443:9446   */\n      dup3\n        /* \"#utility.yul\":9438:9441   */\n      dup6\n        /* \"#utility.yul\":9401:9455   */\n      tag_114\n      jump\t// in\n    tag_244:\n        /* \"#utility.yul\":9121:9461   */\n      pop\n        /* \"#utility.yul\":9038:9461   */\n      swap4\n      swap3\n      pop\n      pop\n      pop\n      jump\t// out\n        /* \"#utility.yul\":9480:9818   */\n    tag_116:\n        /* \"#utility.yul\":9535:9540   */\n      0x00\n        /* \"#utility.yul\":9584:9587   */\n      dup3\n        /* \"#utility.yul\":9577:9581   */\n      0x1f\n        /* \"#utility.yul\":9569:9575   */\n      dup4\n        /* \"#utility.yul\":9565:9582   */\n      add\n        /* \"#utility.yul\":9561:9588   */\n      slt\n        /* \"#utility.yul\":9551:9673   */\n      tag_246\n      jumpi\n        /* \"#utility.yul\":9592:9671   */\n      tag_247\n      tag_111\n      jump\t// in\n    tag_247:\n        /* \"#utility.yul\":9551:9673   */\n    tag_246:\n        /* \"#utility.yul\":9709:9715   */\n      dup2\n        /* \"#utility.yul\":9696:9716   */\n      calldataload\n        /* \"#utility.yul\":9734:9812   */\n      tag_248\n        /* \"#utility.yul\":9808:9811   */\n      dup5\n        /* \"#utility.yul\":9800:9806   */\n      dup3\n        /* \"#utility.yul\":9793:9797   */\n      0x20\n        /* \"#utility.yul\":9785:9791   */\n      dup7\n        /* \"#utility.yul\":9781:9798   */\n      add\n        /* \"#utility.yul\":9734:9812   */\n      tag_115\n      jump\t// in\n    tag_248:\n        /* \"#utility.yul\":9725:9812   */\n      swap2\n      pop\n        /* \"#utility.yul\":9541:9818   */\n      pop\n        /* \"#utility.yul\":9480:9818   */\n      swap3\n      swap2\n      pop\n      pop\n      jump\t// out\n        /* \"#utility.yul\":9824:10166   */\n    tag_117:\n        /* \"#utility.yul\":9932:9936   */\n      0x00\n        /* \"#utility.yul\":10022:10040   */\n      0xffffffffffffffff\n        /* \"#utility.yul\":10014:10020   */\n      dup3\n        /* \"#utility.yul\":10011:10041   */\n      gt\n        /* \"#utility.yul\":10008:10064   */\n      iszero\n      tag_250\n      jumpi\n        /* \"#utility.yul\":10044:10062   */\n      tag_251\n      tag_101\n      jump\t// in\n    tag_251:\n        /* \"#utility.yul\":10008:10064   */\n    tag_250:\n        /* \"#utility.yul\":10094:10098   */\n      0x20\n        /* \"#utility.yul\":10086:10092   */\n      dup3\n        /* \"#utility.yul\":10082:10099   */\n      mul\n        /* \"#utility.yul\":10074:10099   */\n      swap1\n      pop\n        /* \"#utility.yul\":10154:10158   */\n      0x20\n        /* \"#utility.yul\":10148:10152   */\n      dup2\n        /* \"#utility.yul\":10144:10159   */\n      add\n        /* \"#utility.yul\":10136:10159   */\n      swap1\n      pop\n        /* \"#utility.yul\":9824:10166   */\n      swap2\n      swap1\n      pop\n      jump\t// out\n        /* \"#utility.yul\":10172:10289   */\n    tag_118:\n        /* \"#utility.yul\":10281:10282   */\n      0x00\n        /* \"#utility.yul\":10278:10279   */\n      dup1\n        /* \"#utility.yul\":10271:10283   */\n      revert\n        /* \"#utility.yul\":10295:10372   */\n    tag_119:\n        /* \"#utility.yul\":10332:10339   */\n      0x00\n        /* \"#utility.yul\":10361:10366   */\n      dup2\n        /* \"#utility.yul\":10350:10366   */\n      swap1\n      pop\n        /* \"#utility.yul\":10295:10372   */\n      swap2\n      swap1\n      pop\n      jump\t// out\n        /* \"#utility.yul\":10378:10500   */\n    tag_120:\n        /* \"#utility.yul\":10451:10475   */\n      tag_255\n        /* \"#utility.yul\":10469:10474   */\n      dup2\n        /* \"#utility.yul\":10451:10475   */\n      tag_119\n      jump\t// in\n    tag_255:\n        /* \"#utility.yul\":10444:10449   */\n      dup2\n        /* \"#utility.yul\":10441:10476   */\n      eq\n        /* \"#utility.yul\":10431:10494   */\n      tag_256\n      jumpi\n        /* \"#utility.yul\":10490:10491   */\n      0x00\n        /* \"#utility.yul\":10487:10488   */\n      dup1\n        /* \"#utility.yul\":10480:10492   */\n      revert\n        /* \"#utility.yul\":10431:10494   */\n    tag_256:\n        /* \"#utility.yul\":10378:10500   */\n      pop\n      jump\t// out\n        /* \"#utility.yul\":10506:10645   */\n    tag_121:\n        /* \"#utility.yul\":10552:10557   */\n      0x00\n        /* \"#utility.yul\":10590:10596   */\n      dup2\n        /* \"#utility.yul\":10577:10597   */\n      calldataload\n        /* \"#utility.yul\":10568:10597   */\n      swap1\n      pop\n        /* \"#utility.yul\":10606:10639   */\n      tag_258\n        /* \"#utility.yul\":10633:10638   */\n      dup2\n        /* \"#utility.yul\":10606:10639   */\n      tag_120\n      jump\t// in\n    tag_258:\n        /* \"#utility.yul\":10506:10645   */\n      swap3\n      swap2\n      pop\n      pop\n      jump\t// out\n        /* \"#utility.yul\":10687:11270   */\n    tag_122:\n        /* \"#utility.yul\":10767:10772   */\n      0x00\n        /* \"#utility.yul\":10811:10815   */\n      0x40\n        /* \"#utility.yul\":10799:10808   */\n      dup3\n        /* \"#utility.yul\":10794:10797   */\n      dup5\n        /* \"#utility.yul\":10790:10809   */\n      sub\n        /* \"#utility.yul\":10786:10816   */\n      slt\n        /* \"#utility.yul\":10783:10900   */\n      iszero\n      tag_260\n      jumpi\n        /* \"#utility.yul\":10819:10898   */\n      tag_261\n      tag_99\n      jump\t// in\n    tag_261:\n        /* \"#utility.yul\":10783:10900   */\n    tag_260:\n        /* \"#utility.yul\":10918:10939   */\n      tag_262\n        /* \"#utility.yul\":10934:10938   */\n      0x40\n        /* \"#utility.yul\":10918:10939   */\n      tag_103\n      jump\t// in\n    tag_262:\n        /* \"#utility.yul\":10909:10939   */\n      swap1\n      pop\n        /* \"#utility.yul\":10999:11000   */\n      0x00\n        /* \"#utility.yul\":11039:11088   */\n      tag_263\n        /* \"#utility.yul\":11084:11087   */\n      dup5\n        /* \"#utility.yul\":11075:11081   */\n      dup3\n        /* \"#utility.yul\":11064:11073   */\n      dup6\n        /* \"#utility.yul\":11060:11082   */\n      add\n        /* \"#utility.yul\":11039:11088   */\n      tag_87\n      jump\t// in\n    tag_263:\n        /* \"#utility.yul\":11032:11036   */\n      0x00\n        /* \"#utility.yul\":11025:11030   */\n      dup4\n        /* \"#utility.yul\":11021:11037   */\n      add\n        /* \"#utility.yul\":11014:11089   */\n      mstore\n        /* \"#utility.yul\":10949:11100   */\n      pop\n        /* \"#utility.yul\":11161:11163   */\n      0x20\n        /* \"#utility.yul\":11202:11251   */\n      tag_264\n        /* \"#utility.yul\":11247:11250   */\n      dup5\n        /* \"#utility.yul\":11238:11244   */\n      dup3\n        /* \"#utility.yul\":11227:11236   */\n      dup6\n        /* \"#utility.yul\":11223:11245   */\n      add\n        /* \"#utility.yul\":11202:11251   */\n      tag_121\n      jump\t// in\n    tag_264:\n        /* \"#utility.yul\":11195:11199   */\n      0x20\n        /* \"#utility.yul\":11188:11193   */\n      dup4\n        /* \"#utility.yul\":11184:11200   */\n      add\n        /* \"#utility.yul\":11177:11252   */\n      mstore\n        /* \"#utility.yul\":11110:11263   */\n      pop\n        /* \"#utility.yul\":10687:11270   */\n      swap3\n      swap2\n      pop\n      pop\n      jump\t// out\n        /* \"#utility.yul\":11314:12117   */\n    tag_123:\n        /* \"#utility.yul\":11441:11446   */\n      0x00\n        /* \"#utility.yul\":11466:11578   */\n      tag_266\n        /* \"#utility.yul\":11482:11577   */\n      tag_267\n        /* \"#utility.yul\":11570:11576   */\n      dup5\n        /* \"#utility.yul\":11482:11577   */\n      tag_117\n      jump\t// in\n    tag_267:\n        /* \"#utility.yul\":11466:11578   */\n      tag_103\n      jump\t// in\n    tag_266:\n        /* \"#utility.yul\":11457:11578   */\n      swap1\n      pop\n        /* \"#utility.yul\":11598:11603   */\n      dup1\n        /* \"#utility.yul\":11627:11633   */\n      dup4\n        /* \"#utility.yul\":11620:11625   */\n      dup3\n        /* \"#utility.yul\":11613:11634   */\n      mstore\n        /* \"#utility.yul\":11661:11665   */\n      0x20\n        /* \"#utility.yul\":11654:11659   */\n      dup3\n        /* \"#utility.yul\":11650:11666   */\n      add\n        /* \"#utility.yul\":11643:11666   */\n      swap1\n      pop\n        /* \"#utility.yul\":11714:11718   */\n      0x40\n        /* \"#utility.yul\":11706:11712   */\n      dup5\n        /* \"#utility.yul\":11702:11719   */\n      mul\n        /* \"#utility.yul\":11694:11700   */\n      dup4\n        /* \"#utility.yul\":11690:11720   */\n      add\n        /* \"#utility.yul\":11743:11746   */\n      dup6\n        /* \"#utility.yul\":11735:11741   */\n      dup2\n        /* \"#utility.yul\":11732:11747   */\n      gt\n        /* \"#utility.yul\":11729:11851   */\n      iszero\n      tag_268\n      jumpi\n        /* \"#utility.yul\":11762:11841   */\n      tag_269\n      tag_118\n      jump\t// in\n    tag_269:\n        /* \"#utility.yul\":11729:11851   */\n    tag_268:\n        /* \"#utility.yul\":11877:11883   */\n      dup4\n        /* \"#utility.yul\":11860:12111   */\n    tag_270:\n        /* \"#utility.yul\":11894:11900   */\n      dup2\n        /* \"#utility.yul\":11889:11892   */\n      dup2\n        /* \"#utility.yul\":11886:11901   */\n      lt\n        /* \"#utility.yul\":11860:12111   */\n      iszero\n      tag_272\n      jumpi\n        /* \"#utility.yul\":11969:11972   */\n      dup1\n        /* \"#utility.yul\":11998:12066   */\n      tag_273\n        /* \"#utility.yul\":12062:12065   */\n      dup9\n        /* \"#utility.yul\":12050:12060   */\n      dup3\n        /* \"#utility.yul\":11998:12066   */\n      tag_122\n      jump\t// in\n    tag_273:\n        /* \"#utility.yul\":11993:11996   */\n      dup5\n        /* \"#utility.yul\":11986:12067   */\n      mstore\n        /* \"#utility.yul\":12096:12100   */\n      0x20\n        /* \"#utility.yul\":12091:12094   */\n      dup5\n        /* \"#utility.yul\":12087:12101   */\n      add\n        /* \"#utility.yul\":12080:12101   */\n      swap4\n      pop\n        /* \"#utility.yul\":11936:12111   */\n      pop\n        /* \"#utility.yul\":11920:11924   */\n      0x40\n        /* \"#utility.yul\":11915:11918   */\n      dup2\n        /* \"#utility.yul\":11911:11925   */\n      add\n        /* \"#utility.yul\":11904:11925   */\n      swap1\n      pop\n        /* \"#utility.yul\":11860:12111   */\n      jump(tag_270)\n    tag_272:\n        /* \"#utility.yul\":11864:11885   */\n      pop\n        /* \"#utility.yul\":11447:12117   */\n      pop\n      pop\n        /* \"#utility.yul\":11314:12117   */\n      swap4\n      swap3\n      pop\n      pop\n      pop\n      jump\t// out\n        /* \"#utility.yul\":12161:12593   */\n    tag_124:\n        /* \"#utility.yul\":12263:12268   */\n      0x00\n        /* \"#utility.yul\":12312:12315   */\n      dup3\n        /* \"#utility.yul\":12305:12309   */\n      0x1f\n        /* \"#utility.yul\":12297:12303   */\n      dup4\n        /* \"#utility.yul\":12293:12310   */\n      add\n        /* \"#utility.yul\":12289:12316   */\n      slt\n        /* \"#utility.yul\":12279:12401   */\n      tag_275\n      jumpi\n        /* \"#utility.yul\":12320:12399   */\n      tag_276\n      tag_111\n      jump\t// in\n    tag_276:\n        /* \"#utility.yul\":12279:12401   */\n    tag_275:\n        /* \"#utility.yul\":12437:12443   */\n      dup2\n        /* \"#utility.yul\":12424:12444   */\n      calldataload\n        /* \"#utility.yul\":12462:12587   */\n      tag_277\n        /* \"#utility.yul\":12583:12586   */\n      dup5\n        /* \"#utility.yul\":12575:12581   */\n      dup3\n        /* \"#utility.yul\":12568:12572   */\n      0x20\n        /* \"#utility.yul\":12560:12566   */\n      dup7\n        /* \"#utility.yul\":12556:12573   */\n      add\n        /* \"#utility.yul\":12462:12587   */\n      tag_123\n      jump\t// in\n    tag_277:\n        /* \"#utility.yul\":12453:12587   */\n      swap2\n      pop\n        /* \"#utility.yul\":12269:12593   */\n      pop\n        /* \"#utility.yul\":12161:12593   */\n      swap3\n      swap2\n      pop\n      pop\n      jump\t// out\n        /* \"#utility.yul\":12635:14286   */\n    tag_125:\n        /* \"#utility.yul\":12715:12720   */\n      0x00\n        /* \"#utility.yul\":12759:12763   */\n      0xa0\n        /* \"#utility.yul\":12747:12756   */\n      dup3\n        /* \"#utility.yul\":12742:12745   */\n      dup5\n        /* \"#utility.yul\":12738:12757   */\n      sub\n        /* \"#utility.yul\":12734:12764   */\n      slt\n        /* \"#utility.yul\":12731:12848   */\n      iszero\n      tag_279\n      jumpi\n        /* \"#utility.yul\":12767:12846   */\n      tag_280\n      tag_99\n      jump\t// in\n    tag_280:\n        /* \"#utility.yul\":12731:12848   */\n    tag_279:\n        /* \"#utility.yul\":12866:12887   */\n      tag_281\n        /* \"#utility.yul\":12882:12886   */\n      0xa0\n        /* \"#utility.yul\":12866:12887   */\n      tag_103\n      jump\t// in\n    tag_281:\n        /* \"#utility.yul\":12857:12887   */\n      swap1\n      pop\n        /* \"#utility.yul\":12951:12952   */\n      0x00\n        /* \"#utility.yul\":12991:13040   */\n      tag_282\n        /* \"#utility.yul\":13036:13039   */\n      dup5\n        /* \"#utility.yul\":13027:13033   */\n      dup3\n        /* \"#utility.yul\":13016:13025   */\n      dup6\n        /* \"#utility.yul\":13012:13034   */\n      add\n        /* \"#utility.yul\":12991:13040   */\n      tag_107\n      jump\t// in\n    tag_282:\n        /* \"#utility.yul\":12984:12988   */\n      0x00\n        /* \"#utility.yul\":12977:12982   */\n      dup4\n        /* \"#utility.yul\":12973:12989   */\n      add\n        /* \"#utility.yul\":12966:13041   */\n      mstore\n        /* \"#utility.yul\":12897:13052   */\n      pop\n        /* \"#utility.yul\":13126:13128   */\n      0x20\n        /* \"#utility.yul\":13167:13215   */\n      tag_283\n        /* \"#utility.yul\":13211:13214   */\n      dup5\n        /* \"#utility.yul\":13202:13208   */\n      dup3\n        /* \"#utility.yul\":13191:13200   */\n      dup6\n        /* \"#utility.yul\":13187:13209   */\n      add\n        /* \"#utility.yul\":13167:13215   */\n      tag_110\n      jump\t// in\n    tag_283:\n        /* \"#utility.yul\":13160:13164   */\n      0x20\n        /* \"#utility.yul\":13153:13158   */\n      dup4\n        /* \"#utility.yul\":13149:13165   */\n      add\n        /* \"#utility.yul\":13142:13216   */\n      mstore\n        /* \"#utility.yul\":13062:13227   */\n      pop\n        /* \"#utility.yul\":13316:13318   */\n      0x40\n        /* \"#utility.yul\":13305:13314   */\n      dup3\n        /* \"#utility.yul\":13301:13319   */\n      add\n        /* \"#utility.yul\":13288:13320   */\n      calldataload\n        /* \"#utility.yul\":13347:13365   */\n      0xffffffffffffffff\n        /* \"#utility.yul\":13339:13345   */\n      dup2\n        /* \"#utility.yul\":13336:13366   */\n      gt\n        /* \"#utility.yul\":13333:13450   */\n      iszero\n      tag_284\n      jumpi\n        /* \"#utility.yul\":13369:13448   */\n      tag_285\n      tag_104\n      jump\t// in\n    tag_285:\n        /* \"#utility.yul\":13333:13450   */\n    tag_284:\n        /* \"#utility.yul\":13489:13547   */\n      tag_286\n        /* \"#utility.yul\":13543:13546   */\n      dup5\n        /* \"#utility.yul\":13534:13540   */\n      dup3\n        /* \"#utility.yul\":13523:13532   */\n      dup6\n        /* \"#utility.yul\":13519:13541   */\n      add\n        /* \"#utility.yul\":13489:13547   */\n      tag_116\n      jump\t// in\n    tag_286:\n        /* \"#utility.yul\":13482:13486   */\n      0x40\n        /* \"#utility.yul\":13475:13480   */\n      dup4\n        /* \"#utility.yul\":13471:13487   */\n      add\n        /* \"#utility.yul\":13464:13548   */\n      mstore\n        /* \"#utility.yul\":13237:13559   */\n      pop\n        /* \"#utility.yul\":13646:13648   */\n      0x60\n        /* \"#utility.yul\":13635:13644   */\n      dup3\n        /* \"#utility.yul\":13631:13649   */\n      add\n        /* \"#utility.yul\":13618:13650   */\n      calldataload\n        /* \"#utility.yul\":13677:13695   */\n      0xffffffffffffffff\n        /* \"#utility.yul\":13669:13675   */\n      dup2\n        /* \"#utility.yul\":13666:13696   */\n      gt\n        /* \"#utility.yul\":13663:13780   */\n      iszero\n      tag_287\n      jumpi\n        /* \"#utility.yul\":13699:13778   */\n      tag_288\n      tag_104\n      jump\t// in\n    tag_288:\n        /* \"#utility.yul\":13663:13780   */\n    tag_287:\n        /* \"#utility.yul\":13819:13877   */\n      tag_289\n        /* \"#utility.yul\":13873:13876   */\n      dup5\n        /* \"#utility.yul\":13864:13870   */\n      dup3\n        /* \"#utility.yul\":13853:13862   */\n      dup6\n        /* \"#utility.yul\":13849:13871   */\n      add\n        /* \"#utility.yul\":13819:13877   */\n      tag_116\n      jump\t// in\n    tag_289:\n        /* \"#utility.yul\":13812:13816   */\n      0x60\n        /* \"#utility.yul\":13805:13810   */\n      dup4\n        /* \"#utility.yul\":13801:13817   */\n      add\n        /* \"#utility.yul\":13794:13878   */\n      mstore\n        /* \"#utility.yul\":13569:13889   */\n      pop\n        /* \"#utility.yul\":13988:13991   */\n      0x80\n        /* \"#utility.yul\":13977:13986   */\n      dup3\n        /* \"#utility.yul\":13973:13992   */\n      add\n        /* \"#utility.yul\":13960:13993   */\n      calldataload\n        /* \"#utility.yul\":14020:14038   */\n      0xffffffffffffffff\n        /* \"#utility.yul\":14012:14018   */\n      dup2\n        /* \"#utility.yul\":14009:14039   */\n      gt\n        /* \"#utility.yul\":14006:14123   */\n      iszero\n      tag_290\n      jumpi\n        /* \"#utility.yul\":14042:14121   */\n      tag_291\n      tag_104\n      jump\t// in\n    tag_291:\n        /* \"#utility.yul\":14006:14123   */\n    tag_290:\n        /* \"#utility.yul\":14162:14267   */\n      tag_292\n        /* \"#utility.yul\":14263:14266   */\n      dup5\n        /* \"#utility.yul\":14254:14260   */\n      dup3\n        /* \"#utility.yul\":14243:14252   */\n      dup6\n        /* \"#utility.yul\":14239:14261   */\n      add\n        /* \"#utility.yul\":14162:14267   */\n      tag_124\n      jump\t// in\n    tag_292:\n        /* \"#utility.yul\":14155:14159   */\n      0x80\n        /* \"#utility.yul\":14148:14153   */\n      dup4\n        /* \"#utility.yul\":14144:14160   */\n      add\n        /* \"#utility.yul\":14137:14268   */\n      mstore\n        /* \"#utility.yul\":13899:14279   */\n      pop\n        /* \"#utility.yul\":12635:14286   */\n      swap3\n      swap2\n      pop\n      pop\n      jump\t// out\n        /* \"#utility.yul\":14292:14521   */\n    tag_56:\n        /* \"#utility.yul\":14406:14415   */\n      0x00\n        /* \"#utility.yul\":14440:14514   */\n      tag_294\n        /* \"#utility.yul\":14499:14513   */\n      calldatasize\n        /* \"#utility.yul\":14492:14497   */\n      dup4\n        /* \"#utility.yul\":14440:14514   */\n      tag_125\n      jump\t// in\n    tag_294:\n        /* \"#utility.yul\":14427:14514   */\n      swap1\n      pop\n        /* \"#utility.yul\":14292:14521   */\n      swap2\n      swap1\n      pop\n      jump\t// out\n        /* \"#utility.yul\":14527:14685   */\n    tag_126:\n        /* \"#utility.yul\":14585:14594   */\n      0x00\n        /* \"#utility.yul\":14618:14679   */\n      tag_296\n        /* \"#utility.yul\":14636:14678   */\n      tag_297\n        /* \"#utility.yul\":14645:14677   */\n      tag_298\n        /* \"#utility.yul\":14671:14676   */\n      dup5\n        /* \"#utility.yul\":14645:14677   */\n      tag_91\n      jump\t// in\n    tag_298:\n        /* \"#utility.yul\":14636:14678   */\n      tag_80\n      jump\t// in\n    tag_297:\n        /* \"#utility.yul\":14618:14679   */\n      tag_119\n      jump\t// in\n    tag_296:\n        /* \"#utility.yul\":14605:14679   */\n      swap1\n      pop\n        /* \"#utility.yul\":14527:14685   */\n      swap2\n      swap1\n      pop\n      jump\t// out\n        /* \"#utility.yul\":14691:14838   */\n    tag_127:\n        /* \"#utility.yul\":14786:14831   */\n      tag_300\n        /* \"#utility.yul\":14825:14830   */\n      dup2\n        /* \"#utility.yul\":14786:14831   */\n      tag_126\n      jump\t// in\n    tag_300:\n        /* \"#utility.yul\":14781:14784   */\n      dup3\n        /* \"#utility.yul\":14774:14832   */\n      mstore\n        /* \"#utility.yul\":14691:14838   */\n      pop\n      pop\n      jump\t// out\n        /* \"#utility.yul\":14844:15192   */\n    tag_60:\n        /* \"#utility.yul\":14973:14977   */\n      0x00\n        /* \"#utility.yul\":15011:15013   */\n      0x40\n        /* \"#utility.yul\":15000:15009   */\n      dup3\n        /* \"#utility.yul\":14996:15014   */\n      add\n        /* \"#utility.yul\":14988:15014   */\n      swap1\n      pop\n        /* \"#utility.yul\":15024:15095   */\n      tag_302\n        /* \"#utility.yul\":15092:15093   */\n      0x00\n        /* \"#utility.yul\":15081:15090   */\n      dup4\n        /* \"#utility.yul\":15077:15094   */\n      add\n        /* \"#utility.yul\":15068:15074   */\n      dup6\n        /* \"#utility.yul\":15024:15095   */\n      tag_90\n      jump\t// in\n    tag_302:\n        /* \"#utility.yul\":15105:15185   */\n      tag_303\n        /* \"#utility.yul\":15181:15183   */\n      0x20\n        /* \"#utility.yul\":15170:15179   */\n      dup4\n        /* \"#utility.yul\":15166:15184   */\n      add\n        /* \"#utility.yul\":15157:15163   */\n      dup5\n        /* \"#utility.yul\":15105:15185   */\n      tag_127\n      jump\t// in\n    tag_303:\n        /* \"#utility.yul\":14844:15192   */\n      swap4\n      swap3\n      pop\n      pop\n      pop\n      jump\t// out\n\n    auxdata: 0xa26469706673582212202f3e32fc9711bb6838190d6e4807783acf691523c7f51d5eb44892545ef7227564736f6c634300081a0033\n}\n",
				"bytecode": {
					"linkReferences": {},
					"object": "60a0604052730bf3de8c5d3e8a2b34d2beeb17abfcebaf363a59600160006101000a81548173ffffffffffffffffffffffffffffffffffffffff021916908373ffffffffffffffffffffffffffffffffffffffff16021790555034801561006557600080fd5b50604051611047380380611047833981810160405281019061008791906101fa565b600160009054906101000a900473ffffffffffffffffffffffffffffffffffffffff16600073ffffffffffffffffffffffffffffffffffffffff168173ffffffffffffffffffffffffffffffffffffffff160361011c5760006040517fd7f733340000000000000000000000000000000000000000000000000000000081526004016101139190610236565b60405180910390fd5b8073ffffffffffffffffffffffffffffffffffffffff1660808173ffffffffffffffffffffffffffffffffffffffff168152505050806000806101000a81548173ffffffffffffffffffffffffffffffffffffffff021916908373ffffffffffffffffffffffffffffffffffffffff16021790555050610251565b600080fd5b600073ffffffffffffffffffffffffffffffffffffffff82169050919050565b60006101c78261019c565b9050919050565b6101d7816101bc565b81146101e257600080fd5b50565b6000815190506101f4816101ce565b92915050565b6000602082840312156102105761020f610197565b5b600061021e848285016101e5565b91505092915050565b610230816101bc565b82525050565b600060208201905061024b6000830184610227565b92915050565b608051610ddb61026c60003960006104f00152610ddb6000f3fe608060405234801561001057600080fd5b506004361061007d5760003560e01c80635be68e931161005b5780635be68e93146100da57806385572ffb146100f65780639642ddaf14610112578063b0f479a11461011c5761007d565b806301ffc9a71461008257806308076601146100b257806347ccca02146100bc575b600080fd5b61009c6004803603810190610097919061064c565b61013a565b6040516100a99190610694565b60405180910390f35b6100ba61020c565b005b6100c4610369565b6040516100d1919061072e565b60405180910390f35b6100f460048036038101906100ef9190610787565b61038d565b005b610110600480360381019061010b91906107d8565b6103d0565b005b61011a61045c565b005b6101246104ec565b6040516101319190610830565b60405180910390f35b60007f85572ffb000000000000000000000000000000000000000000000000000000007bffffffffffffffffffffffffffffffffffffffffffffffffffffffff1916827bffffffffffffffffffffffffffffffffffffffffffffffffffffffff1916148061020557507f01ffc9a7000000000000000000000000000000000000000000000000000000007bffffffffffffffffffffffffffffffffffffffffffffffffffffffff1916827bffffffffffffffffffffffffffffffffffffffffffffffffffffffff1916145b9050919050565b6060336000604051602401610222929190610893565b6040516020818303038152906040527f1cc74859000000000000000000000000000000000000000000000000000000007bffffffffffffffffffffffffffffffffffffffffffffffffffffffff19166020820180517bffffffffffffffffffffffffffffffffffffffffffffffffffffffff8381831617835250505050905060008060009054906101000a900473ffffffffffffffffffffffffffffffffffffffff1673ffffffffffffffffffffffffffffffffffffffff16826040516102e9919061092d565b6000604051808303816000865af19150503d8060008114610326576040519150601f19603f3d011682016040523d82523d6000602084013e61032b565b606091505b505090508061033957600080fd5b7fa8bcb6a278444293ea5c0bce4a4734a060a5f557bb999d8a57c4f69e96f1fe8860405160405180910390a15050565b60008054906101000a900473ffffffffffffffffffffffffffffffffffffffff1681565b806000806101000a81548173ffffffffffffffffffffffffffffffffffffffff021916908373ffffffffffffffffffffffffffffffffffffffff16021790555050565b6103d86104ec565b73ffffffffffffffffffffffffffffffffffffffff163373ffffffffffffffffffffffffffffffffffffffff161461044757336040517fd7f7333400000000000000000000000000000000000000000000000000000000815260040161043e9190610830565b60405180910390fd5b6104598161045490610d38565b610514565b50565b60008054906101000a900473ffffffffffffffffffffffffffffffffffffffff1673ffffffffffffffffffffffffffffffffffffffff16631cc748593360006040518363ffffffff1660e01b81526004016104b8929190610d7c565b600060405180830381600087803b1580156104d257600080fd5b505af11580156104e6573d6000803e3d6000fd5b50505050565b60007f0000000000000000000000000000000000000000000000000000000000000000905090565b60008060009054906101000a900473ffffffffffffffffffffffffffffffffffffffff1673ffffffffffffffffffffffffffffffffffffffff168260600151604051610560919061092d565b6000604051808303816000865af19150503d806000811461059d576040519150601f19603f3d011682016040523d82523d6000602084013e6105a2565b606091505b50509050806105b057600080fd5b7fa8bcb6a278444293ea5c0bce4a4734a060a5f557bb999d8a57c4f69e96f1fe8860405160405180910390a15050565b6000604051905090565b600080fd5b600080fd5b60007fffffffff0000000000000000000000000000000000000000000000000000000082169050919050565b610629816105f4565b811461063457600080fd5b50565b60008135905061064681610620565b92915050565b600060208284031215610662576106616105ea565b5b600061067084828501610637565b91505092915050565b60008115159050919050565b61068e81610679565b82525050565b60006020820190506106a96000830184610685565b92915050565b600073ffffffffffffffffffffffffffffffffffffffff82169050919050565b6000819050919050565b60006106f46106ef6106ea846106af565b6106cf565b6106af565b9050919050565b6000610706826106d9565b9050919050565b6000610718826106fb565b9050919050565b6107288161070d565b82525050565b6000602082019050610743600083018461071f565b92915050565b6000610754826106af565b9050919050565b61076481610749565b811461076f57600080fd5b50565b6000813590506107818161075b565b92915050565b60006020828403121561079d5761079c6105ea565b5b60006107ab84828501610772565b91505092915050565b600080fd5b600060a082840312156107cf576107ce6107b4565b5b81905092915050565b6000602082840312156107ee576107ed6105ea565b5b600082013567ffffffffffffffff81111561080c5761080b6105ef565b5b610818848285016107b9565b91505092915050565b61082a81610749565b82525050565b60006020820190506108456000830184610821565b92915050565b6000819050919050565b600060ff82169050919050565b600061087d6108786108738461084b565b6106cf565b610855565b9050919050565b61088d81610862565b82525050565b60006040820190506108a86000830185610821565b6108b56020830184610884565b9392505050565b600081519050919050565b600081905092915050565b60005b838110156108f05780820151818401526020810190506108d5565b60008484015250505050565b6000610907826108bc565b61091181856108c7565b93506109218185602086016108d2565b80840191505092915050565b600061093982846108fc565b915081905092915050565b600080fd5b6000601f19601f8301169050919050565b7f4e487b7100000000000000000000000000000000000000000000000000000000600052604160045260246000fd5b61099282610949565b810181811067ffffffffffffffff821117156109b1576109b061095a565b5b80604052505050565b60006109c46105e0565b90506109d08282610989565b919050565b600080fd5b6000819050919050565b6109ed816109da565b81146109f857600080fd5b50565b600081359050610a0a816109e4565b92915050565b600067ffffffffffffffff82169050919050565b610a2d81610a10565b8114610a3857600080fd5b50565b600081359050610a4a81610a24565b92915050565b600080fd5b600080fd5b600067ffffffffffffffff821115610a7557610a7461095a565b5b610a7e82610949565b9050602081019050919050565b82818337600083830152505050565b6000610aad610aa884610a5a565b6109ba565b905082815260208101848484011115610ac957610ac8610a55565b5b610ad4848285610a8b565b509392505050565b600082601f830112610af157610af0610a50565b5b8135610b01848260208601610a9a565b91505092915050565b600067ffffffffffffffff821115610b2557610b2461095a565b5b602082029050602081019050919050565b600080fd5b6000819050919050565b610b4e81610b3b565b8114610b5957600080fd5b50565b600081359050610b6b81610b45565b92915050565b600060408284031215610b8757610b86610944565b5b610b9160406109ba565b90506000610ba184828501610772565b6000830152506020610bb584828501610b5c565b60208301525092915050565b6000610bd4610bcf84610b0a565b6109ba565b90508083825260208201905060408402830185811115610bf757610bf6610b36565b5b835b81811015610c205780610c0c8882610b71565b845260208401935050604081019050610bf9565b5050509392505050565b600082601f830112610c3f57610c3e610a50565b5b8135610c4f848260208601610bc1565b91505092915050565b600060a08284031215610c6e57610c6d610944565b5b610c7860a06109ba565b90506000610c88848285016109fb565b6000830152506020610c9c84828501610a3b565b602083015250604082013567ffffffffffffffff811115610cc057610cbf6109d5565b5b610ccc84828501610adc565b604083015250606082013567ffffffffffffffff811115610cf057610cef6109d5565b5b610cfc84828501610adc565b606083015250608082013567ffffffffffffffff811115610d2057610d1f6109d5565b5b610d2c84828501610c2a565b60808301525092915050565b6000610d443683610c58565b9050919050565b6000610d66610d61610d5c8461084b565b6106cf565b610b3b565b9050919050565b610d7681610d4b565b82525050565b6000604082019050610d916000830185610821565b610d9e6020830184610d6d565b939250505056fea26469706673582212202f3e32fc9711bb6838190d6e4807783acf691523c7f51d5eb44892545ef7227564736f6c634300081a0033",
					"opcodes": "PUSH1 0xA0 PUSH1 0x40 MSTORE PUSH20 0xBF3DE8C5D3E8A2B34D2BEEB17ABFCEBAF363A59 PUSH1 0x1 PUSH1 0x0 PUSH2 0x100 EXP DUP2 SLOAD DUP2 PUSH20 0xFFFFFFFFFFFFFFFFFFFFFFFFFFFFFFFFFFFFFFFF MUL NOT AND SWAP1 DUP4 PUSH20 0xFFFFFFFFFFFFFFFFFFFFFFFFFFFFFFFFFFFFFFFF AND MUL OR SWAP1 SSTORE POP CALLVALUE DUP1 ISZERO PUSH2 0x65 JUMPI PUSH1 0x0 DUP1 REVERT JUMPDEST POP PUSH1 0x40 MLOAD PUSH2 0x1047 CODESIZE SUB DUP1 PUSH2 0x1047 DUP4 CODECOPY DUP2 DUP2 ADD PUSH1 0x40 MSTORE DUP2 ADD SWAP1 PUSH2 0x87 SWAP2 SWAP1 PUSH2 0x1FA JUMP JUMPDEST PUSH1 0x1 PUSH1 0x0 SWAP1 SLOAD SWAP1 PUSH2 0x100 EXP SWAP1 DIV PUSH20 0xFFFFFFFFFFFFFFFFFFFFFFFFFFFFFFFFFFFFFFFF AND PUSH1 0x0 PUSH20 0xFFFFFFFFFFFFFFFFFFFFFFFFFFFFFFFFFFFFFFFF AND DUP2 PUSH20 0xFFFFFFFFFFFFFFFFFFFFFFFFFFFFFFFFFFFFFFFF AND SUB PUSH2 0x11C JUMPI PUSH1 0x0 PUSH1 0x40 MLOAD PUSH32 0xD7F7333400000000000000000000000000000000000000000000000000000000 DUP2 MSTORE PUSH1 0x4 ADD PUSH2 0x113 SWAP2 SWAP1 PUSH2 0x236 JUMP JUMPDEST PUSH1 0x40 MLOAD DUP1 SWAP2 SUB SWAP1 REVERT JUMPDEST DUP1 PUSH20 0xFFFFFFFFFFFFFFFFFFFFFFFFFFFFFFFFFFFFFFFF AND PUSH1 0x80 DUP2 PUSH20 0xFFFFFFFFFFFFFFFFFFFFFFFFFFFFFFFFFFFFFFFF AND DUP2 MSTORE POP POP POP DUP1 PUSH1 0x0 DUP1 PUSH2 0x100 EXP DUP2 SLOAD DUP2 PUSH20 0xFFFFFFFFFFFFFFFFFFFFFFFFFFFFFFFFFFFFFFFF MUL NOT AND SWAP1 DUP4 PUSH20 0xFFFFFFFFFFFFFFFFFFFFFFFFFFFFFFFFFFFFFFFF AND MUL OR SWAP1 SSTORE POP POP PUSH2 0x251 JUMP JUMPDEST PUSH1 0x0 DUP1 REVERT JUMPDEST PUSH1 0x0 PUSH20 0xFFFFFFFFFFFFFFFFFFFFFFFFFFFFFFFFFFFFFFFF DUP3 AND SWAP1 POP SWAP2 SWAP1 POP JUMP JUMPDEST PUSH1 0x0 PUSH2 0x1C7 DUP3 PUSH2 0x19C JUMP JUMPDEST SWAP1 POP SWAP2 SWAP1 POP JUMP JUMPDEST PUSH2 0x1D7 DUP2 PUSH2 0x1BC JUMP JUMPDEST DUP2 EQ PUSH2 0x1E2 JUMPI PUSH1 0x0 DUP1 REVERT JUMPDEST POP JUMP JUMPDEST PUSH1 0x0 DUP2 MLOAD SWAP1 POP PUSH2 0x1F4 DUP2 PUSH2 0x1CE JUMP JUMPDEST SWAP3 SWAP2 POP POP JUMP JUMPDEST PUSH1 0x0 PUSH1 0x20 DUP3 DUP5 SUB SLT ISZERO PUSH2 0x210 JUMPI PUSH2 0x20F PUSH2 0x197 JUMP JUMPDEST JUMPDEST PUSH1 0x0 PUSH2 0x21E DUP5 DUP3 DUP6 ADD PUSH2 0x1E5 JUMP JUMPDEST SWAP2 POP POP SWAP3 SWAP2 POP POP JUMP JUMPDEST PUSH2 0x230 DUP2 PUSH2 0x1BC JUMP JUMPDEST DUP3 MSTORE POP POP JUMP JUMPDEST PUSH1 0x0 PUSH1 0x20 DUP3 ADD SWAP1 POP PUSH2 0x24B PUSH1 0x0 DUP4 ADD DUP5 PUSH2 0x227 JUMP JUMPDEST SWAP3 SWAP2 POP POP JUMP JUMPDEST PUSH1 0x80 MLOAD PUSH2 0xDDB PUSH2 0x26C PUSH1 0x0 CODECOPY PUSH1 0x0 PUSH2 0x4F0 ADD MSTORE PUSH2 0xDDB PUSH1 0x0 RETURN INVALID PUSH1 0x80 PUSH1 0x40 MSTORE CALLVALUE DUP1 ISZERO PUSH2 0x10 JUMPI PUSH1 0x0 DUP1 REVERT JUMPDEST POP PUSH1 0x4 CALLDATASIZE LT PUSH2 0x7D JUMPI PUSH1 0x0 CALLDATALOAD PUSH1 0xE0 SHR DUP1 PUSH4 0x5BE68E93 GT PUSH2 0x5B JUMPI DUP1 PUSH4 0x5BE68E93 EQ PUSH2 0xDA JUMPI DUP1 PUSH4 0x85572FFB EQ PUSH2 0xF6 JUMPI DUP1 PUSH4 0x9642DDAF EQ PUSH2 0x112 JUMPI DUP1 PUSH4 0xB0F479A1 EQ PUSH2 0x11C JUMPI PUSH2 0x7D JUMP JUMPDEST DUP1 PUSH4 0x1FFC9A7 EQ PUSH2 0x82 JUMPI DUP1 PUSH4 0x8076601 EQ PUSH2 0xB2 JUMPI DUP1 PUSH4 0x47CCCA02 EQ PUSH2 0xBC JUMPI JUMPDEST PUSH1 0x0 DUP1 REVERT JUMPDEST PUSH2 0x9C PUSH1 0x4 DUP1 CALLDATASIZE SUB DUP2 ADD SWAP1 PUSH2 0x97 SWAP2 SWAP1 PUSH2 0x64C JUMP JUMPDEST PUSH2 0x13A JUMP JUMPDEST PUSH1 0x40 MLOAD PUSH2 0xA9 SWAP2 SWAP1 PUSH2 0x694 JUMP JUMPDEST PUSH1 0x40 MLOAD DUP1 SWAP2 SUB SWAP1 RETURN JUMPDEST PUSH2 0xBA PUSH2 0x20C JUMP JUMPDEST STOP JUMPDEST PUSH2 0xC4 PUSH2 0x369 JUMP JUMPDEST PUSH1 0x40 MLOAD PUSH2 0xD1 SWAP2 SWAP1 PUSH2 0x72E JUMP JUMPDEST PUSH1 0x40 MLOAD DUP1 SWAP2 SUB SWAP1 RETURN JUMPDEST PUSH2 0xF4 PUSH1 0x4 DUP1 CALLDATASIZE SUB DUP2 ADD SWAP1 PUSH2 0xEF SWAP2 SWAP1 PUSH2 0x787 JUMP JUMPDEST PUSH2 0x38D JUMP JUMPDEST STOP JUMPDEST PUSH2 0x110 PUSH1 0x4 DUP1 CALLDATASIZE SUB DUP2 ADD SWAP1 PUSH2 0x10B SWAP2 SWAP1 PUSH2 0x7D8 JUMP JUMPDEST PUSH2 0x3D0 JUMP JUMPDEST STOP JUMPDEST PUSH2 0x11A PUSH2 0x45C JUMP JUMPDEST STOP JUMPDEST PUSH2 0x124 PUSH2 0x4EC JUMP JUMPDEST PUSH1 0x40 MLOAD PUSH2 0x131 SWAP2 SWAP1 PUSH2 0x830 JUMP JUMPDEST PUSH1 0x40 MLOAD DUP1 SWAP2 SUB SWAP1 RETURN JUMPDEST PUSH1 0x0 PUSH32 0x85572FFB00000000000000000000000000000000000000000000000000000000 PUSH28 0xFFFFFFFFFFFFFFFFFFFFFFFFFFFFFFFFFFFFFFFFFFFFFFFFFFFFFFFF NOT AND DUP3 PUSH28 0xFFFFFFFFFFFFFFFFFFFFFFFFFFFFFFFFFFFFFFFFFFFFFFFFFFFFFFFF NOT AND EQ DUP1 PUSH2 0x205 JUMPI POP PUSH32 0x1FFC9A700000000000000000000000000000000000000000000000000000000 PUSH28 0xFFFFFFFFFFFFFFFFFFFFFFFFFFFFFFFFFFFFFFFFFFFFFFFFFFFFFFFF NOT AND DUP3 PUSH28 0xFFFFFFFFFFFFFFFFFFFFFFFFFFFFFFFFFFFFFFFFFFFFFFFFFFFFFFFF NOT AND EQ JUMPDEST SWAP1 POP SWAP2 SWAP1 POP JUMP JUMPDEST PUSH1 0x60 CALLER PUSH1 0x0 PUSH1 0x40 MLOAD PUSH1 0x24 ADD PUSH2 0x222 SWAP3 SWAP2 SWAP1 PUSH2 0x893 JUMP JUMPDEST PUSH1 0x40 MLOAD PUSH1 0x20 DUP2 DUP4 SUB SUB DUP2 MSTORE SWAP1 PUSH1 0x40 MSTORE PUSH32 0x1CC7485900000000000000000000000000000000000000000000000000000000 PUSH28 0xFFFFFFFFFFFFFFFFFFFFFFFFFFFFFFFFFFFFFFFFFFFFFFFFFFFFFFFF NOT AND PUSH1 0x20 DUP3 ADD DUP1 MLOAD PUSH28 0xFFFFFFFFFFFFFFFFFFFFFFFFFFFFFFFFFFFFFFFFFFFFFFFFFFFFFFFF DUP4 DUP2 DUP4 AND OR DUP4 MSTORE POP POP POP POP SWAP1 POP PUSH1 0x0 DUP1 PUSH1 0x0 SWAP1 SLOAD SWAP1 PUSH2 0x100 EXP SWAP1 DIV PUSH20 0xFFFFFFFFFFFFFFFFFFFFFFFFFFFFFFFFFFFFFFFF AND PUSH20 0xFFFFFFFFFFFFFFFFFFFFFFFFFFFFFFFFFFFFFFFF AND DUP3 PUSH1 0x40 MLOAD PUSH2 0x2E9 SWAP2 SWAP1 PUSH2 0x92D JUMP JUMPDEST PUSH1 0x0 PUSH1 0x40 MLOAD DUP1 DUP4 SUB DUP2 PUSH1 0x0 DUP7 GAS CALL SWAP2 POP POP RETURNDATASIZE DUP1 PUSH1 0x0 DUP2 EQ PUSH2 0x326 JUMPI PUSH1 0x40 MLOAD SWAP2 POP PUSH1 0x1F NOT PUSH1 0x3F RETURNDATASIZE ADD AND DUP3 ADD PUSH1 0x40 MSTORE RETURNDATASIZE DUP3 MSTORE RETURNDATASIZE PUSH1 0x0 PUSH1 0x20 DUP5 ADD RETURNDATACOPY PUSH2 0x32B JUMP JUMPDEST PUSH1 0x60 SWAP2 POP JUMPDEST POP POP SWAP1 POP DUP1 PUSH2 0x339 JUMPI PUSH1 0x0 DUP1 REVERT JUMPDEST PUSH32 0xA8BCB6A278444293EA5C0BCE4A4734A060A5F557BB999D8A57C4F69E96F1FE88 PUSH1 0x40 MLOAD PUSH1 0x40 MLOAD DUP1 SWAP2 SUB SWAP1 LOG1 POP POP JUMP JUMPDEST PUSH1 0x0 DUP1 SLOAD SWAP1 PUSH2 0x100 EXP SWAP1 DIV PUSH20 0xFFFFFFFFFFFFFFFFFFFFFFFFFFFFFFFFFFFFFFFF AND DUP2 JUMP JUMPDEST DUP1 PUSH1 0x0 DUP1 PUSH2 0x100 EXP DUP2 SLOAD DUP2 PUSH20 0xFFFFFFFFFFFFFFFFFFFFFFFFFFFFFFFFFFFFFFFF MUL NOT AND SWAP1 DUP4 PUSH20 0xFFFFFFFFFFFFFFFFFFFFFFFFFFFFFFFFFFFFFFFF AND MUL OR SWAP1 SSTORE POP POP JUMP JUMPDEST PUSH2 0x3D8 PUSH2 0x4EC JUMP JUMPDEST PUSH20 0xFFFFFFFFFFFFFFFFFFFFFFFFFFFFFFFFFFFFFFFF AND CALLER PUSH20 0xFFFFFFFFFFFFFFFFFFFFFFFFFFFFFFFFFFFFFFFF AND EQ PUSH2 0x447 JUMPI CALLER PUSH1 0x40 MLOAD PUSH32 0xD7F7333400000000000000000000000000000000000000000000000000000000 DUP2 MSTORE PUSH1 0x4 ADD PUSH2 0x43E SWAP2 SWAP1 PUSH2 0x830 JUMP JUMPDEST PUSH1 0x40 MLOAD DUP1 SWAP2 SUB SWAP1 REVERT JUMPDEST PUSH2 0x459 DUP2 PUSH2 0x454 SWAP1 PUSH2 0xD38 JUMP JUMPDEST PUSH2 0x514 JUMP JUMPDEST POP JUMP JUMPDEST PUSH1 0x0 DUP1 SLOAD SWAP1 PUSH2 0x100 EXP SWAP1 DIV PUSH20 0xFFFFFFFFFFFFFFFFFFFFFFFFFFFFFFFFFFFFFFFF AND PUSH20 0xFFFFFFFFFFFFFFFFFFFFFFFFFFFFFFFFFFFFFFFF AND PUSH4 0x1CC74859 CALLER PUSH1 0x0 PUSH1 0x40 MLOAD DUP4 PUSH4 0xFFFFFFFF AND PUSH1 0xE0 SHL DUP2 MSTORE PUSH1 0x4 ADD PUSH2 0x4B8 SWAP3 SWAP2 SWAP1 PUSH2 0xD7C JUMP JUMPDEST PUSH1 0x0 PUSH1 0x40 MLOAD DUP1 DUP4 SUB DUP2 PUSH1 0x0 DUP8 DUP1 EXTCODESIZE ISZERO DUP1 ISZERO PUSH2 0x4D2 JUMPI PUSH1 0x0 DUP1 REVERT JUMPDEST POP GAS CALL ISZERO DUP1 ISZERO PUSH2 0x4E6 JUMPI RETURNDATASIZE PUSH1 0x0 DUP1 RETURNDATACOPY RETURNDATASIZE PUSH1 0x0 REVERT JUMPDEST POP POP POP POP JUMP JUMPDEST PUSH1 0x0 PUSH32 0x0 SWAP1 POP SWAP1 JUMP JUMPDEST PUSH1 0x0 DUP1 PUSH1 0x0 SWAP1 SLOAD SWAP1 PUSH2 0x100 EXP SWAP1 DIV PUSH20 0xFFFFFFFFFFFFFFFFFFFFFFFFFFFFFFFFFFFFFFFF AND PUSH20 0xFFFFFFFFFFFFFFFFFFFFFFFFFFFFFFFFFFFFFFFF AND DUP3 PUSH1 0x60 ADD MLOAD PUSH1 0x40 MLOAD PUSH2 0x560 SWAP2 SWAP1 PUSH2 0x92D JUMP JUMPDEST PUSH1 0x0 PUSH1 0x40 MLOAD DUP1 DUP4 SUB DUP2 PUSH1 0x0 DUP7 GAS CALL SWAP2 POP POP RETURNDATASIZE DUP1 PUSH1 0x0 DUP2 EQ PUSH2 0x59D JUMPI PUSH1 0x40 MLOAD SWAP2 POP PUSH1 0x1F NOT PUSH1 0x3F RETURNDATASIZE ADD AND DUP3 ADD PUSH1 0x40 MSTORE RETURNDATASIZE DUP3 MSTORE RETURNDATASIZE PUSH1 0x0 PUSH1 0x20 DUP5 ADD RETURNDATACOPY PUSH2 0x5A2 JUMP JUMPDEST PUSH1 0x60 SWAP2 POP JUMPDEST POP POP SWAP1 POP DUP1 PUSH2 0x5B0 JUMPI PUSH1 0x0 DUP1 REVERT JUMPDEST PUSH32 0xA8BCB6A278444293EA5C0BCE4A4734A060A5F557BB999D8A57C4F69E96F1FE88 PUSH1 0x40 MLOAD PUSH1 0x40 MLOAD DUP1 SWAP2 SUB SWAP1 LOG1 POP POP JUMP JUMPDEST PUSH1 0x0 PUSH1 0x40 MLOAD SWAP1 POP SWAP1 JUMP JUMPDEST PUSH1 0x0 DUP1 REVERT JUMPDEST PUSH1 0x0 DUP1 REVERT JUMPDEST PUSH1 0x0 PUSH32 0xFFFFFFFF00000000000000000000000000000000000000000000000000000000 DUP3 AND SWAP1 POP SWAP2 SWAP1 POP JUMP JUMPDEST PUSH2 0x629 DUP2 PUSH2 0x5F4 JUMP JUMPDEST DUP2 EQ PUSH2 0x634 JUMPI PUSH1 0x0 DUP1 REVERT JUMPDEST POP JUMP JUMPDEST PUSH1 0x0 DUP2 CALLDATALOAD SWAP1 POP PUSH2 0x646 DUP2 PUSH2 0x620 JUMP JUMPDEST SWAP3 SWAP2 POP POP JUMP JUMPDEST PUSH1 0x0 PUSH1 0x20 DUP3 DUP5 SUB SLT ISZERO PUSH2 0x662 JUMPI PUSH2 0x661 PUSH2 0x5EA JUMP JUMPDEST JUMPDEST PUSH1 0x0 PUSH2 0x670 DUP5 DUP3 DUP6 ADD PUSH2 0x637 JUMP JUMPDEST SWAP2 POP POP SWAP3 SWAP2 POP POP JUMP JUMPDEST PUSH1 0x0 DUP2 ISZERO ISZERO SWAP1 POP SWAP2 SWAP1 POP JUMP JUMPDEST PUSH2 0x68E DUP2 PUSH2 0x679 JUMP JUMPDEST DUP3 MSTORE POP POP JUMP JUMPDEST PUSH1 0x0 PUSH1 0x20 DUP3 ADD SWAP1 POP PUSH2 0x6A9 PUSH1 0x0 DUP4 ADD DUP5 PUSH2 0x685 JUMP JUMPDEST SWAP3 SWAP2 POP POP JUMP JUMPDEST PUSH1 0x0 PUSH20 0xFFFFFFFFFFFFFFFFFFFFFFFFFFFFFFFFFFFFFFFF DUP3 AND SWAP1 POP SWAP2 SWAP1 POP JUMP JUMPDEST PUSH1 0x0 DUP2 SWAP1 POP SWAP2 SWAP1 POP JUMP JUMPDEST PUSH1 0x0 PUSH2 0x6F4 PUSH2 0x6EF PUSH2 0x6EA DUP5 PUSH2 0x6AF JUMP JUMPDEST PUSH2 0x6CF JUMP JUMPDEST PUSH2 0x6AF JUMP JUMPDEST SWAP1 POP SWAP2 SWAP1 POP JUMP JUMPDEST PUSH1 0x0 PUSH2 0x706 DUP3 PUSH2 0x6D9 JUMP JUMPDEST SWAP1 POP SWAP2 SWAP1 POP JUMP JUMPDEST PUSH1 0x0 PUSH2 0x718 DUP3 PUSH2 0x6FB JUMP JUMPDEST SWAP1 POP SWAP2 SWAP1 POP JUMP JUMPDEST PUSH2 0x728 DUP2 PUSH2 0x70D JUMP JUMPDEST DUP3 MSTORE POP POP JUMP JUMPDEST PUSH1 0x0 PUSH1 0x20 DUP3 ADD SWAP1 POP PUSH2 0x743 PUSH1 0x0 DUP4 ADD DUP5 PUSH2 0x71F JUMP JUMPDEST SWAP3 SWAP2 POP POP JUMP JUMPDEST PUSH1 0x0 PUSH2 0x754 DUP3 PUSH2 0x6AF JUMP JUMPDEST SWAP1 POP SWAP2 SWAP1 POP JUMP JUMPDEST PUSH2 0x764 DUP2 PUSH2 0x749 JUMP JUMPDEST DUP2 EQ PUSH2 0x76F JUMPI PUSH1 0x0 DUP1 REVERT JUMPDEST POP JUMP JUMPDEST PUSH1 0x0 DUP2 CALLDATALOAD SWAP1 POP PUSH2 0x781 DUP2 PUSH2 0x75B JUMP JUMPDEST SWAP3 SWAP2 POP POP JUMP JUMPDEST PUSH1 0x0 PUSH1 0x20 DUP3 DUP5 SUB SLT ISZERO PUSH2 0x79D JUMPI PUSH2 0x79C PUSH2 0x5EA JUMP JUMPDEST JUMPDEST PUSH1 0x0 PUSH2 0x7AB DUP5 DUP3 DUP6 ADD PUSH2 0x772 JUMP JUMPDEST SWAP2 POP POP SWAP3 SWAP2 POP POP JUMP JUMPDEST PUSH1 0x0 DUP1 REVERT JUMPDEST PUSH1 0x0 PUSH1 0xA0 DUP3 DUP5 SUB SLT ISZERO PUSH2 0x7CF JUMPI PUSH2 0x7CE PUSH2 0x7B4 JUMP JUMPDEST JUMPDEST DUP2 SWAP1 POP SWAP3 SWAP2 POP POP JUMP JUMPDEST PUSH1 0x0 PUSH1 0x20 DUP3 DUP5 SUB SLT ISZERO PUSH2 0x7EE JUMPI PUSH2 0x7ED PUSH2 0x5EA JUMP JUMPDEST JUMPDEST PUSH1 0x0 DUP3 ADD CALLDATALOAD PUSH8 0xFFFFFFFFFFFFFFFF DUP2 GT ISZERO PUSH2 0x80C JUMPI PUSH2 0x80B PUSH2 0x5EF JUMP JUMPDEST JUMPDEST PUSH2 0x818 DUP5 DUP3 DUP6 ADD PUSH2 0x7B9 JUMP JUMPDEST SWAP2 POP POP SWAP3 SWAP2 POP POP JUMP JUMPDEST PUSH2 0x82A DUP2 PUSH2 0x749 JUMP JUMPDEST DUP3 MSTORE POP POP JUMP JUMPDEST PUSH1 0x0 PUSH1 0x20 DUP3 ADD SWAP1 POP PUSH2 0x845 PUSH1 0x0 DUP4 ADD DUP5 PUSH2 0x821 JUMP JUMPDEST SWAP3 SWAP2 POP POP JUMP JUMPDEST PUSH1 0x0 DUP2 SWAP1 POP SWAP2 SWAP1 POP JUMP JUMPDEST PUSH1 0x0 PUSH1 0xFF DUP3 AND SWAP1 POP SWAP2 SWAP1 POP JUMP JUMPDEST PUSH1 0x0 PUSH2 0x87D PUSH2 0x878 PUSH2 0x873 DUP5 PUSH2 0x84B JUMP JUMPDEST PUSH2 0x6CF JUMP JUMPDEST PUSH2 0x855 JUMP JUMPDEST SWAP1 POP SWAP2 SWAP1 POP JUMP JUMPDEST PUSH2 0x88D DUP2 PUSH2 0x862 JUMP JUMPDEST DUP3 MSTORE POP POP JUMP JUMPDEST PUSH1 0x0 PUSH1 0x40 DUP3 ADD SWAP1 POP PUSH2 0x8A8 PUSH1 0x0 DUP4 ADD DUP6 PUSH2 0x821 JUMP JUMPDEST PUSH2 0x8B5 PUSH1 0x20 DUP4 ADD DUP5 PUSH2 0x884 JUMP JUMPDEST SWAP4 SWAP3 POP POP POP JUMP JUMPDEST PUSH1 0x0 DUP2 MLOAD SWAP1 POP SWAP2 SWAP1 POP JUMP JUMPDEST PUSH1 0x0 DUP2 SWAP1 POP SWAP3 SWAP2 POP POP JUMP JUMPDEST PUSH1 0x0 JUMPDEST DUP4 DUP2 LT ISZERO PUSH2 0x8F0 JUMPI DUP1 DUP3 ADD MLOAD DUP2 DUP5 ADD MSTORE PUSH1 0x20 DUP2 ADD SWAP1 POP PUSH2 0x8D5 JUMP JUMPDEST PUSH1 0x0 DUP5 DUP5 ADD MSTORE POP POP POP POP JUMP JUMPDEST PUSH1 0x0 PUSH2 0x907 DUP3 PUSH2 0x8BC JUMP JUMPDEST PUSH2 0x911 DUP2 DUP6 PUSH2 0x8C7 JUMP JUMPDEST SWAP4 POP PUSH2 0x921 DUP2 DUP6 PUSH1 0x20 DUP7 ADD PUSH2 0x8D2 JUMP JUMPDEST DUP1 DUP5 ADD SWAP2 POP POP SWAP3 SWAP2 POP POP JUMP JUMPDEST PUSH1 0x0 PUSH2 0x939 DUP3 DUP5 PUSH2 0x8FC JUMP JUMPDEST SWAP2 POP DUP2 SWAP1 POP SWAP3 SWAP2 POP POP JUMP JUMPDEST PUSH1 0x0 DUP1 REVERT JUMPDEST PUSH1 0x0 PUSH1 0x1F NOT PUSH1 0x1F DUP4 ADD AND SWAP1 POP SWAP2 SWAP1 POP JUMP JUMPDEST PUSH32 0x4E487B7100000000000000000000000000000000000000000000000000000000 PUSH1 0x0 MSTORE PUSH1 0x41 PUSH1 0x4 MSTORE PUSH1 0x24 PUSH1 0x0 REVERT JUMPDEST PUSH2 0x992 DUP3 PUSH2 0x949 JUMP JUMPDEST DUP2 ADD DUP2 DUP2 LT PUSH8 0xFFFFFFFFFFFFFFFF DUP3 GT OR ISZERO PUSH2 0x9B1 JUMPI PUSH2 0x9B0 PUSH2 0x95A JUMP JUMPDEST JUMPDEST DUP1 PUSH1 0x40 MSTORE POP POP POP JUMP JUMPDEST PUSH1 0x0 PUSH2 0x9C4 PUSH2 0x5E0 JUMP JUMPDEST SWAP1 POP PUSH2 0x9D0 DUP3 DUP3 PUSH2 0x989 JUMP JUMPDEST SWAP2 SWAP1 POP JUMP JUMPDEST PUSH1 0x0 DUP1 REVERT JUMPDEST PUSH1 0x0 DUP2 SWAP1 POP SWAP2 SWAP1 POP JUMP JUMPDEST PUSH2 0x9ED DUP2 PUSH2 0x9DA JUMP JUMPDEST DUP2 EQ PUSH2 0x9F8 JUMPI PUSH1 0x0 DUP1 REVERT JUMPDEST POP JUMP JUMPDEST PUSH1 0x0 DUP2 CALLDATALOAD SWAP1 POP PUSH2 0xA0A DUP2 PUSH2 0x9E4 JUMP JUMPDEST SWAP3 SWAP2 POP POP JUMP JUMPDEST PUSH1 0x0 PUSH8 0xFFFFFFFFFFFFFFFF DUP3 AND SWAP1 POP SWAP2 SWAP1 POP JUMP JUMPDEST PUSH2 0xA2D DUP2 PUSH2 0xA10 JUMP JUMPDEST DUP2 EQ PUSH2 0xA38 JUMPI PUSH1 0x0 DUP1 REVERT JUMPDEST POP JUMP JUMPDEST PUSH1 0x0 DUP2 CALLDATALOAD SWAP1 POP PUSH2 0xA4A DUP2 PUSH2 0xA24 JUMP JUMPDEST SWAP3 SWAP2 POP POP JUMP JUMPDEST PUSH1 0x0 DUP1 REVERT JUMPDEST PUSH1 0x0 DUP1 REVERT JUMPDEST PUSH1 0x0 PUSH8 0xFFFFFFFFFFFFFFFF DUP3 GT ISZERO PUSH2 0xA75 JUMPI PUSH2 0xA74 PUSH2 0x95A JUMP JUMPDEST JUMPDEST PUSH2 0xA7E DUP3 PUSH2 0x949 JUMP JUMPDEST SWAP1 POP PUSH1 0x20 DUP2 ADD SWAP1 POP SWAP2 SWAP1 POP JUMP JUMPDEST DUP3 DUP2 DUP4 CALLDATACOPY PUSH1 0x0 DUP4 DUP4 ADD MSTORE POP POP POP JUMP JUMPDEST PUSH1 0x0 PUSH2 0xAAD PUSH2 0xAA8 DUP5 PUSH2 0xA5A JUMP JUMPDEST PUSH2 0x9BA JUMP JUMPDEST SWAP1 POP DUP3 DUP2 MSTORE PUSH1 0x20 DUP2 ADD DUP5 DUP5 DUP5 ADD GT ISZERO PUSH2 0xAC9 JUMPI PUSH2 0xAC8 PUSH2 0xA55 JUMP JUMPDEST JUMPDEST PUSH2 0xAD4 DUP5 DUP3 DUP6 PUSH2 0xA8B JUMP JUMPDEST POP SWAP4 SWAP3 POP POP POP JUMP JUMPDEST PUSH1 0x0 DUP3 PUSH1 0x1F DUP4 ADD SLT PUSH2 0xAF1 JUMPI PUSH2 0xAF0 PUSH2 0xA50 JUMP JUMPDEST JUMPDEST DUP2 CALLDATALOAD PUSH2 0xB01 DUP5 DUP3 PUSH1 0x20 DUP7 ADD PUSH2 0xA9A JUMP JUMPDEST SWAP2 POP POP SWAP3 SWAP2 POP POP JUMP JUMPDEST PUSH1 0x0 PUSH8 0xFFFFFFFFFFFFFFFF DUP3 GT ISZERO PUSH2 0xB25 JUMPI PUSH2 0xB24 PUSH2 0x95A JUMP JUMPDEST JUMPDEST PUSH1 0x20 DUP3 MUL SWAP1 POP PUSH1 0x20 DUP2 ADD SWAP1 POP SWAP2 SWAP1 POP JUMP JUMPDEST PUSH1 0x0 DUP1 REVERT JUMPDEST PUSH1 0x0 DUP2 SWAP1 POP SWAP2 SWAP1 POP JUMP JUMPDEST PUSH2 0xB4E DUP2 PUSH2 0xB3B JUMP JUMPDEST DUP2 EQ PUSH2 0xB59 JUMPI PUSH1 0x0 DUP1 REVERT JUMPDEST POP JUMP JUMPDEST PUSH1 0x0 DUP2 CALLDATALOAD SWAP1 POP PUSH2 0xB6B DUP2 PUSH2 0xB45 JUMP JUMPDEST SWAP3 SWAP2 POP POP JUMP JUMPDEST PUSH1 0x0 PUSH1 0x40 DUP3 DUP5 SUB SLT ISZERO PUSH2 0xB87 JUMPI PUSH2 0xB86 PUSH2 0x944 JUMP JUMPDEST JUMPDEST PUSH2 0xB91 PUSH1 0x40 PUSH2 0x9BA JUMP JUMPDEST SWAP1 POP PUSH1 0x0 PUSH2 0xBA1 DUP5 DUP3 DUP6 ADD PUSH2 0x772 JUMP JUMPDEST PUSH1 0x0 DUP4 ADD MSTORE POP PUSH1 0x20 PUSH2 0xBB5 DUP5 DUP3 DUP6 ADD PUSH2 0xB5C JUMP JUMPDEST PUSH1 0x20 DUP4 ADD MSTORE POP SWAP3 SWAP2 POP POP JUMP JUMPDEST PUSH1 0x0 PUSH2 0xBD4 PUSH2 0xBCF DUP5 PUSH2 0xB0A JUMP JUMPDEST PUSH2 0x9BA JUMP JUMPDEST SWAP1 POP DUP1 DUP4 DUP3 MSTORE PUSH1 0x20 DUP3 ADD SWAP1 POP PUSH1 0x40 DUP5 MUL DUP4 ADD DUP6 DUP2 GT ISZERO PUSH2 0xBF7 JUMPI PUSH2 0xBF6 PUSH2 0xB36 JUMP JUMPDEST JUMPDEST DUP4 JUMPDEST DUP2 DUP2 LT ISZERO PUSH2 0xC20 JUMPI DUP1 PUSH2 0xC0C DUP9 DUP3 PUSH2 0xB71 JUMP JUMPDEST DUP5 MSTORE PUSH1 0x20 DUP5 ADD SWAP4 POP POP PUSH1 0x40 DUP2 ADD SWAP1 POP PUSH2 0xBF9 JUMP JUMPDEST POP POP POP SWAP4 SWAP3 POP POP POP JUMP JUMPDEST PUSH1 0x0 DUP3 PUSH1 0x1F DUP4 ADD SLT PUSH2 0xC3F JUMPI PUSH2 0xC3E PUSH2 0xA50 JUMP JUMPDEST JUMPDEST DUP2 CALLDATALOAD PUSH2 0xC4F DUP5 DUP3 PUSH1 0x20 DUP7 ADD PUSH2 0xBC1 JUMP JUMPDEST SWAP2 POP POP SWAP3 SWAP2 POP POP JUMP JUMPDEST PUSH1 0x0 PUSH1 0xA0 DUP3 DUP5 SUB SLT ISZERO PUSH2 0xC6E JUMPI PUSH2 0xC6D PUSH2 0x944 JUMP JUMPDEST JUMPDEST PUSH2 0xC78 PUSH1 0xA0 PUSH2 0x9BA JUMP JUMPDEST SWAP1 POP PUSH1 0x0 PUSH2 0xC88 DUP5 DUP3 DUP6 ADD PUSH2 0x9FB JUMP JUMPDEST PUSH1 0x0 DUP4 ADD MSTORE POP PUSH1 0x20 PUSH2 0xC9C DUP5 DUP3 DUP6 ADD PUSH2 0xA3B JUMP JUMPDEST PUSH1 0x20 DUP4 ADD MSTORE POP PUSH1 0x40 DUP3 ADD CALLDATALOAD PUSH8 0xFFFFFFFFFFFFFFFF DUP2 GT ISZERO PUSH2 0xCC0 JUMPI PUSH2 0xCBF PUSH2 0x9D5 JUMP JUMPDEST JUMPDEST PUSH2 0xCCC DUP5 DUP3 DUP6 ADD PUSH2 0xADC JUMP JUMPDEST PUSH1 0x40 DUP4 ADD MSTORE POP PUSH1 0x60 DUP3 ADD CALLDATALOAD PUSH8 0xFFFFFFFFFFFFFFFF DUP2 GT ISZERO PUSH2 0xCF0 JUMPI PUSH2 0xCEF PUSH2 0x9D5 JUMP JUMPDEST JUMPDEST PUSH2 0xCFC DUP5 DUP3 DUP6 ADD PUSH2 0xADC JUMP JUMPDEST PUSH1 0x60 DUP4 ADD MSTORE POP PUSH1 0x80 DUP3 ADD CALLDATALOAD PUSH8 0xFFFFFFFFFFFFFFFF DUP2 GT ISZERO PUSH2 0xD20 JUMPI PUSH2 0xD1F PUSH2 0x9D5 JUMP JUMPDEST JUMPDEST PUSH2 0xD2C DUP5 DUP3 DUP6 ADD PUSH2 0xC2A JUMP JUMPDEST PUSH1 0x80 DUP4 ADD MSTORE POP SWAP3 SWAP2 POP POP JUMP JUMPDEST PUSH1 0x0 PUSH2 0xD44 CALLDATASIZE DUP4 PUSH2 0xC58 JUMP JUMPDEST SWAP1 POP SWAP2 SWAP1 POP JUMP JUMPDEST PUSH1 0x0 PUSH2 0xD66 PUSH2 0xD61 PUSH2 0xD5C DUP5 PUSH2 0x84B JUMP JUMPDEST PUSH2 0x6CF JUMP JUMPDEST PUSH2 0xB3B JUMP JUMPDEST SWAP1 POP SWAP2 SWAP1 POP JUMP JUMPDEST PUSH2 0xD76 DUP2 PUSH2 0xD4B JUMP JUMPDEST DUP3 MSTORE POP POP JUMP JUMPDEST PUSH1 0x0 PUSH1 0x40 DUP3 ADD SWAP1 POP PUSH2 0xD91 PUSH1 0x0 DUP4 ADD DUP6 PUSH2 0x821 JUMP JUMPDEST PUSH2 0xD9E PUSH1 0x20 DUP4 ADD DUP5 PUSH2 0xD6D JUMP JUMPDEST SWAP4 SWAP3 POP POP POP JUMP INVALID LOG2 PUSH5 0x6970667358 0x22 SLT KECCAK256 0x2F RETURNDATACOPY ORIGIN 0xFC SWAP8 GT 0xBB PUSH9 0x38190D6E4807783ACF PUSH10 0x1523C7F51D5EB4489254 MCOPY 0xF7 0x22 PUSH22 0x64736F6C634300081A00330000000000000000000000 "
				},
				"gasEstimates": {
					"creation": {
						"codeDepositCost": "709400",
						"executionCost": "infinite",
						"totalCost": "infinite"
					},
					"external": {
						"ccipReceive((bytes32,uint64,bytes,bytes,(address,uint256)[]))": "infinite",
						"getRouter()": "infinite",
						"nft()": "infinite",
						"supportsInterface(bytes4)": "685",
						"testMessage()": "infinite",
						"testMint()": "infinite",
						"updateNFT(address)": "24722"
					},
					"internal": {
						"_ccipReceive(struct Client.Any2EVMMessage memory)": "infinite"
					}
				},
				"methodIdentifiers": {
					"ccipReceive((bytes32,uint64,bytes,bytes,(address,uint256)[]))": "85572ffb",
					"getRouter()": "b0f479a1",
					"nft()": "47ccca02",
					"supportsInterface(bytes4)": "01ffc9a7",
					"testMessage()": "08076601",
					"testMint()": "9642ddaf",
					"updateNFT(address)": "5be68e93"
				}
			},
			"storageLayout": {
				"storage": [
					{
						"astId": 242,
						"contract": "CrossDestinationMinter.sol:CrossDestinationMinter",
						"label": "nft",
						"offset": 0,
						"slot": "0",
						"type": "t_contract(InftMinter)236"
					},
					{
						"astId": 247,
						"contract": "CrossDestinationMinter.sol:CrossDestinationMinter",
						"label": "routerSepolia",
						"offset": 0,
						"slot": "1",
						"type": "t_address"
					}
				],
				"types": {
					"t_address": {
						"encoding": "inplace",
						"label": "address",
						"numberOfBytes": "20"
					},
					"t_contract(InftMinter)236": {
						"encoding": "inplace",
						"label": "contract InftMinter",
						"numberOfBytes": "20"
					}
				}
			},
			"userdoc": {
				"kind": "user",
				"methods": {
					"ccipReceive((bytes32,uint64,bytes,bytes,(address,uint256)[]))": {
						"notice": "Called by the Router to deliver a message. If this reverts, any token transfers also revert. The message will move to a FAILED state and become available for manual execution."
					},
					"getRouter()": {
						"notice": "Return the current router"
					},
					"supportsInterface(bytes4)": {
						"notice": "IERC165 supports an interfaceId"
					}
				},
				"notice": "THIS IS AN EXAMPLE CONTRACT THAT USES HARDCODED VALUES FOR CLARITY. THIS IS AN EXAMPLE CONTRACT THAT USES UN-AUDITED CODE. DO NOT USE THIS CODE IN PRODUCTION.",
				"version": 1
			}
		}
	}
}